{
  "abi": [
    {
      "inputs": [
        {
          "internalType": "address",
          "name": "_oracle",
          "type": "address"
        },
        {
          "internalType": "bytes32",
          "name": "_jobId",
          "type": "bytes32"
        },
        {
          "internalType": "uint256",
          "name": "_fee",
          "type": "uint256"
        },
        {
          "internalType": "address",
          "name": "_link",
          "type": "address"
        }
      ],
      "stateMutability": "nonpayable",
      "type": "constructor"
    },
    {
      "anonymous": false,
      "inputs": [
        {
          "indexed": true,
          "internalType": "bytes32",
          "name": "id",
          "type": "bytes32"
        }
      ],
      "name": "ChainlinkCancelled",
      "type": "event"
    },
    {
      "anonymous": false,
      "inputs": [
        {
          "indexed": true,
          "internalType": "bytes32",
          "name": "id",
          "type": "bytes32"
        }
      ],
      "name": "ChainlinkFulfilled",
      "type": "event"
    },
    {
      "anonymous": false,
      "inputs": [
        {
          "indexed": true,
          "internalType": "bytes32",
          "name": "id",
          "type": "bytes32"
        }
      ],
      "name": "ChainlinkRequested",
      "type": "event"
    },
    {
      "anonymous": false,
      "inputs": [
        {
          "indexed": false,
          "internalType": "uint256",
          "name": "volume",
          "type": "uint256"
        }
      ],
      "name": "DataFullfilled",
      "type": "event"
    },
    {
      "inputs": [
        {
          "internalType": "uint128",
          "name": "userId_",
          "type": "uint128"
        }
      ],
      "name": "append",
      "outputs": [
        {
          "internalType": "string",
          "name": "",
          "type": "string"
        }
      ],
      "stateMutability": "pure",
      "type": "function"
    },
    {
      "inputs": [],
      "name": "fee",
      "outputs": [
        {
          "internalType": "uint256",
          "name": "",
          "type": "uint256"
        }
      ],
      "stateMutability": "view",
      "type": "function"
    },
    {
      "inputs": [
        {
          "internalType": "bytes32",
          "name": "_requestId",
          "type": "bytes32"
        },
        {
          "internalType": "bool",
          "name": "_score",
          "type": "bool"
        }
      ],
      "name": "fulfill",
      "outputs": [],
      "stateMutability": "nonpayable",
      "type": "function"
    },
    {
      "inputs": [
        {
          "internalType": "uint128",
          "name": "userId_",
          "type": "uint128"
        }
      ],
      "name": "getDepositConfirmation",
      "outputs": [
        {
          "internalType": "bytes32",
          "name": "requestId",
          "type": "bytes32"
        }
      ],
      "stateMutability": "nonpayable",
      "type": "function"
    },
    {
      "inputs": [
        {
          "internalType": "uint128",
          "name": "number_",
          "type": "uint128"
        }
      ],
      "name": "getnumberString",
      "outputs": [
        {
          "internalType": "string",
          "name": "",
          "type": "string"
        }
      ],
      "stateMutability": "pure",
      "type": "function"
    },
    {
      "inputs": [],
      "name": "jobId",
      "outputs": [
        {
          "internalType": "bytes32",
          "name": "",
          "type": "bytes32"
        }
      ],
      "stateMutability": "view",
      "type": "function"
    },
    {
      "inputs": [],
      "name": "latestStatus",
      "outputs": [
        {
          "internalType": "bool",
          "name": "",
          "type": "bool"
        }
      ],
      "stateMutability": "view",
      "type": "function"
    },
    {
      "inputs": [],
      "name": "oracle",
      "outputs": [
        {
          "internalType": "address",
          "name": "",
          "type": "address"
        }
      ],
      "stateMutability": "view",
      "type": "function"
    },
    {
      "inputs": [
        {
          "internalType": "address",
          "name": "",
          "type": "address"
        }
      ],
      "name": "s_addressAmount",
      "outputs": [
        {
          "internalType": "int256",
          "name": "",
          "type": "int256"
        }
      ],
      "stateMutability": "view",
      "type": "function"
    }
  ],
  "bytecode": "608060405260016004553480156200001657600080fd5b506040516200114b3803806200114b833981016040819052620000399162000166565b6001600160a01b038116620000585762000052620000a8565b62000074565b600280546001600160a01b0319166001600160a01b0383161790555b50600880546001600160a01b0390941661010002610100600160a81b031990941693909317909255600955600a55620001d6565b6200014773c89bd4e1632d3a43cb03aaad5262cbe4038bc5716001600160a01b03166338cc48316040518163ffffffff1660e01b8152600401602060405180830381865afa158015620000ff573d6000803e3d6000fd5b505050506040513d601f19601f82011682018060405250810190620001259190620001b1565b600280546001600160a01b0319166001600160a01b0392909216919091179055565b565b80516001600160a01b03811681146200016157600080fd5b919050565b600080600080608085870312156200017d57600080fd5b620001888562000149565b93506020850151925060408501519150620001a66060860162000149565b905092959194509250565b600060208284031215620001c457600080fd5b620001cf8262000149565b9392505050565b610f6580620001e66000396000f3fe608060405234801561001057600080fd5b50600436106100935760003560e01c8063c2939d9711610066578063c2939d9714610138578063ceb2425a14610141578063d4ba98d914610154578063ddca3f4314610167578063fd68990a1461017057600080fd5b80637dc0d1d014610098578063869c117c146100cd57806391e21b14146100ea5780639246a1e114610118575b600080fd5b6008546100b09061010090046001600160a01b031681565b6040516001600160a01b0390911681526020015b60405180910390f35b6008546100da9060ff1681565b60405190151581526020016100c4565b61010a6100f8366004610b7f565b60076020526000908152604090205481565b6040519081526020016100c4565b61012b610126366004610ba8565b610185565b6040516100c49190610c29565b61010a60095481565b61010a61014f366004610ba8565b6101df565b61012b610162366004610ba8565b6102e0565b61010a600a5481565b61018361017e366004610c4d565b6102fa565b005b60408051808201909152600b81526a6c696e6b20746f2061706960a81b60208201526060906000816101b6856102e0565b6040516020016101c7929190610c7d565b60408051601f19818403018152919052949350505050565b6000806101f66009543063fd68990a60e01b6103d0565b60408051808201909152600881526768747470733a2f2f60c01b6020820152909150600081610224866102e0565b604051602001610235929190610c7d565b60408051601f19818403018152828201909152600382526219d95d60ea1b60208301529150610266908490836103ec565b6102b5604051806040016040528060048152602001630e0c2e8d60e31b8152506040518060400160405280600681526020016553544154555360d01b815250856103ec9092919063ffffffff16565b6102d7600860019054906101000a90046001600160a01b031684600a5461040f565b95945050505050565b60606102f4826001600160801b03166104a2565b92915050565b60008281526005602052604090205482906001600160a01b031633146103785760405162461bcd60e51b815260206004820152602860248201527f536f75726365206d75737420626520746865206f7261636c65206f6620746865604482015267081c995c5d595cdd60c21b60648201526084015b60405180910390fd5b60008181526005602052604080822080546001600160a01b03191690555182917f7cc135e0cebb02c3480ae5d74d377283180a2601f8f644edf7987b009316c63a91a2506008805460ff191691151591909117905550565b6103d8610b44565b6103e0610b44565b6102d7818686866105ab565b60808301516103fb90836105e8565b608083015161040a90826105e8565b505050565b600454600090610420816001610cc2565b600455835160408086015160808701515191516000936320214ca360e11b936104589386938493923092918a91600191602401610cda565b60408051601f198184030181529190526020810180516001600160e01b03166001600160e01b0319909316929092179091529050610498868386846105ff565b9695505050505050565b6060816000036104c95750506040805180820190915260018152600360fc1b602082015290565b8160005b81156104f357806104dd81610d42565b91506104ec9050600a83610d71565b91506104cd565b60008167ffffffffffffffff81111561050e5761050e610d85565b6040519080825280601f01601f191660200182016040528015610538576020820181803683370190505b5090505b84156105a35761054d600183610d9b565b915061055a600a86610db2565b610565906030610cc2565b60f81b81838151811061057a5761057a610dc6565b60200101906001600160f81b031916908160001a90535061059c600a86610d71565b945061053c565b949350505050565b6105b3610b44565b6105c3856080015161010061075d565b50509183526001600160a01b031660208301526001600160e01b031916604082015290565b6105f582600383516107c2565b61040a82826108d7565b6040516bffffffffffffffffffffffff193060601b1660208201526034810184905260009060540160408051808303601f1901815282825280516020918201206000818152600590925291812080546001600160a01b0319166001600160a01b038a1617905590925082917fb5e6e01e79f91267dc17b4e6314d5d4d03593d2ceee0fbb452b750bd70ea5af99190a2600254604051630200057560e51b81526001600160a01b0390911690634000aea0906106c290889087908790600401610ddc565b6020604051808303816000875af11580156106e1573d6000803e3d6000fd5b505050506040513d601f19601f820116820180604052508101906107059190610e03565b6105a35760405162461bcd60e51b815260206004820152602360248201527f756e61626c6520746f207472616e73666572416e6443616c6c20746f206f7261604482015262636c6560e81b606482015260840161036f565b60408051808201909152606081526000602082015261077d602083610db2565b156107a55761078d602083610db2565b610798906020610d9b565b6107a29083610cc2565b91505b506020828101829052604080518085526000815290920101905290565b60178167ffffffffffffffff16116107ed576107e78360e0600585901b168317610905565b50505050565b60ff8167ffffffffffffffff161161082b57610814836018611fe0600586901b1617610905565b506107e78367ffffffffffffffff8316600161092a565b61ffff8167ffffffffffffffff161161086a57610853836019611fe0600586901b1617610905565b506107e78367ffffffffffffffff8316600261092a565b63ffffffff8167ffffffffffffffff16116108ab5761089483601a611fe0600586901b1617610905565b506107e78367ffffffffffffffff8316600461092a565b6108c083601b611fe0600586901b1617610905565b506107e78367ffffffffffffffff8316600861092a565b6040805180820190915260608152600060208201526108fe83846000015151848551610950565b9392505050565b6040805180820190915260608152600060208201526108fe8384600001515184610a3a565b6040805180820190915260608152600060208201526105a3848560000151518585610a95565b604080518082019091526060815260006020820152825182111561097357600080fd5b60208501516109828386610cc2565b11156109b5576109b5856109a5876020015187866109a09190610cc2565b610b16565b6109b0906002610e20565b610b2d565b6000808651805187602083010193508088870111156109d45787860182525b505050602084015b60208410610a1457805182526109f3602083610cc2565b9150610a00602082610cc2565b9050610a0d602085610d9b565b93506109dc565b51815160001960208690036101000a019081169019919091161790525083949350505050565b60408051808201909152606081526000602082015283602001518310610a6f57610a6f84856020015160026109b09190610e20565b8351805160208583010184815350808503610a8b576001810182525b5093949350505050565b6040805180820190915260608152600060208201526020850151610ab98584610cc2565b1115610acd57610acd856109a58685610cc2565b60006001610add84610100610f23565b610ae79190610d9b565b9050855183868201018583198251161781525080518487011115610b0b5783860181525b509495945050505050565b600081831115610b275750816102f4565b50919050565b8151610b39838361075d565b506107e783826108d7565b6040805160a0810182526000808252602080830182905282840182905260608084018390528451808601909552845283015290608082015290565b600060208284031215610b9157600080fd5b81356001600160a01b03811681146108fe57600080fd5b600060208284031215610bba57600080fd5b81356001600160801b03811681146108fe57600080fd5b60005b83811015610bec578181015183820152602001610bd4565b838111156107e75750506000910152565b60008151808452610c15816020860160208601610bd1565b601f01601f19169290920160200192915050565b6020815260006108fe6020830184610bfd565b8015158114610c4a57600080fd5b50565b60008060408385031215610c6057600080fd5b823591506020830135610c7281610c3c565b809150509250929050565b60008351610c8f818460208801610bd1565b835190830190610ca3818360208801610bd1565b01949350505050565b634e487b7160e01b600052601160045260246000fd5b60008219821115610cd557610cd5610cac565b500190565b6001600160a01b0389811682526020820189905260408201889052861660608201526001600160e01b03198516608082015260a0810184905260c0810183905261010060e08201819052600090610d3383820185610bfd565b9b9a5050505050505050505050565b600060018201610d5457610d54610cac565b5060010190565b634e487b7160e01b600052601260045260246000fd5b600082610d8057610d80610d5b565b500490565b634e487b7160e01b600052604160045260246000fd5b600082821015610dad57610dad610cac565b500390565b600082610dc157610dc1610d5b565b500690565b634e487b7160e01b600052603260045260246000fd5b60018060a01b03841681528260208201526060604082015260006102d76060830184610bfd565b600060208284031215610e1557600080fd5b81516108fe81610c3c565b6000816000190483118215151615610e3a57610e3a610cac565b500290565b600181815b80851115610e7a578160001904821115610e6057610e60610cac565b80851615610e6d57918102915b93841c9390800290610e44565b509250929050565b600082610e91575060016102f4565b81610e9e575060006102f4565b8160018114610eb45760028114610ebe57610eda565b60019150506102f4565b60ff841115610ecf57610ecf610cac565b50506001821b6102f4565b5060208310610133831016604e8410600b8410161715610efd575081810a6102f4565b610f078383610e3f565b8060001904821115610f1b57610f1b610cac565b029392505050565b60006108fe8383610e8256fea2646970667358221220d3974162cc69949442f7b903d45fcc88f9c7e9190c344fb79592b0bda24e3b8864736f6c634300080d0033",
  "bytecodeSha1": "f2fd2015a0e0394140400ff301bbf054153c3c31",
  "compiler": {
    "evm_version": "istanbul",
    "optimizer": {
      "enabled": true,
      "runs": 200
    },
    "version": "0.8.13+commit.abaa5c0e"
  },
  "contractName": "APIConsumer",
  "language": "Solidity",
  "natspec": {
    "kind": "dev",
    "methods": {},
    "version": 1
  },
  "opcodes": "PUSH1 0x80 PUSH1 0x40 MSTORE CALLVALUE DUP1 ISZERO PUSH2 0x10 JUMPI PUSH1 0x0 DUP1 REVERT JUMPDEST POP PUSH1 0x4 CALLDATASIZE LT PUSH2 0x93 JUMPI PUSH1 0x0 CALLDATALOAD PUSH1 0xE0 SHR DUP1 PUSH4 0xC2939D97 GT PUSH2 0x66 JUMPI DUP1 PUSH4 0xC2939D97 EQ PUSH2 0x138 JUMPI DUP1 PUSH4 0xCEB2425A EQ PUSH2 0x141 JUMPI DUP1 PUSH4 0xD4BA98D9 EQ PUSH2 0x154 JUMPI DUP1 PUSH4 0xDDCA3F43 EQ PUSH2 0x167 JUMPI DUP1 PUSH4 0xFD68990A EQ PUSH2 0x170 JUMPI PUSH1 0x0 DUP1 REVERT JUMPDEST DUP1 PUSH4 0x7DC0D1D0 EQ PUSH2 0x98 JUMPI DUP1 PUSH4 0x869C117C EQ PUSH2 0xCD JUMPI DUP1 PUSH4 0x91E21B14 EQ PUSH2 0xEA JUMPI DUP1 PUSH4 0x9246A1E1 EQ PUSH2 0x118 JUMPI JUMPDEST PUSH1 0x0 DUP1 REVERT JUMPDEST PUSH1 0x8 SLOAD PUSH2 0xB0 SWAP1 PUSH2 0x100 SWAP1 DIV PUSH1 0x1 PUSH1 0x1 PUSH1 0xA0 SHL SUB AND DUP2 JUMP JUMPDEST PUSH1 0x40 MLOAD PUSH1 0x1 PUSH1 0x1 PUSH1 0xA0 SHL SUB SWAP1 SWAP2 AND DUP2 MSTORE PUSH1 0x20 ADD JUMPDEST PUSH1 0x40 MLOAD DUP1 SWAP2 SUB SWAP1 RETURN JUMPDEST PUSH1 0x8 SLOAD PUSH2 0xDA SWAP1 PUSH1 0xFF AND DUP2 JUMP JUMPDEST PUSH1 0x40 MLOAD SWAP1 ISZERO ISZERO DUP2 MSTORE PUSH1 0x20 ADD PUSH2 0xC4 JUMP JUMPDEST PUSH2 0x10A PUSH2 0xF8 CALLDATASIZE PUSH1 0x4 PUSH2 0xB7F JUMP JUMPDEST PUSH1 0x7 PUSH1 0x20 MSTORE PUSH1 0x0 SWAP1 DUP2 MSTORE PUSH1 0x40 SWAP1 KECCAK256 SLOAD DUP2 JUMP JUMPDEST PUSH1 0x40 MLOAD SWAP1 DUP2 MSTORE PUSH1 0x20 ADD PUSH2 0xC4 JUMP JUMPDEST PUSH2 0x12B PUSH2 0x126 CALLDATASIZE PUSH1 0x4 PUSH2 0xBA8 JUMP JUMPDEST PUSH2 0x185 JUMP JUMPDEST PUSH1 0x40 MLOAD PUSH2 0xC4 SWAP2 SWAP1 PUSH2 0xC29 JUMP JUMPDEST PUSH2 0x10A PUSH1 0x9 SLOAD DUP2 JUMP JUMPDEST PUSH2 0x10A PUSH2 0x14F CALLDATASIZE PUSH1 0x4 PUSH2 0xBA8 JUMP JUMPDEST PUSH2 0x1DF JUMP JUMPDEST PUSH2 0x12B PUSH2 0x162 CALLDATASIZE PUSH1 0x4 PUSH2 0xBA8 JUMP JUMPDEST PUSH2 0x2E0 JUMP JUMPDEST PUSH2 0x10A PUSH1 0xA SLOAD DUP2 JUMP JUMPDEST PUSH2 0x183 PUSH2 0x17E CALLDATASIZE PUSH1 0x4 PUSH2 0xC4D JUMP JUMPDEST PUSH2 0x2FA JUMP JUMPDEST STOP JUMPDEST PUSH1 0x40 DUP1 MLOAD DUP1 DUP3 ADD SWAP1 SWAP2 MSTORE PUSH1 0xB DUP2 MSTORE PUSH11 0x6C696E6B20746F20617069 PUSH1 0xA8 SHL PUSH1 0x20 DUP3 ADD MSTORE PUSH1 0x60 SWAP1 PUSH1 0x0 DUP2 PUSH2 0x1B6 DUP6 PUSH2 0x2E0 JUMP JUMPDEST PUSH1 0x40 MLOAD PUSH1 0x20 ADD PUSH2 0x1C7 SWAP3 SWAP2 SWAP1 PUSH2 0xC7D JUMP JUMPDEST PUSH1 0x40 DUP1 MLOAD PUSH1 0x1F NOT DUP2 DUP5 SUB ADD DUP2 MSTORE SWAP2 SWAP1 MSTORE SWAP5 SWAP4 POP POP POP POP JUMP JUMPDEST PUSH1 0x0 DUP1 PUSH2 0x1F6 PUSH1 0x9 SLOAD ADDRESS PUSH4 0xFD68990A PUSH1 0xE0 SHL PUSH2 0x3D0 JUMP JUMPDEST PUSH1 0x40 DUP1 MLOAD DUP1 DUP3 ADD SWAP1 SWAP2 MSTORE PUSH1 0x8 DUP2 MSTORE PUSH8 0x68747470733A2F2F PUSH1 0xC0 SHL PUSH1 0x20 DUP3 ADD MSTORE SWAP1 SWAP2 POP PUSH1 0x0 DUP2 PUSH2 0x224 DUP7 PUSH2 0x2E0 JUMP JUMPDEST PUSH1 0x40 MLOAD PUSH1 0x20 ADD PUSH2 0x235 SWAP3 SWAP2 SWAP1 PUSH2 0xC7D JUMP JUMPDEST PUSH1 0x40 DUP1 MLOAD PUSH1 0x1F NOT DUP2 DUP5 SUB ADD DUP2 MSTORE DUP3 DUP3 ADD SWAP1 SWAP2 MSTORE PUSH1 0x3 DUP3 MSTORE PUSH3 0x19D95D PUSH1 0xEA SHL PUSH1 0x20 DUP4 ADD MSTORE SWAP2 POP PUSH2 0x266 SWAP1 DUP5 SWAP1 DUP4 PUSH2 0x3EC JUMP JUMPDEST PUSH2 0x2B5 PUSH1 0x40 MLOAD DUP1 PUSH1 0x40 ADD PUSH1 0x40 MSTORE DUP1 PUSH1 0x4 DUP2 MSTORE PUSH1 0x20 ADD PUSH4 0xE0C2E8D PUSH1 0xE3 SHL DUP2 MSTORE POP PUSH1 0x40 MLOAD DUP1 PUSH1 0x40 ADD PUSH1 0x40 MSTORE DUP1 PUSH1 0x6 DUP2 MSTORE PUSH1 0x20 ADD PUSH6 0x535441545553 PUSH1 0xD0 SHL DUP2 MSTORE POP DUP6 PUSH2 0x3EC SWAP1 SWAP3 SWAP2 SWAP1 PUSH4 0xFFFFFFFF AND JUMP JUMPDEST PUSH2 0x2D7 PUSH1 0x8 PUSH1 0x1 SWAP1 SLOAD SWAP1 PUSH2 0x100 EXP SWAP1 DIV PUSH1 0x1 PUSH1 0x1 PUSH1 0xA0 SHL SUB AND DUP5 PUSH1 0xA SLOAD PUSH2 0x40F JUMP JUMPDEST SWAP6 SWAP5 POP POP POP POP POP JUMP JUMPDEST PUSH1 0x60 PUSH2 0x2F4 DUP3 PUSH1 0x1 PUSH1 0x1 PUSH1 0x80 SHL SUB AND PUSH2 0x4A2 JUMP JUMPDEST SWAP3 SWAP2 POP POP JUMP JUMPDEST PUSH1 0x0 DUP3 DUP2 MSTORE PUSH1 0x5 PUSH1 0x20 MSTORE PUSH1 0x40 SWAP1 KECCAK256 SLOAD DUP3 SWAP1 PUSH1 0x1 PUSH1 0x1 PUSH1 0xA0 SHL SUB AND CALLER EQ PUSH2 0x378 JUMPI PUSH1 0x40 MLOAD PUSH3 0x461BCD PUSH1 0xE5 SHL DUP2 MSTORE PUSH1 0x20 PUSH1 0x4 DUP3 ADD MSTORE PUSH1 0x28 PUSH1 0x24 DUP3 ADD MSTORE PUSH32 0x536F75726365206D75737420626520746865206F7261636C65206F6620746865 PUSH1 0x44 DUP3 ADD MSTORE PUSH8 0x81C995C5D595CDD PUSH1 0xC2 SHL PUSH1 0x64 DUP3 ADD MSTORE PUSH1 0x84 ADD JUMPDEST PUSH1 0x40 MLOAD DUP1 SWAP2 SUB SWAP1 REVERT JUMPDEST PUSH1 0x0 DUP2 DUP2 MSTORE PUSH1 0x5 PUSH1 0x20 MSTORE PUSH1 0x40 DUP1 DUP3 KECCAK256 DUP1 SLOAD PUSH1 0x1 PUSH1 0x1 PUSH1 0xA0 SHL SUB NOT AND SWAP1 SSTORE MLOAD DUP3 SWAP2 PUSH32 0x7CC135E0CEBB02C3480AE5D74D377283180A2601F8F644EDF7987B009316C63A SWAP2 LOG2 POP PUSH1 0x8 DUP1 SLOAD PUSH1 0xFF NOT AND SWAP2 ISZERO ISZERO SWAP2 SWAP1 SWAP2 OR SWAP1 SSTORE POP JUMP JUMPDEST PUSH2 0x3D8 PUSH2 0xB44 JUMP JUMPDEST PUSH2 0x3E0 PUSH2 0xB44 JUMP JUMPDEST PUSH2 0x2D7 DUP2 DUP7 DUP7 DUP7 PUSH2 0x5AB JUMP JUMPDEST PUSH1 0x80 DUP4 ADD MLOAD PUSH2 0x3FB SWAP1 DUP4 PUSH2 0x5E8 JUMP JUMPDEST PUSH1 0x80 DUP4 ADD MLOAD PUSH2 0x40A SWAP1 DUP3 PUSH2 0x5E8 JUMP JUMPDEST POP POP POP JUMP JUMPDEST PUSH1 0x4 SLOAD PUSH1 0x0 SWAP1 PUSH2 0x420 DUP2 PUSH1 0x1 PUSH2 0xCC2 JUMP JUMPDEST PUSH1 0x4 SSTORE DUP4 MLOAD PUSH1 0x40 DUP1 DUP7 ADD MLOAD PUSH1 0x80 DUP8 ADD MLOAD MLOAD SWAP2 MLOAD PUSH1 0x0 SWAP4 PUSH4 0x20214CA3 PUSH1 0xE1 SHL SWAP4 PUSH2 0x458 SWAP4 DUP7 SWAP4 DUP5 SWAP4 SWAP3 ADDRESS SWAP3 SWAP2 DUP11 SWAP2 PUSH1 0x1 SWAP2 PUSH1 0x24 ADD PUSH2 0xCDA JUMP JUMPDEST PUSH1 0x40 DUP1 MLOAD PUSH1 0x1F NOT DUP2 DUP5 SUB ADD DUP2 MSTORE SWAP2 SWAP1 MSTORE PUSH1 0x20 DUP2 ADD DUP1 MLOAD PUSH1 0x1 PUSH1 0x1 PUSH1 0xE0 SHL SUB AND PUSH1 0x1 PUSH1 0x1 PUSH1 0xE0 SHL SUB NOT SWAP1 SWAP4 AND SWAP3 SWAP1 SWAP3 OR SWAP1 SWAP2 MSTORE SWAP1 POP PUSH2 0x498 DUP7 DUP4 DUP7 DUP5 PUSH2 0x5FF JUMP JUMPDEST SWAP7 SWAP6 POP POP POP POP POP POP JUMP JUMPDEST PUSH1 0x60 DUP2 PUSH1 0x0 SUB PUSH2 0x4C9 JUMPI POP POP PUSH1 0x40 DUP1 MLOAD DUP1 DUP3 ADD SWAP1 SWAP2 MSTORE PUSH1 0x1 DUP2 MSTORE PUSH1 0x3 PUSH1 0xFC SHL PUSH1 0x20 DUP3 ADD MSTORE SWAP1 JUMP JUMPDEST DUP2 PUSH1 0x0 JUMPDEST DUP2 ISZERO PUSH2 0x4F3 JUMPI DUP1 PUSH2 0x4DD DUP2 PUSH2 0xD42 JUMP JUMPDEST SWAP2 POP PUSH2 0x4EC SWAP1 POP PUSH1 0xA DUP4 PUSH2 0xD71 JUMP JUMPDEST SWAP2 POP PUSH2 0x4CD JUMP JUMPDEST PUSH1 0x0 DUP2 PUSH8 0xFFFFFFFFFFFFFFFF DUP2 GT ISZERO PUSH2 0x50E JUMPI PUSH2 0x50E PUSH2 0xD85 JUMP JUMPDEST PUSH1 0x40 MLOAD SWAP1 DUP1 DUP3 MSTORE DUP1 PUSH1 0x1F ADD PUSH1 0x1F NOT AND PUSH1 0x20 ADD DUP3 ADD PUSH1 0x40 MSTORE DUP1 ISZERO PUSH2 0x538 JUMPI PUSH1 0x20 DUP3 ADD DUP2 DUP1 CALLDATASIZE DUP4 CALLDATACOPY ADD SWAP1 POP JUMPDEST POP SWAP1 POP JUMPDEST DUP5 ISZERO PUSH2 0x5A3 JUMPI PUSH2 0x54D PUSH1 0x1 DUP4 PUSH2 0xD9B JUMP JUMPDEST SWAP2 POP PUSH2 0x55A PUSH1 0xA DUP7 PUSH2 0xDB2 JUMP JUMPDEST PUSH2 0x565 SWAP1 PUSH1 0x30 PUSH2 0xCC2 JUMP JUMPDEST PUSH1 0xF8 SHL DUP2 DUP4 DUP2 MLOAD DUP2 LT PUSH2 0x57A JUMPI PUSH2 0x57A PUSH2 0xDC6 JUMP JUMPDEST PUSH1 0x20 ADD ADD SWAP1 PUSH1 0x1 PUSH1 0x1 PUSH1 0xF8 SHL SUB NOT AND SWAP1 DUP2 PUSH1 0x0 BYTE SWAP1 MSTORE8 POP PUSH2 0x59C PUSH1 0xA DUP7 PUSH2 0xD71 JUMP JUMPDEST SWAP5 POP PUSH2 0x53C JUMP JUMPDEST SWAP5 SWAP4 POP POP POP POP JUMP JUMPDEST PUSH2 0x5B3 PUSH2 0xB44 JUMP JUMPDEST PUSH2 0x5C3 DUP6 PUSH1 0x80 ADD MLOAD PUSH2 0x100 PUSH2 0x75D JUMP JUMPDEST POP POP SWAP2 DUP4 MSTORE PUSH1 0x1 PUSH1 0x1 PUSH1 0xA0 SHL SUB AND PUSH1 0x20 DUP4 ADD MSTORE PUSH1 0x1 PUSH1 0x1 PUSH1 0xE0 SHL SUB NOT AND PUSH1 0x40 DUP3 ADD MSTORE SWAP1 JUMP JUMPDEST PUSH2 0x5F5 DUP3 PUSH1 0x3 DUP4 MLOAD PUSH2 0x7C2 JUMP JUMPDEST PUSH2 0x40A DUP3 DUP3 PUSH2 0x8D7 JUMP JUMPDEST PUSH1 0x40 MLOAD PUSH12 0xFFFFFFFFFFFFFFFFFFFFFFFF NOT ADDRESS PUSH1 0x60 SHL AND PUSH1 0x20 DUP3 ADD MSTORE PUSH1 0x34 DUP2 ADD DUP5 SWAP1 MSTORE PUSH1 0x0 SWAP1 PUSH1 0x54 ADD PUSH1 0x40 DUP1 MLOAD DUP1 DUP4 SUB PUSH1 0x1F NOT ADD DUP2 MSTORE DUP3 DUP3 MSTORE DUP1 MLOAD PUSH1 0x20 SWAP2 DUP3 ADD KECCAK256 PUSH1 0x0 DUP2 DUP2 MSTORE PUSH1 0x5 SWAP1 SWAP3 MSTORE SWAP2 DUP2 KECCAK256 DUP1 SLOAD PUSH1 0x1 PUSH1 0x1 PUSH1 0xA0 SHL SUB NOT AND PUSH1 0x1 PUSH1 0x1 PUSH1 0xA0 SHL SUB DUP11 AND OR SWAP1 SSTORE SWAP1 SWAP3 POP DUP3 SWAP2 PUSH32 0xB5E6E01E79F91267DC17B4E6314D5D4D03593D2CEEE0FBB452B750BD70EA5AF9 SWAP2 SWAP1 LOG2 PUSH1 0x2 SLOAD PUSH1 0x40 MLOAD PUSH4 0x2000575 PUSH1 0xE5 SHL DUP2 MSTORE PUSH1 0x1 PUSH1 0x1 PUSH1 0xA0 SHL SUB SWAP1 SWAP2 AND SWAP1 PUSH4 0x4000AEA0 SWAP1 PUSH2 0x6C2 SWAP1 DUP9 SWAP1 DUP8 SWAP1 DUP8 SWAP1 PUSH1 0x4 ADD PUSH2 0xDDC JUMP JUMPDEST PUSH1 0x20 PUSH1 0x40 MLOAD DUP1 DUP4 SUB DUP2 PUSH1 0x0 DUP8 GAS CALL ISZERO DUP1 ISZERO PUSH2 0x6E1 JUMPI RETURNDATASIZE PUSH1 0x0 DUP1 RETURNDATACOPY RETURNDATASIZE PUSH1 0x0 REVERT JUMPDEST POP POP POP POP PUSH1 0x40 MLOAD RETURNDATASIZE PUSH1 0x1F NOT PUSH1 0x1F DUP3 ADD AND DUP3 ADD DUP1 PUSH1 0x40 MSTORE POP DUP2 ADD SWAP1 PUSH2 0x705 SWAP2 SWAP1 PUSH2 0xE03 JUMP JUMPDEST PUSH2 0x5A3 JUMPI PUSH1 0x40 MLOAD PUSH3 0x461BCD PUSH1 0xE5 SHL DUP2 MSTORE PUSH1 0x20 PUSH1 0x4 DUP3 ADD MSTORE PUSH1 0x23 PUSH1 0x24 DUP3 ADD MSTORE PUSH32 0x756E61626C6520746F207472616E73666572416E6443616C6C20746F206F7261 PUSH1 0x44 DUP3 ADD MSTORE PUSH3 0x636C65 PUSH1 0xE8 SHL PUSH1 0x64 DUP3 ADD MSTORE PUSH1 0x84 ADD PUSH2 0x36F JUMP JUMPDEST PUSH1 0x40 DUP1 MLOAD DUP1 DUP3 ADD SWAP1 SWAP2 MSTORE PUSH1 0x60 DUP2 MSTORE PUSH1 0x0 PUSH1 0x20 DUP3 ADD MSTORE PUSH2 0x77D PUSH1 0x20 DUP4 PUSH2 0xDB2 JUMP JUMPDEST ISZERO PUSH2 0x7A5 JUMPI PUSH2 0x78D PUSH1 0x20 DUP4 PUSH2 0xDB2 JUMP JUMPDEST PUSH2 0x798 SWAP1 PUSH1 0x20 PUSH2 0xD9B JUMP JUMPDEST PUSH2 0x7A2 SWAP1 DUP4 PUSH2 0xCC2 JUMP JUMPDEST SWAP2 POP JUMPDEST POP PUSH1 0x20 DUP3 DUP2 ADD DUP3 SWAP1 MSTORE PUSH1 0x40 DUP1 MLOAD DUP1 DUP6 MSTORE PUSH1 0x0 DUP2 MSTORE SWAP1 SWAP3 ADD ADD SWAP1 MSTORE SWAP1 JUMP JUMPDEST PUSH1 0x17 DUP2 PUSH8 0xFFFFFFFFFFFFFFFF AND GT PUSH2 0x7ED JUMPI PUSH2 0x7E7 DUP4 PUSH1 0xE0 PUSH1 0x5 DUP6 SWAP1 SHL AND DUP4 OR PUSH2 0x905 JUMP JUMPDEST POP POP POP POP JUMP JUMPDEST PUSH1 0xFF DUP2 PUSH8 0xFFFFFFFFFFFFFFFF AND GT PUSH2 0x82B JUMPI PUSH2 0x814 DUP4 PUSH1 0x18 PUSH2 0x1FE0 PUSH1 0x5 DUP7 SWAP1 SHL AND OR PUSH2 0x905 JUMP JUMPDEST POP PUSH2 0x7E7 DUP4 PUSH8 0xFFFFFFFFFFFFFFFF DUP4 AND PUSH1 0x1 PUSH2 0x92A JUMP JUMPDEST PUSH2 0xFFFF DUP2 PUSH8 0xFFFFFFFFFFFFFFFF AND GT PUSH2 0x86A JUMPI PUSH2 0x853 DUP4 PUSH1 0x19 PUSH2 0x1FE0 PUSH1 0x5 DUP7 SWAP1 SHL AND OR PUSH2 0x905 JUMP JUMPDEST POP PUSH2 0x7E7 DUP4 PUSH8 0xFFFFFFFFFFFFFFFF DUP4 AND PUSH1 0x2 PUSH2 0x92A JUMP JUMPDEST PUSH4 0xFFFFFFFF DUP2 PUSH8 0xFFFFFFFFFFFFFFFF AND GT PUSH2 0x8AB JUMPI PUSH2 0x894 DUP4 PUSH1 0x1A PUSH2 0x1FE0 PUSH1 0x5 DUP7 SWAP1 SHL AND OR PUSH2 0x905 JUMP JUMPDEST POP PUSH2 0x7E7 DUP4 PUSH8 0xFFFFFFFFFFFFFFFF DUP4 AND PUSH1 0x4 PUSH2 0x92A JUMP JUMPDEST PUSH2 0x8C0 DUP4 PUSH1 0x1B PUSH2 0x1FE0 PUSH1 0x5 DUP7 SWAP1 SHL AND OR PUSH2 0x905 JUMP JUMPDEST POP PUSH2 0x7E7 DUP4 PUSH8 0xFFFFFFFFFFFFFFFF DUP4 AND PUSH1 0x8 PUSH2 0x92A JUMP JUMPDEST PUSH1 0x40 DUP1 MLOAD DUP1 DUP3 ADD SWAP1 SWAP2 MSTORE PUSH1 0x60 DUP2 MSTORE PUSH1 0x0 PUSH1 0x20 DUP3 ADD MSTORE PUSH2 0x8FE DUP4 DUP5 PUSH1 0x0 ADD MLOAD MLOAD DUP5 DUP6 MLOAD PUSH2 0x950 JUMP JUMPDEST SWAP4 SWAP3 POP POP POP JUMP JUMPDEST PUSH1 0x40 DUP1 MLOAD DUP1 DUP3 ADD SWAP1 SWAP2 MSTORE PUSH1 0x60 DUP2 MSTORE PUSH1 0x0 PUSH1 0x20 DUP3 ADD MSTORE PUSH2 0x8FE DUP4 DUP5 PUSH1 0x0 ADD MLOAD MLOAD DUP5 PUSH2 0xA3A JUMP JUMPDEST PUSH1 0x40 DUP1 MLOAD DUP1 DUP3 ADD SWAP1 SWAP2 MSTORE PUSH1 0x60 DUP2 MSTORE PUSH1 0x0 PUSH1 0x20 DUP3 ADD MSTORE PUSH2 0x5A3 DUP5 DUP6 PUSH1 0x0 ADD MLOAD MLOAD DUP6 DUP6 PUSH2 0xA95 JUMP JUMPDEST PUSH1 0x40 DUP1 MLOAD DUP1 DUP3 ADD SWAP1 SWAP2 MSTORE PUSH1 0x60 DUP2 MSTORE PUSH1 0x0 PUSH1 0x20 DUP3 ADD MSTORE DUP3 MLOAD DUP3 GT ISZERO PUSH2 0x973 JUMPI PUSH1 0x0 DUP1 REVERT JUMPDEST PUSH1 0x20 DUP6 ADD MLOAD PUSH2 0x982 DUP4 DUP7 PUSH2 0xCC2 JUMP JUMPDEST GT ISZERO PUSH2 0x9B5 JUMPI PUSH2 0x9B5 DUP6 PUSH2 0x9A5 DUP8 PUSH1 0x20 ADD MLOAD DUP8 DUP7 PUSH2 0x9A0 SWAP2 SWAP1 PUSH2 0xCC2 JUMP JUMPDEST PUSH2 0xB16 JUMP JUMPDEST PUSH2 0x9B0 SWAP1 PUSH1 0x2 PUSH2 0xE20 JUMP JUMPDEST PUSH2 0xB2D JUMP JUMPDEST PUSH1 0x0 DUP1 DUP7 MLOAD DUP1 MLOAD DUP8 PUSH1 0x20 DUP4 ADD ADD SWAP4 POP DUP1 DUP9 DUP8 ADD GT ISZERO PUSH2 0x9D4 JUMPI DUP8 DUP7 ADD DUP3 MSTORE JUMPDEST POP POP POP PUSH1 0x20 DUP5 ADD JUMPDEST PUSH1 0x20 DUP5 LT PUSH2 0xA14 JUMPI DUP1 MLOAD DUP3 MSTORE PUSH2 0x9F3 PUSH1 0x20 DUP4 PUSH2 0xCC2 JUMP JUMPDEST SWAP2 POP PUSH2 0xA00 PUSH1 0x20 DUP3 PUSH2 0xCC2 JUMP JUMPDEST SWAP1 POP PUSH2 0xA0D PUSH1 0x20 DUP6 PUSH2 0xD9B JUMP JUMPDEST SWAP4 POP PUSH2 0x9DC JUMP JUMPDEST MLOAD DUP2 MLOAD PUSH1 0x0 NOT PUSH1 0x20 DUP7 SWAP1 SUB PUSH2 0x100 EXP ADD SWAP1 DUP2 AND SWAP1 NOT SWAP2 SWAP1 SWAP2 AND OR SWAP1 MSTORE POP DUP4 SWAP5 SWAP4 POP POP POP POP JUMP JUMPDEST PUSH1 0x40 DUP1 MLOAD DUP1 DUP3 ADD SWAP1 SWAP2 MSTORE PUSH1 0x60 DUP2 MSTORE PUSH1 0x0 PUSH1 0x20 DUP3 ADD MSTORE DUP4 PUSH1 0x20 ADD MLOAD DUP4 LT PUSH2 0xA6F JUMPI PUSH2 0xA6F DUP5 DUP6 PUSH1 0x20 ADD MLOAD PUSH1 0x2 PUSH2 0x9B0 SWAP2 SWAP1 PUSH2 0xE20 JUMP JUMPDEST DUP4 MLOAD DUP1 MLOAD PUSH1 0x20 DUP6 DUP4 ADD ADD DUP5 DUP2 MSTORE8 POP DUP1 DUP6 SUB PUSH2 0xA8B JUMPI PUSH1 0x1 DUP2 ADD DUP3 MSTORE JUMPDEST POP SWAP4 SWAP5 SWAP4 POP POP POP POP JUMP JUMPDEST PUSH1 0x40 DUP1 MLOAD DUP1 DUP3 ADD SWAP1 SWAP2 MSTORE PUSH1 0x60 DUP2 MSTORE PUSH1 0x0 PUSH1 0x20 DUP3 ADD MSTORE PUSH1 0x20 DUP6 ADD MLOAD PUSH2 0xAB9 DUP6 DUP5 PUSH2 0xCC2 JUMP JUMPDEST GT ISZERO PUSH2 0xACD JUMPI PUSH2 0xACD DUP6 PUSH2 0x9A5 DUP7 DUP6 PUSH2 0xCC2 JUMP JUMPDEST PUSH1 0x0 PUSH1 0x1 PUSH2 0xADD DUP5 PUSH2 0x100 PUSH2 0xF23 JUMP JUMPDEST PUSH2 0xAE7 SWAP2 SWAP1 PUSH2 0xD9B JUMP JUMPDEST SWAP1 POP DUP6 MLOAD DUP4 DUP7 DUP3 ADD ADD DUP6 DUP4 NOT DUP3 MLOAD AND OR DUP2 MSTORE POP DUP1 MLOAD DUP5 DUP8 ADD GT ISZERO PUSH2 0xB0B JUMPI DUP4 DUP7 ADD DUP2 MSTORE JUMPDEST POP SWAP5 SWAP6 SWAP5 POP POP POP POP POP JUMP JUMPDEST PUSH1 0x0 DUP2 DUP4 GT ISZERO PUSH2 0xB27 JUMPI POP DUP2 PUSH2 0x2F4 JUMP JUMPDEST POP SWAP2 SWAP1 POP JUMP JUMPDEST DUP2 MLOAD PUSH2 0xB39 DUP4 DUP4 PUSH2 0x75D JUMP JUMPDEST POP PUSH2 0x7E7 DUP4 DUP3 PUSH2 0x8D7 JUMP JUMPDEST PUSH1 0x40 DUP1 MLOAD PUSH1 0xA0 DUP2 ADD DUP3 MSTORE PUSH1 0x0 DUP1 DUP3 MSTORE PUSH1 0x20 DUP1 DUP4 ADD DUP3 SWAP1 MSTORE DUP3 DUP5 ADD DUP3 SWAP1 MSTORE PUSH1 0x60 DUP1 DUP5 ADD DUP4 SWAP1 MSTORE DUP5 MLOAD DUP1 DUP7 ADD SWAP1 SWAP6 MSTORE DUP5 MSTORE DUP4 ADD MSTORE SWAP1 PUSH1 0x80 DUP3 ADD MSTORE SWAP1 JUMP JUMPDEST PUSH1 0x0 PUSH1 0x20 DUP3 DUP5 SUB SLT ISZERO PUSH2 0xB91 JUMPI PUSH1 0x0 DUP1 REVERT JUMPDEST DUP2 CALLDATALOAD PUSH1 0x1 PUSH1 0x1 PUSH1 0xA0 SHL SUB DUP2 AND DUP2 EQ PUSH2 0x8FE JUMPI PUSH1 0x0 DUP1 REVERT JUMPDEST PUSH1 0x0 PUSH1 0x20 DUP3 DUP5 SUB SLT ISZERO PUSH2 0xBBA JUMPI PUSH1 0x0 DUP1 REVERT JUMPDEST DUP2 CALLDATALOAD PUSH1 0x1 PUSH1 0x1 PUSH1 0x80 SHL SUB DUP2 AND DUP2 EQ PUSH2 0x8FE JUMPI PUSH1 0x0 DUP1 REVERT JUMPDEST PUSH1 0x0 JUMPDEST DUP4 DUP2 LT ISZERO PUSH2 0xBEC JUMPI DUP2 DUP2 ADD MLOAD DUP4 DUP3 ADD MSTORE PUSH1 0x20 ADD PUSH2 0xBD4 JUMP JUMPDEST DUP4 DUP2 GT ISZERO PUSH2 0x7E7 JUMPI POP POP PUSH1 0x0 SWAP2 ADD MSTORE JUMP JUMPDEST PUSH1 0x0 DUP2 MLOAD DUP1 DUP5 MSTORE PUSH2 0xC15 DUP2 PUSH1 0x20 DUP7 ADD PUSH1 0x20 DUP7 ADD PUSH2 0xBD1 JUMP JUMPDEST PUSH1 0x1F ADD PUSH1 0x1F NOT AND SWAP3 SWAP1 SWAP3 ADD PUSH1 0x20 ADD SWAP3 SWAP2 POP POP JUMP JUMPDEST PUSH1 0x20 DUP2 MSTORE PUSH1 0x0 PUSH2 0x8FE PUSH1 0x20 DUP4 ADD DUP5 PUSH2 0xBFD JUMP JUMPDEST DUP1 ISZERO ISZERO DUP2 EQ PUSH2 0xC4A JUMPI PUSH1 0x0 DUP1 REVERT JUMPDEST POP JUMP JUMPDEST PUSH1 0x0 DUP1 PUSH1 0x40 DUP4 DUP6 SUB SLT ISZERO PUSH2 0xC60 JUMPI PUSH1 0x0 DUP1 REVERT JUMPDEST DUP3 CALLDATALOAD SWAP2 POP PUSH1 0x20 DUP4 ADD CALLDATALOAD PUSH2 0xC72 DUP2 PUSH2 0xC3C JUMP JUMPDEST DUP1 SWAP2 POP POP SWAP3 POP SWAP3 SWAP1 POP JUMP JUMPDEST PUSH1 0x0 DUP4 MLOAD PUSH2 0xC8F DUP2 DUP5 PUSH1 0x20 DUP9 ADD PUSH2 0xBD1 JUMP JUMPDEST DUP4 MLOAD SWAP1 DUP4 ADD SWAP1 PUSH2 0xCA3 DUP2 DUP4 PUSH1 0x20 DUP9 ADD PUSH2 0xBD1 JUMP JUMPDEST ADD SWAP5 SWAP4 POP POP POP POP JUMP JUMPDEST PUSH4 0x4E487B71 PUSH1 0xE0 SHL PUSH1 0x0 MSTORE PUSH1 0x11 PUSH1 0x4 MSTORE PUSH1 0x24 PUSH1 0x0 REVERT JUMPDEST PUSH1 0x0 DUP3 NOT DUP3 GT ISZERO PUSH2 0xCD5 JUMPI PUSH2 0xCD5 PUSH2 0xCAC JUMP JUMPDEST POP ADD SWAP1 JUMP JUMPDEST PUSH1 0x1 PUSH1 0x1 PUSH1 0xA0 SHL SUB DUP10 DUP2 AND DUP3 MSTORE PUSH1 0x20 DUP3 ADD DUP10 SWAP1 MSTORE PUSH1 0x40 DUP3 ADD DUP9 SWAP1 MSTORE DUP7 AND PUSH1 0x60 DUP3 ADD MSTORE PUSH1 0x1 PUSH1 0x1 PUSH1 0xE0 SHL SUB NOT DUP6 AND PUSH1 0x80 DUP3 ADD MSTORE PUSH1 0xA0 DUP2 ADD DUP5 SWAP1 MSTORE PUSH1 0xC0 DUP2 ADD DUP4 SWAP1 MSTORE PUSH2 0x100 PUSH1 0xE0 DUP3 ADD DUP2 SWAP1 MSTORE PUSH1 0x0 SWAP1 PUSH2 0xD33 DUP4 DUP3 ADD DUP6 PUSH2 0xBFD JUMP JUMPDEST SWAP12 SWAP11 POP POP POP POP POP POP POP POP POP POP POP JUMP JUMPDEST PUSH1 0x0 PUSH1 0x1 DUP3 ADD PUSH2 0xD54 JUMPI PUSH2 0xD54 PUSH2 0xCAC JUMP JUMPDEST POP PUSH1 0x1 ADD SWAP1 JUMP JUMPDEST PUSH4 0x4E487B71 PUSH1 0xE0 SHL PUSH1 0x0 MSTORE PUSH1 0x12 PUSH1 0x4 MSTORE PUSH1 0x24 PUSH1 0x0 REVERT JUMPDEST PUSH1 0x0 DUP3 PUSH2 0xD80 JUMPI PUSH2 0xD80 PUSH2 0xD5B JUMP JUMPDEST POP DIV SWAP1 JUMP JUMPDEST PUSH4 0x4E487B71 PUSH1 0xE0 SHL PUSH1 0x0 MSTORE PUSH1 0x41 PUSH1 0x4 MSTORE PUSH1 0x24 PUSH1 0x0 REVERT JUMPDEST PUSH1 0x0 DUP3 DUP3 LT ISZERO PUSH2 0xDAD JUMPI PUSH2 0xDAD PUSH2 0xCAC JUMP JUMPDEST POP SUB SWAP1 JUMP JUMPDEST PUSH1 0x0 DUP3 PUSH2 0xDC1 JUMPI PUSH2 0xDC1 PUSH2 0xD5B JUMP JUMPDEST POP MOD SWAP1 JUMP JUMPDEST PUSH4 0x4E487B71 PUSH1 0xE0 SHL PUSH1 0x0 MSTORE PUSH1 0x32 PUSH1 0x4 MSTORE PUSH1 0x24 PUSH1 0x0 REVERT JUMPDEST PUSH1 0x1 DUP1 PUSH1 0xA0 SHL SUB DUP5 AND DUP2 MSTORE DUP3 PUSH1 0x20 DUP3 ADD MSTORE PUSH1 0x60 PUSH1 0x40 DUP3 ADD MSTORE PUSH1 0x0 PUSH2 0x2D7 PUSH1 0x60 DUP4 ADD DUP5 PUSH2 0xBFD JUMP JUMPDEST PUSH1 0x0 PUSH1 0x20 DUP3 DUP5 SUB SLT ISZERO PUSH2 0xE15 JUMPI PUSH1 0x0 DUP1 REVERT JUMPDEST DUP2 MLOAD PUSH2 0x8FE DUP2 PUSH2 0xC3C JUMP JUMPDEST PUSH1 0x0 DUP2 PUSH1 0x0 NOT DIV DUP4 GT DUP3 ISZERO ISZERO AND ISZERO PUSH2 0xE3A JUMPI PUSH2 0xE3A PUSH2 0xCAC JUMP JUMPDEST POP MUL SWAP1 JUMP JUMPDEST PUSH1 0x1 DUP2 DUP2 JUMPDEST DUP1 DUP6 GT ISZERO PUSH2 0xE7A JUMPI DUP2 PUSH1 0x0 NOT DIV DUP3 GT ISZERO PUSH2 0xE60 JUMPI PUSH2 0xE60 PUSH2 0xCAC JUMP JUMPDEST DUP1 DUP6 AND ISZERO PUSH2 0xE6D JUMPI SWAP2 DUP2 MUL SWAP2 JUMPDEST SWAP4 DUP5 SHR SWAP4 SWAP1 DUP1 MUL SWAP1 PUSH2 0xE44 JUMP JUMPDEST POP SWAP3 POP SWAP3 SWAP1 POP JUMP JUMPDEST PUSH1 0x0 DUP3 PUSH2 0xE91 JUMPI POP PUSH1 0x1 PUSH2 0x2F4 JUMP JUMPDEST DUP2 PUSH2 0xE9E JUMPI POP PUSH1 0x0 PUSH2 0x2F4 JUMP JUMPDEST DUP2 PUSH1 0x1 DUP2 EQ PUSH2 0xEB4 JUMPI PUSH1 0x2 DUP2 EQ PUSH2 0xEBE JUMPI PUSH2 0xEDA JUMP JUMPDEST PUSH1 0x1 SWAP2 POP POP PUSH2 0x2F4 JUMP JUMPDEST PUSH1 0xFF DUP5 GT ISZERO PUSH2 0xECF JUMPI PUSH2 0xECF PUSH2 0xCAC JUMP JUMPDEST POP POP PUSH1 0x1 DUP3 SHL PUSH2 0x2F4 JUMP JUMPDEST POP PUSH1 0x20 DUP4 LT PUSH2 0x133 DUP4 LT AND PUSH1 0x4E DUP5 LT PUSH1 0xB DUP5 LT AND OR ISZERO PUSH2 0xEFD JUMPI POP DUP2 DUP2 EXP PUSH2 0x2F4 JUMP JUMPDEST PUSH2 0xF07 DUP4 DUP4 PUSH2 0xE3F JUMP JUMPDEST DUP1 PUSH1 0x0 NOT DIV DUP3 GT ISZERO PUSH2 0xF1B JUMPI PUSH2 0xF1B PUSH2 0xCAC JUMP JUMPDEST MUL SWAP4 SWAP3 POP POP POP JUMP JUMPDEST PUSH1 0x0 PUSH2 0x8FE DUP4 DUP4 PUSH2 0xE82 JUMP INVALID LOG2 PUSH5 0x6970667358 0x22 SLT KECCAK256 0xD3 SWAP8 COINBASE PUSH3 0xCC6994 SWAP5 TIMESTAMP 0xF7 0xB9 SUB 0xD4 0x5F 0xCC DUP9 0xF9 0xC7 0xE9 NOT 0xC CALLVALUE 0x4F 0xB7 SWAP6 SWAP3 0xB0 0xBD LOG2 0x4E EXTCODESIZE DUP9 PUSH5 0x736F6C6343 STOP ADDMOD 0xD STOP CALLER ",
  "sha1": "18fec146c3f252ec779f631ed85f6dbba21556d9",
  "source": "// SPDX-License-Identifier: MIT\npragma solidity ^0.8.0;\n\nimport \"@chainlink/contracts/src/v0.8/ChainlinkClient.sol\";\n\ncontract APIConsumer is ChainlinkClient {\n    using Chainlink for Chainlink.Request;\n\n    mapping(bytes32 => bool) private s_typeIdrequested;\n\n    mapping(address => int256) public s_addressAmount;\n\n    bool public latestStatus;\n\n    address public oracle;\n    bytes32 public jobId;\n    uint256 public fee;\n\n    event DataFullfilled(uint256 volume);\n\n    constructor(\n        address _oracle,\n        bytes32 _jobId,\n        uint256 _fee,\n        address _link\n    ) {\n        if (_link == address(0)) {\n            setPublicChainlinkToken();\n        } else {\n            setChainlinkToken(_link);\n        }\n        oracle = _oracle;\n        jobId = _jobId;\n        fee = _fee;\n    }\n\n    function getnumberString(uint128 number_)\n        public\n        pure\n        returns (string memory)\n    {\n        return toString(uint256(number_));\n    }\n\n    function toString(uint256 value) internal pure returns (string memory) {\n        if (value == 0) {\n            return \"0\";\n        }\n        uint256 temp = value;\n        uint256 digits;\n        while (temp != 0) {\n            digits++;\n            temp /= 10;\n        }\n        bytes memory buffer = new bytes(digits);\n        while (value != 0) {\n            digits -= 1;\n            buffer[digits] = bytes1(uint8(48 + uint256(value % 10)));\n            value /= 10;\n        }\n        return string(buffer);\n    }\n\n    function append(uint128 userId_) public pure returns (string memory) {\n        string memory url = \"link to api\";\n        string memory playerURL = string(\n            abi.encodePacked(url, getnumberString(userId_))\n        );\n        return playerURL;\n    }\n\n    function getDepositConfirmation(uint128 userId_)\n        public\n        returns (bytes32 requestId)\n    {\n        Chainlink.Request memory request = buildChainlinkRequest(\n            jobId,\n            address(this),\n            this.fulfill.selector\n        );\n        string memory url = \"https://\";\n        string memory userURL = string(\n            abi.encodePacked(url, getnumberString(userId_))\n        );\n        request.add(\"get\", userURL);\n\n        request.add(\"path\", \"STATUS\");\n\n        return sendChainlinkRequestTo(oracle, request, fee);\n    }\n\n    function fulfill(bytes32 _requestId, bool _score)\n        public\n        recordChainlinkFulfillment(_requestId)\n    {\n        latestStatus = _score;\n    }\n}\n",
  "sourcePath": "contracts/APIContract.sol",
  "type": "contract"
}