{
  "abi": [
    {
      "inputs": [
        {
          "internalType": "address",
          "name": "_trustContract",
          "type": "address"
        },
        {
          "internalType": "address",
          "name": "_trustIda",
          "type": "address"
        },
        {
          "internalType": "address",
          "name": "_token",
          "type": "address"
        }
      ],
      "stateMutability": "nonpayable",
      "type": "constructor"
    },
    {
      "inputs": [
        {
          "internalType": "bytes",
          "name": "",
          "type": "bytes"
        }
      ],
      "name": "checkUpkeep",
      "outputs": [
        {
          "internalType": "bool",
          "name": "upkeepNeeded",
          "type": "bool"
        },
        {
          "internalType": "bytes",
          "name": "performData",
          "type": "bytes"
        }
      ],
      "stateMutability": "view",
      "type": "function"
    },
    {
      "inputs": [],
      "name": "lastInvestCheck",
      "outputs": [
        {
          "internalType": "uint256",
          "name": "",
          "type": "uint256"
        }
      ],
      "stateMutability": "view",
      "type": "function"
    },
    {
      "inputs": [],
      "name": "lastSalaryCheck",
      "outputs": [
        {
          "internalType": "uint256",
          "name": "",
          "type": "uint256"
        }
      ],
      "stateMutability": "view",
      "type": "function"
    },
    {
      "inputs": [
        {
          "internalType": "bytes",
          "name": "performData",
          "type": "bytes"
        }
      ],
      "name": "performUpkeep",
      "outputs": [],
      "stateMutability": "nonpayable",
      "type": "function"
    }
  ],
  "bytecode": "608060405234801561001057600080fd5b506040516109b33803806109b383398101604081905261002f916100e6565b600280546001600160a01b038381166001600160a01b03199283161790925560018054858416908316179055600080549286169290911682179055604051637048027560e01b8152306004820152637048027590602401600060405180830381600087803b1580156100a057600080fd5b505af11580156100b4573d6000803e3d6000fd5b5050426003819055600455506101299350505050565b80516001600160a01b03811681146100e157600080fd5b919050565b6000806000606084860312156100fb57600080fd5b610104846100ca565b9250610112602085016100ca565b9150610120604085016100ca565b90509250925092565b61087b806101386000396000f3fe608060405234801561001057600080fd5b506004361061004c5760003560e01c80634585e33b146100515780636e04ff0d1461006657806379304e6a14610090578063e5d482fb146100a7575b600080fd5b61006461005f366004610624565b6100b0565b005b610079610074366004610624565b61023f565b604051610087929190610696565b60405180910390f35b61009960045481565b604051908152602001610087565b61009960035481565b60026100be828401846106f5565b10156101ca5760006100d2828401846106f5565b9050806000036100e857426003556100e861030e565b806001036101c5574260049081556001546040805163130e008360e01b815290516000936001600160a01b039093169263130e0083928082019260209290918290030181865afa158015610140573d6000803e3d6000fd5b505050506040513d601f19601f82011682018060405250810190610164919061070e565b6001546040516391c05b0b60e01b8152600481018390529192506001600160a01b0316906391c05b0b90602401600060405180830381600087803b1580156101ab57600080fd5b505af11580156101bf573d6000803e3d6000fd5b50505050505b505050565b60006101d88284018461073f565b60005460405163de4b9e9360e01b81526001600160a01b03808416600483015292935091169063de4b9e9390602401600060405180830381600087803b15801561022157600080fd5b505af1158015610235573d6000803e3d6000fd5b50505050505b5050565b60006060426104b06003546102549190610779565b1161027b576040805160006020820152600193500160405160208183030381529060405290505b4262278d0060045461028d9190610779565b116102b4576040805160016020820181905293500160405160208183030381529060405290505b6000806102bf610480565b92505091508115156001151503610305576040516bffffffffffffffffffffffff19606083901b1660208201526001945060340160405160208183030381529060405292505b50509250929050565b60008060009054906101000a90046001600160a01b03166001600160a01b031663d7766d796040518163ffffffff1660e01b8152600401602060405180830381865afa158015610362573d6000803e3d6000fd5b505050506040513d601f19601f82011682018060405250810190610386919061070e565b905060005b8181101561023b5760008054604051632ee754eb60e11b8152600481018490526001600160a01b0390911690635dcea9d690602401602060405180830381865afa1580156103dd573d6000803e3d6000fd5b505050506040513d601f19601f820116820180604052508101906104019190610791565b6000546002546040516301c0428560e41b81526001600160a01b03808516600483015291821660248201529293501690631c04285090604401600060405180830381600087803b15801561045457600080fd5b505af1158015610468573d6000803e3d6000fd5b50505050508080610478906107ae565b91505061038b565b600080600080600160009054906101000a90046001600160a01b03166001600160a01b031663802758606040518163ffffffff1660e01b8152600401602060405180830381865afa1580156104d9573d6000803e3d6000fd5b505050506040513d601f19601f820116820180604052508101906104fd919061070e565b9050801561061e5760005b8181101561061c57600154604051631684868360e11b8152600481018390526001600160a01b0390911690632d090d0690602401602060405180830381865afa158015610559573d6000803e3d6000fd5b505050506040513d601f19601f8201168201806040525081019061057d919061070e565b600154604051634f6675af60e11b81526004810183905291955060009182916001600160a01b031690639ecceb5e9060240160c060405180830381865afa1580156105cc573d6000803e3d6000fd5b505050506040513d601f19601f820116820180604052508101906105f091906107c7565b955050509350505042821061060757600196508094505b50508080610614906107ae565b915050610508565b505b50909192565b6000806020838503121561063757600080fd5b823567ffffffffffffffff8082111561064f57600080fd5b818501915085601f83011261066357600080fd5b81358181111561067257600080fd5b86602082850101111561068457600080fd5b60209290920196919550909350505050565b821515815260006020604081840152835180604085015260005b818110156106cc578581018301518582016060015282016106b0565b818111156106de576000606083870101525b50601f01601f191692909201606001949350505050565b60006020828403121561070757600080fd5b5035919050565b60006020828403121561072057600080fd5b5051919050565b6001600160a01b038116811461073c57600080fd5b50565b60006020828403121561075157600080fd5b813561075c81610727565b9392505050565b634e487b7160e01b600052601160045260246000fd5b6000821982111561078c5761078c610763565b500190565b6000602082840312156107a357600080fd5b815161075c81610727565b6000600182016107c0576107c0610763565b5060010190565b60008060008060008060c087890312156107e057600080fd5b86519550602087015180600b0b81146107f857600080fd5b60408801516060890151919650945061081081610727565b6080880151909350801515811461082657600080fd5b60a088015190925061083781610727565b80915050929550929550929556fea2646970667358221220dce2552aae7c30c1ce5fb4414923af1e5bbeb5ed736e46a9f0248cd91d0be79764736f6c634300080d0033",
  "bytecodeSha1": "c83bd9196e8f708690767c144303d5d84fd0ebff",
  "compiler": {
    "evm_version": "istanbul",
    "optimizer": {
      "enabled": true,
      "runs": 200
    },
    "version": "0.8.13+commit.abaa5c0e"
  },
  "contractName": "DepositKeeper",
  "language": "Solidity",
  "natspec": {
    "kind": "dev",
    "methods": {},
    "version": 1
  },
  "opcodes": "PUSH1 0x80 PUSH1 0x40 MSTORE CALLVALUE DUP1 ISZERO PUSH2 0x10 JUMPI PUSH1 0x0 DUP1 REVERT JUMPDEST POP PUSH1 0x4 CALLDATASIZE LT PUSH2 0x4C JUMPI PUSH1 0x0 CALLDATALOAD PUSH1 0xE0 SHR DUP1 PUSH4 0x4585E33B EQ PUSH2 0x51 JUMPI DUP1 PUSH4 0x6E04FF0D EQ PUSH2 0x66 JUMPI DUP1 PUSH4 0x79304E6A EQ PUSH2 0x90 JUMPI DUP1 PUSH4 0xE5D482FB EQ PUSH2 0xA7 JUMPI JUMPDEST PUSH1 0x0 DUP1 REVERT JUMPDEST PUSH2 0x64 PUSH2 0x5F CALLDATASIZE PUSH1 0x4 PUSH2 0x624 JUMP JUMPDEST PUSH2 0xB0 JUMP JUMPDEST STOP JUMPDEST PUSH2 0x79 PUSH2 0x74 CALLDATASIZE PUSH1 0x4 PUSH2 0x624 JUMP JUMPDEST PUSH2 0x23F JUMP JUMPDEST PUSH1 0x40 MLOAD PUSH2 0x87 SWAP3 SWAP2 SWAP1 PUSH2 0x696 JUMP JUMPDEST PUSH1 0x40 MLOAD DUP1 SWAP2 SUB SWAP1 RETURN JUMPDEST PUSH2 0x99 PUSH1 0x4 SLOAD DUP2 JUMP JUMPDEST PUSH1 0x40 MLOAD SWAP1 DUP2 MSTORE PUSH1 0x20 ADD PUSH2 0x87 JUMP JUMPDEST PUSH2 0x99 PUSH1 0x3 SLOAD DUP2 JUMP JUMPDEST PUSH1 0x2 PUSH2 0xBE DUP3 DUP5 ADD DUP5 PUSH2 0x6F5 JUMP JUMPDEST LT ISZERO PUSH2 0x1CA JUMPI PUSH1 0x0 PUSH2 0xD2 DUP3 DUP5 ADD DUP5 PUSH2 0x6F5 JUMP JUMPDEST SWAP1 POP DUP1 PUSH1 0x0 SUB PUSH2 0xE8 JUMPI TIMESTAMP PUSH1 0x3 SSTORE PUSH2 0xE8 PUSH2 0x30E JUMP JUMPDEST DUP1 PUSH1 0x1 SUB PUSH2 0x1C5 JUMPI TIMESTAMP PUSH1 0x4 SWAP1 DUP2 SSTORE PUSH1 0x1 SLOAD PUSH1 0x40 DUP1 MLOAD PUSH4 0x130E0083 PUSH1 0xE0 SHL DUP2 MSTORE SWAP1 MLOAD PUSH1 0x0 SWAP4 PUSH1 0x1 PUSH1 0x1 PUSH1 0xA0 SHL SUB SWAP1 SWAP4 AND SWAP3 PUSH4 0x130E0083 SWAP3 DUP1 DUP3 ADD SWAP3 PUSH1 0x20 SWAP3 SWAP1 SWAP2 DUP3 SWAP1 SUB ADD DUP2 DUP7 GAS STATICCALL ISZERO DUP1 ISZERO PUSH2 0x140 JUMPI RETURNDATASIZE PUSH1 0x0 DUP1 RETURNDATACOPY RETURNDATASIZE PUSH1 0x0 REVERT JUMPDEST POP POP POP POP PUSH1 0x40 MLOAD RETURNDATASIZE PUSH1 0x1F NOT PUSH1 0x1F DUP3 ADD AND DUP3 ADD DUP1 PUSH1 0x40 MSTORE POP DUP2 ADD SWAP1 PUSH2 0x164 SWAP2 SWAP1 PUSH2 0x70E JUMP JUMPDEST PUSH1 0x1 SLOAD PUSH1 0x40 MLOAD PUSH4 0x91C05B0B PUSH1 0xE0 SHL DUP2 MSTORE PUSH1 0x4 DUP2 ADD DUP4 SWAP1 MSTORE SWAP2 SWAP3 POP PUSH1 0x1 PUSH1 0x1 PUSH1 0xA0 SHL SUB AND SWAP1 PUSH4 0x91C05B0B SWAP1 PUSH1 0x24 ADD PUSH1 0x0 PUSH1 0x40 MLOAD DUP1 DUP4 SUB DUP2 PUSH1 0x0 DUP8 DUP1 EXTCODESIZE ISZERO DUP1 ISZERO PUSH2 0x1AB JUMPI PUSH1 0x0 DUP1 REVERT JUMPDEST POP GAS CALL ISZERO DUP1 ISZERO PUSH2 0x1BF JUMPI RETURNDATASIZE PUSH1 0x0 DUP1 RETURNDATACOPY RETURNDATASIZE PUSH1 0x0 REVERT JUMPDEST POP POP POP POP POP JUMPDEST POP POP POP JUMP JUMPDEST PUSH1 0x0 PUSH2 0x1D8 DUP3 DUP5 ADD DUP5 PUSH2 0x73F JUMP JUMPDEST PUSH1 0x0 SLOAD PUSH1 0x40 MLOAD PUSH4 0xDE4B9E93 PUSH1 0xE0 SHL DUP2 MSTORE PUSH1 0x1 PUSH1 0x1 PUSH1 0xA0 SHL SUB DUP1 DUP5 AND PUSH1 0x4 DUP4 ADD MSTORE SWAP3 SWAP4 POP SWAP2 AND SWAP1 PUSH4 0xDE4B9E93 SWAP1 PUSH1 0x24 ADD PUSH1 0x0 PUSH1 0x40 MLOAD DUP1 DUP4 SUB DUP2 PUSH1 0x0 DUP8 DUP1 EXTCODESIZE ISZERO DUP1 ISZERO PUSH2 0x221 JUMPI PUSH1 0x0 DUP1 REVERT JUMPDEST POP GAS CALL ISZERO DUP1 ISZERO PUSH2 0x235 JUMPI RETURNDATASIZE PUSH1 0x0 DUP1 RETURNDATACOPY RETURNDATASIZE PUSH1 0x0 REVERT JUMPDEST POP POP POP POP POP JUMPDEST POP POP JUMP JUMPDEST PUSH1 0x0 PUSH1 0x60 TIMESTAMP PUSH2 0x4B0 PUSH1 0x3 SLOAD PUSH2 0x254 SWAP2 SWAP1 PUSH2 0x779 JUMP JUMPDEST GT PUSH2 0x27B JUMPI PUSH1 0x40 DUP1 MLOAD PUSH1 0x0 PUSH1 0x20 DUP3 ADD MSTORE PUSH1 0x1 SWAP4 POP ADD PUSH1 0x40 MLOAD PUSH1 0x20 DUP2 DUP4 SUB SUB DUP2 MSTORE SWAP1 PUSH1 0x40 MSTORE SWAP1 POP JUMPDEST TIMESTAMP PUSH3 0x278D00 PUSH1 0x4 SLOAD PUSH2 0x28D SWAP2 SWAP1 PUSH2 0x779 JUMP JUMPDEST GT PUSH2 0x2B4 JUMPI PUSH1 0x40 DUP1 MLOAD PUSH1 0x1 PUSH1 0x20 DUP3 ADD DUP2 SWAP1 MSTORE SWAP4 POP ADD PUSH1 0x40 MLOAD PUSH1 0x20 DUP2 DUP4 SUB SUB DUP2 MSTORE SWAP1 PUSH1 0x40 MSTORE SWAP1 POP JUMPDEST PUSH1 0x0 DUP1 PUSH2 0x2BF PUSH2 0x480 JUMP JUMPDEST SWAP3 POP POP SWAP2 POP DUP2 ISZERO ISZERO PUSH1 0x1 ISZERO ISZERO SUB PUSH2 0x305 JUMPI PUSH1 0x40 MLOAD PUSH12 0xFFFFFFFFFFFFFFFFFFFFFFFF NOT PUSH1 0x60 DUP4 SWAP1 SHL AND PUSH1 0x20 DUP3 ADD MSTORE PUSH1 0x1 SWAP5 POP PUSH1 0x34 ADD PUSH1 0x40 MLOAD PUSH1 0x20 DUP2 DUP4 SUB SUB DUP2 MSTORE SWAP1 PUSH1 0x40 MSTORE SWAP3 POP JUMPDEST POP POP SWAP3 POP SWAP3 SWAP1 POP JUMP JUMPDEST PUSH1 0x0 DUP1 PUSH1 0x0 SWAP1 SLOAD SWAP1 PUSH2 0x100 EXP SWAP1 DIV PUSH1 0x1 PUSH1 0x1 PUSH1 0xA0 SHL SUB AND PUSH1 0x1 PUSH1 0x1 PUSH1 0xA0 SHL SUB AND PUSH4 0xD7766D79 PUSH1 0x40 MLOAD DUP2 PUSH4 0xFFFFFFFF AND PUSH1 0xE0 SHL DUP2 MSTORE PUSH1 0x4 ADD PUSH1 0x20 PUSH1 0x40 MLOAD DUP1 DUP4 SUB DUP2 DUP7 GAS STATICCALL ISZERO DUP1 ISZERO PUSH2 0x362 JUMPI RETURNDATASIZE PUSH1 0x0 DUP1 RETURNDATACOPY RETURNDATASIZE PUSH1 0x0 REVERT JUMPDEST POP POP POP POP PUSH1 0x40 MLOAD RETURNDATASIZE PUSH1 0x1F NOT PUSH1 0x1F DUP3 ADD AND DUP3 ADD DUP1 PUSH1 0x40 MSTORE POP DUP2 ADD SWAP1 PUSH2 0x386 SWAP2 SWAP1 PUSH2 0x70E JUMP JUMPDEST SWAP1 POP PUSH1 0x0 JUMPDEST DUP2 DUP2 LT ISZERO PUSH2 0x23B JUMPI PUSH1 0x0 DUP1 SLOAD PUSH1 0x40 MLOAD PUSH4 0x2EE754EB PUSH1 0xE1 SHL DUP2 MSTORE PUSH1 0x4 DUP2 ADD DUP5 SWAP1 MSTORE PUSH1 0x1 PUSH1 0x1 PUSH1 0xA0 SHL SUB SWAP1 SWAP2 AND SWAP1 PUSH4 0x5DCEA9D6 SWAP1 PUSH1 0x24 ADD PUSH1 0x20 PUSH1 0x40 MLOAD DUP1 DUP4 SUB DUP2 DUP7 GAS STATICCALL ISZERO DUP1 ISZERO PUSH2 0x3DD JUMPI RETURNDATASIZE PUSH1 0x0 DUP1 RETURNDATACOPY RETURNDATASIZE PUSH1 0x0 REVERT JUMPDEST POP POP POP POP PUSH1 0x40 MLOAD RETURNDATASIZE PUSH1 0x1F NOT PUSH1 0x1F DUP3 ADD AND DUP3 ADD DUP1 PUSH1 0x40 MSTORE POP DUP2 ADD SWAP1 PUSH2 0x401 SWAP2 SWAP1 PUSH2 0x791 JUMP JUMPDEST PUSH1 0x0 SLOAD PUSH1 0x2 SLOAD PUSH1 0x40 MLOAD PUSH4 0x1C04285 PUSH1 0xE4 SHL DUP2 MSTORE PUSH1 0x1 PUSH1 0x1 PUSH1 0xA0 SHL SUB DUP1 DUP6 AND PUSH1 0x4 DUP4 ADD MSTORE SWAP2 DUP3 AND PUSH1 0x24 DUP3 ADD MSTORE SWAP3 SWAP4 POP AND SWAP1 PUSH4 0x1C042850 SWAP1 PUSH1 0x44 ADD PUSH1 0x0 PUSH1 0x40 MLOAD DUP1 DUP4 SUB DUP2 PUSH1 0x0 DUP8 DUP1 EXTCODESIZE ISZERO DUP1 ISZERO PUSH2 0x454 JUMPI PUSH1 0x0 DUP1 REVERT JUMPDEST POP GAS CALL ISZERO DUP1 ISZERO PUSH2 0x468 JUMPI RETURNDATASIZE PUSH1 0x0 DUP1 RETURNDATACOPY RETURNDATASIZE PUSH1 0x0 REVERT JUMPDEST POP POP POP POP POP DUP1 DUP1 PUSH2 0x478 SWAP1 PUSH2 0x7AE JUMP JUMPDEST SWAP2 POP POP PUSH2 0x38B JUMP JUMPDEST PUSH1 0x0 DUP1 PUSH1 0x0 DUP1 PUSH1 0x1 PUSH1 0x0 SWAP1 SLOAD SWAP1 PUSH2 0x100 EXP SWAP1 DIV PUSH1 0x1 PUSH1 0x1 PUSH1 0xA0 SHL SUB AND PUSH1 0x1 PUSH1 0x1 PUSH1 0xA0 SHL SUB AND PUSH4 0x80275860 PUSH1 0x40 MLOAD DUP2 PUSH4 0xFFFFFFFF AND PUSH1 0xE0 SHL DUP2 MSTORE PUSH1 0x4 ADD PUSH1 0x20 PUSH1 0x40 MLOAD DUP1 DUP4 SUB DUP2 DUP7 GAS STATICCALL ISZERO DUP1 ISZERO PUSH2 0x4D9 JUMPI RETURNDATASIZE PUSH1 0x0 DUP1 RETURNDATACOPY RETURNDATASIZE PUSH1 0x0 REVERT JUMPDEST POP POP POP POP PUSH1 0x40 MLOAD RETURNDATASIZE PUSH1 0x1F NOT PUSH1 0x1F DUP3 ADD AND DUP3 ADD DUP1 PUSH1 0x40 MSTORE POP DUP2 ADD SWAP1 PUSH2 0x4FD SWAP2 SWAP1 PUSH2 0x70E JUMP JUMPDEST SWAP1 POP DUP1 ISZERO PUSH2 0x61E JUMPI PUSH1 0x0 JUMPDEST DUP2 DUP2 LT ISZERO PUSH2 0x61C JUMPI PUSH1 0x1 SLOAD PUSH1 0x40 MLOAD PUSH4 0x16848683 PUSH1 0xE1 SHL DUP2 MSTORE PUSH1 0x4 DUP2 ADD DUP4 SWAP1 MSTORE PUSH1 0x1 PUSH1 0x1 PUSH1 0xA0 SHL SUB SWAP1 SWAP2 AND SWAP1 PUSH4 0x2D090D06 SWAP1 PUSH1 0x24 ADD PUSH1 0x20 PUSH1 0x40 MLOAD DUP1 DUP4 SUB DUP2 DUP7 GAS STATICCALL ISZERO DUP1 ISZERO PUSH2 0x559 JUMPI RETURNDATASIZE PUSH1 0x0 DUP1 RETURNDATACOPY RETURNDATASIZE PUSH1 0x0 REVERT JUMPDEST POP POP POP POP PUSH1 0x40 MLOAD RETURNDATASIZE PUSH1 0x1F NOT PUSH1 0x1F DUP3 ADD AND DUP3 ADD DUP1 PUSH1 0x40 MSTORE POP DUP2 ADD SWAP1 PUSH2 0x57D SWAP2 SWAP1 PUSH2 0x70E JUMP JUMPDEST PUSH1 0x1 SLOAD PUSH1 0x40 MLOAD PUSH4 0x4F6675AF PUSH1 0xE1 SHL DUP2 MSTORE PUSH1 0x4 DUP2 ADD DUP4 SWAP1 MSTORE SWAP2 SWAP6 POP PUSH1 0x0 SWAP2 DUP3 SWAP2 PUSH1 0x1 PUSH1 0x1 PUSH1 0xA0 SHL SUB AND SWAP1 PUSH4 0x9ECCEB5E SWAP1 PUSH1 0x24 ADD PUSH1 0xC0 PUSH1 0x40 MLOAD DUP1 DUP4 SUB DUP2 DUP7 GAS STATICCALL ISZERO DUP1 ISZERO PUSH2 0x5CC JUMPI RETURNDATASIZE PUSH1 0x0 DUP1 RETURNDATACOPY RETURNDATASIZE PUSH1 0x0 REVERT JUMPDEST POP POP POP POP PUSH1 0x40 MLOAD RETURNDATASIZE PUSH1 0x1F NOT PUSH1 0x1F DUP3 ADD AND DUP3 ADD DUP1 PUSH1 0x40 MSTORE POP DUP2 ADD SWAP1 PUSH2 0x5F0 SWAP2 SWAP1 PUSH2 0x7C7 JUMP JUMPDEST SWAP6 POP POP POP SWAP4 POP POP POP TIMESTAMP DUP3 LT PUSH2 0x607 JUMPI PUSH1 0x1 SWAP7 POP DUP1 SWAP5 POP JUMPDEST POP POP DUP1 DUP1 PUSH2 0x614 SWAP1 PUSH2 0x7AE JUMP JUMPDEST SWAP2 POP POP PUSH2 0x508 JUMP JUMPDEST POP JUMPDEST POP SWAP1 SWAP2 SWAP3 JUMP JUMPDEST PUSH1 0x0 DUP1 PUSH1 0x20 DUP4 DUP6 SUB SLT ISZERO PUSH2 0x637 JUMPI PUSH1 0x0 DUP1 REVERT JUMPDEST DUP3 CALLDATALOAD PUSH8 0xFFFFFFFFFFFFFFFF DUP1 DUP3 GT ISZERO PUSH2 0x64F JUMPI PUSH1 0x0 DUP1 REVERT JUMPDEST DUP2 DUP6 ADD SWAP2 POP DUP6 PUSH1 0x1F DUP4 ADD SLT PUSH2 0x663 JUMPI PUSH1 0x0 DUP1 REVERT JUMPDEST DUP2 CALLDATALOAD DUP2 DUP2 GT ISZERO PUSH2 0x672 JUMPI PUSH1 0x0 DUP1 REVERT JUMPDEST DUP7 PUSH1 0x20 DUP3 DUP6 ADD ADD GT ISZERO PUSH2 0x684 JUMPI PUSH1 0x0 DUP1 REVERT JUMPDEST PUSH1 0x20 SWAP3 SWAP1 SWAP3 ADD SWAP7 SWAP2 SWAP6 POP SWAP1 SWAP4 POP POP POP POP JUMP JUMPDEST DUP3 ISZERO ISZERO DUP2 MSTORE PUSH1 0x0 PUSH1 0x20 PUSH1 0x40 DUP2 DUP5 ADD MSTORE DUP4 MLOAD DUP1 PUSH1 0x40 DUP6 ADD MSTORE PUSH1 0x0 JUMPDEST DUP2 DUP2 LT ISZERO PUSH2 0x6CC JUMPI DUP6 DUP2 ADD DUP4 ADD MLOAD DUP6 DUP3 ADD PUSH1 0x60 ADD MSTORE DUP3 ADD PUSH2 0x6B0 JUMP JUMPDEST DUP2 DUP2 GT ISZERO PUSH2 0x6DE JUMPI PUSH1 0x0 PUSH1 0x60 DUP4 DUP8 ADD ADD MSTORE JUMPDEST POP PUSH1 0x1F ADD PUSH1 0x1F NOT AND SWAP3 SWAP1 SWAP3 ADD PUSH1 0x60 ADD SWAP5 SWAP4 POP POP POP POP JUMP JUMPDEST PUSH1 0x0 PUSH1 0x20 DUP3 DUP5 SUB SLT ISZERO PUSH2 0x707 JUMPI PUSH1 0x0 DUP1 REVERT JUMPDEST POP CALLDATALOAD SWAP2 SWAP1 POP JUMP JUMPDEST PUSH1 0x0 PUSH1 0x20 DUP3 DUP5 SUB SLT ISZERO PUSH2 0x720 JUMPI PUSH1 0x0 DUP1 REVERT JUMPDEST POP MLOAD SWAP2 SWAP1 POP JUMP JUMPDEST PUSH1 0x1 PUSH1 0x1 PUSH1 0xA0 SHL SUB DUP2 AND DUP2 EQ PUSH2 0x73C JUMPI PUSH1 0x0 DUP1 REVERT JUMPDEST POP JUMP JUMPDEST PUSH1 0x0 PUSH1 0x20 DUP3 DUP5 SUB SLT ISZERO PUSH2 0x751 JUMPI PUSH1 0x0 DUP1 REVERT JUMPDEST DUP2 CALLDATALOAD PUSH2 0x75C DUP2 PUSH2 0x727 JUMP JUMPDEST SWAP4 SWAP3 POP POP POP JUMP JUMPDEST PUSH4 0x4E487B71 PUSH1 0xE0 SHL PUSH1 0x0 MSTORE PUSH1 0x11 PUSH1 0x4 MSTORE PUSH1 0x24 PUSH1 0x0 REVERT JUMPDEST PUSH1 0x0 DUP3 NOT DUP3 GT ISZERO PUSH2 0x78C JUMPI PUSH2 0x78C PUSH2 0x763 JUMP JUMPDEST POP ADD SWAP1 JUMP JUMPDEST PUSH1 0x0 PUSH1 0x20 DUP3 DUP5 SUB SLT ISZERO PUSH2 0x7A3 JUMPI PUSH1 0x0 DUP1 REVERT JUMPDEST DUP2 MLOAD PUSH2 0x75C DUP2 PUSH2 0x727 JUMP JUMPDEST PUSH1 0x0 PUSH1 0x1 DUP3 ADD PUSH2 0x7C0 JUMPI PUSH2 0x7C0 PUSH2 0x763 JUMP JUMPDEST POP PUSH1 0x1 ADD SWAP1 JUMP JUMPDEST PUSH1 0x0 DUP1 PUSH1 0x0 DUP1 PUSH1 0x0 DUP1 PUSH1 0xC0 DUP8 DUP10 SUB SLT ISZERO PUSH2 0x7E0 JUMPI PUSH1 0x0 DUP1 REVERT JUMPDEST DUP7 MLOAD SWAP6 POP PUSH1 0x20 DUP8 ADD MLOAD DUP1 PUSH1 0xB SIGNEXTEND DUP2 EQ PUSH2 0x7F8 JUMPI PUSH1 0x0 DUP1 REVERT JUMPDEST PUSH1 0x40 DUP9 ADD MLOAD PUSH1 0x60 DUP10 ADD MLOAD SWAP2 SWAP7 POP SWAP5 POP PUSH2 0x810 DUP2 PUSH2 0x727 JUMP JUMPDEST PUSH1 0x80 DUP9 ADD MLOAD SWAP1 SWAP4 POP DUP1 ISZERO ISZERO DUP2 EQ PUSH2 0x826 JUMPI PUSH1 0x0 DUP1 REVERT JUMPDEST PUSH1 0xA0 DUP9 ADD MLOAD SWAP1 SWAP3 POP PUSH2 0x837 DUP2 PUSH2 0x727 JUMP JUMPDEST DUP1 SWAP2 POP POP SWAP3 SWAP6 POP SWAP3 SWAP6 POP SWAP3 SWAP6 JUMP INVALID LOG2 PUSH5 0x6970667358 0x22 SLT KECCAK256 0xDC 0xE2 SSTORE 0x2A 0xAE PUSH29 0x30C1CE5FB4414923AF1E5BBEB5ED736E46A9F0248CD91D0BE79764736F PUSH13 0x634300080D0033000000000000 ",
  "sha1": "b54acd1ff2f1af2de4ba5c9a69052bc80dee5280",
  "source": "// SPDX-License-Identifier: MIT\npragma solidity ^0.8.10;\n\ninterface KeeperCompatibleInterface {\n    function checkUpkeep(bytes calldata checkData)\n        external\n        returns (bool upkeepNeeded, bytes memory performData);\n\n    function performUpkeep(bytes calldata performData) external;\n}\n\npragma solidity ^0.8.13;\n\nimport {ITrust} from \"../interfaces/ITrust.sol\";\nimport {ITrustIDA} from \"../interfaces/ITrustIDA.sol\";\n\ncontract DepositKeeper is KeeperCompatibleInterface {\n    ITrust private trustContract;\n    ITrustIDA private trustIDA;\n    address private _acceptedToken;\n    uint256 constant investmentInterval = 20 minutes;\n    uint256 constant slalryInterval = 30 days;\n    uint256 public lastInvestCheck;\n    uint256 public lastSalaryCheck;\n\n    constructor(\n        address _trustContract,\n        address _trustIda,\n        address _token\n    ) {\n        _acceptedToken = _token;\n        trustIDA = ITrustIDA(_trustIda);\n        trustContract = ITrust(_trustContract);\n        trustContract.addAdmin(address(this));\n        lastInvestCheck = block.timestamp;\n        lastSalaryCheck = block.timestamp;\n    }\n\n    function checkEndedPositions()\n        private\n        view\n        returns (\n            bool status,\n            uint256 id,\n            address buyer\n        )\n    {\n        uint256 len = trustIDA.getPositions();\n        if (len > 0) {\n            for (uint256 i = 0; i < len; i++) {\n                id = trustIDA.s_positions(i);\n                (, , uint256 endtime, , , address _buyer) = trustIDA\n                    .getPositionDetails(id);\n                if (endtime >= block.timestamp) {\n                    status = true;\n                    buyer = _buyer;\n                }\n            }\n        }\n    }\n\n    function checkUpkeep(\n        bytes calldata /*checkData*/\n    )\n        external\n        view\n        override\n        returns (bool upkeepNeeded, bytes memory performData)\n    {\n        if ((lastInvestCheck + investmentInterval) <= block.timestamp) {\n            upkeepNeeded = true;\n            performData = abi.encodePacked(uint256(0));\n        }\n        if ((lastSalaryCheck + slalryInterval) <= block.timestamp) {\n            upkeepNeeded = true;\n            performData = abi.encodePacked(uint256(1));\n        }\n        (bool status, , address buyer) = checkEndedPositions();\n        if (status == true) {\n            upkeepNeeded = true;\n            performData = abi.encodePacked(address(buyer));\n        }\n    }\n\n    function makeDeposit() private {\n        uint256 investors = trustContract.getTotalInvestors();\n        for (uint256 i = 0; i < investors; i++) {\n            address user = trustContract.s_investingAddresses(i);\n            //(, , , , , address _asset) = trustContract.viewInvestment(user);\n            trustContract.makeInvestmentDeposit(user, _acceptedToken);\n        }\n    }\n\n    function performUpkeep(bytes calldata performData) external override {\n        if (abi.decode(performData, (uint256)) < 2) {\n            uint256 value = abi.decode(performData, (uint256));\n            if (value == 0) {\n                lastInvestCheck = block.timestamp;\n                makeDeposit();\n            }\n            if (value == 1) {\n                lastSalaryCheck = block.timestamp;\n                uint256 amount = trustIDA.amountTodistribute();\n                trustIDA.distribute(amount);\n            }\n        } else {\n            address buyer = abi.decode(performData, (address));\n            trustContract.closeStream(buyer);\n        }\n    }\n}\n",
  "sourcePath": "contracts/Investmentkeeper.sol",
  "type": "contract"
}