{
  "abi": [
    {
      "inputs": [
        {
          "internalType": "address",
          "name": "_trustAddress",
          "type": "address"
        },
        {
          "internalType": "contract ISuperToken",
          "name": "_dai",
          "type": "address"
        },
        {
          "internalType": "contract IERC20",
          "name": "fdai",
          "type": "address"
        }
      ],
      "stateMutability": "nonpayable",
      "type": "constructor"
    },
    {
      "anonymous": false,
      "inputs": [
        {
          "indexed": true,
          "internalType": "address",
          "name": "from",
          "type": "address"
        },
        {
          "indexed": true,
          "internalType": "uint256",
          "name": "id",
          "type": "uint256"
        },
        {
          "indexed": false,
          "internalType": "uint256",
          "name": "price",
          "type": "uint256"
        }
      ],
      "name": "positionAdded",
      "type": "event"
    },
    {
      "inputs": [],
      "name": "DAI",
      "outputs": [
        {
          "internalType": "contract ISuperToken",
          "name": "",
          "type": "address"
        }
      ],
      "stateMutability": "view",
      "type": "function"
    },
    {
      "inputs": [
        {
          "internalType": "uint256",
          "name": "id",
          "type": "uint256"
        },
        {
          "internalType": "uint256",
          "name": "price",
          "type": "uint256"
        },
        {
          "internalType": "uint256",
          "name": "endtime",
          "type": "uint256"
        },
        {
          "internalType": "address",
          "name": "seller",
          "type": "address"
        },
        {
          "internalType": "bool",
          "name": "_active",
          "type": "bool"
        }
      ],
      "name": "addPosition",
      "outputs": [],
      "stateMutability": "nonpayable",
      "type": "function"
    },
    {
      "inputs": [
        {
          "internalType": "uint256",
          "name": "id",
          "type": "uint256"
        }
      ],
      "name": "buyStream",
      "outputs": [],
      "stateMutability": "nonpayable",
      "type": "function"
    },
    {
      "inputs": [],
      "name": "dai",
      "outputs": [
        {
          "internalType": "contract IERC20",
          "name": "",
          "type": "address"
        }
      ],
      "stateMutability": "view",
      "type": "function"
    },
    {
      "inputs": [
        {
          "internalType": "uint256",
          "name": "id",
          "type": "uint256"
        }
      ],
      "name": "getPositionDetails",
      "outputs": [
        {
          "internalType": "uint256",
          "name": "price",
          "type": "uint256"
        },
        {
          "internalType": "int96",
          "name": "flowRate",
          "type": "int96"
        },
        {
          "internalType": "uint256",
          "name": "endTime",
          "type": "uint256"
        },
        {
          "internalType": "address",
          "name": "seller",
          "type": "address"
        },
        {
          "internalType": "bool",
          "name": "status",
          "type": "bool"
        },
        {
          "internalType": "address",
          "name": "buyer",
          "type": "address"
        }
      ],
      "stateMutability": "view",
      "type": "function"
    },
    {
      "inputs": [],
      "name": "getPositions",
      "outputs": [
        {
          "internalType": "uint256",
          "name": "index",
          "type": "uint256"
        }
      ],
      "stateMutability": "view",
      "type": "function"
    },
    {
      "inputs": [
        {
          "internalType": "uint256",
          "name": "",
          "type": "uint256"
        }
      ],
      "name": "s_derivativeIdInfo",
      "outputs": [
        {
          "internalType": "uint256",
          "name": "price",
          "type": "uint256"
        },
        {
          "internalType": "int96",
          "name": "flowRate",
          "type": "int96"
        },
        {
          "internalType": "uint256",
          "name": "endtime",
          "type": "uint256"
        },
        {
          "internalType": "address",
          "name": "seller",
          "type": "address"
        },
        {
          "internalType": "bool",
          "name": "active",
          "type": "bool"
        },
        {
          "internalType": "address",
          "name": "buyer",
          "type": "address"
        }
      ],
      "stateMutability": "view",
      "type": "function"
    },
    {
      "inputs": [
        {
          "internalType": "uint256",
          "name": "",
          "type": "uint256"
        }
      ],
      "name": "s_positions",
      "outputs": [
        {
          "internalType": "uint256",
          "name": "",
          "type": "uint256"
        }
      ],
      "stateMutability": "view",
      "type": "function"
    },
    {
      "inputs": [
        {
          "internalType": "uint256",
          "name": "id",
          "type": "uint256"
        }
      ],
      "name": "stopPosition",
      "outputs": [],
      "stateMutability": "nonpayable",
      "type": "function"
    }
  ],
  "bytecode": "608060405234801561001057600080fd5b506040516109e73803806109e783398101604081905261002f9161008e565b6001600081905580546001600160a01b039485166001600160a01b0319918216179091556002805493851693821693909317909255600380549190931691161790556100db565b6001600160a01b038116811461008b57600080fd5b50565b6000806000606084860312156100a357600080fd5b83516100ae81610076565b60208501519093506100bf81610076565b60408501519092506100d081610076565b809150509250925092565b6108fd806100ea6000396000f3fe608060405234801561001057600080fd5b50600436106100935760003560e01c80638027586011610066578063802758601461017f5780639ecceb5e14610187578063c189892b146101e2578063e0bab4c4146101f5578063f4b9fa751461022057600080fd5b8063023323701461009857806326c8ff20146101365780632d090d061461014b5780637bcaa4851461016c575b600080fd5b6100f26100a63660046107b7565b600560205260009081526040902080546001820154600283015460038401546004909401549293600b9290920b9290916001600160a01b0380821692600160a01b90920460ff16911686565b60408051968752600b9590950b6020870152938501929092526001600160a01b03908116606085015290151560808401521660a082015260c0015b60405180910390f35b6101496101443660046107e1565b610233565b005b61015e6101593660046107b7565b6103e4565b60405190815260200161012d565b61014961017a3660046107b7565b610405565b60045461015e565b6100f26101953660046107b7565b600090815260056020526040902080546001820154600283015460038401546004909401549294600b9290920b9390926001600160a01b0380831693600160a01b90930460ff1692911690565b6101496101f03660046107b7565b6104a5565b600254610208906001600160a01b031681565b6040516001600160a01b03909116815260200161012d565b600354610208906001600160a01b031681565b60026000540361028a5760405162461bcd60e51b815260206004820152601f60248201527f5265656e7472616e637947756172643a207265656e7472616e742063616c6c0060448201526064015b60405180910390fd5b60026000556001546001600160a01b031633146102d75760405162461bcd60e51b815260206004820152600b60248201526a1b9bdd08185b1b1bddd95960aa1b6044820152606401610281565b6040805160c081018252858152600060208083018281528385018881526001600160a01b03888116606087018181528915156080890190815260a089018881528f895260058852978a90209851895594516001890180546bffffffffffffffffffffffff19166bffffffffffffffffffffffff90921691909117905592516002880155915160038701805494519183166001600160a81b031990951694909417600160a01b91151591909102179092559251600490940180546001600160a01b031916949091169390931790925591518681528792917f7a6e51ab9297ba33747665c706a5fccd30b58ccd05d5ce5366a9e82d680aa58e910160405180910390a350506001600055505050565b600481815481106103f457600080fd5b600091825260209091200154905081565b6000818152600560205260409020600281015442106104a15760048181015460015460405163de4b9e9360e01b81526001600160a01b0392831693810184905291169063de4b9e9390602401600060405180830381600087803b15801561046b57600080fd5b505af115801561047f573d6000803e3d6000fd5b5050506000848152600560205260409020600301805460ff60a01b1916905550505b5050565b6002600054036104f75760405162461bcd60e51b815260206004820152601f60248201527f5265656e7472616e637947756172643a207265656e7472616e742063616c6c006044820152606401610281565b600260009081558181526005602052604090206003810154600160a01b900460ff161561052357600080fd5b4281600201541161053357600080fd5b8054600354604051636eb1769f60e11b815233600482015230602482015282916001600160a01b03169063dd62ed3e90604401602060405180830381865afa158015610583573d6000803e3d6000fd5b505050506040513d601f19601f820116820180604052508101906105a79190610843565b10156105ec5760405162461bcd60e51b81526020600482015260146024820152730c2d8d8deeec2dcc6ca40dcdee840cadcdeeaced60631b6044820152606401610281565b60008381526005602052604090819020600390810154905491516323b872dd60e01b81523360048201526001600160a01b0391821660248201819052604482018590529291909116906323b872dd906064016020604051808303816000875af115801561065d573d6000803e3d6000fd5b505050506040513d601f19601f82011682018060405250810190610681919061085c565b5060004284600201546106949190610880565b84546106a091906108a5565b905060008160008781526005602052604090819020600180820180546bffffffffffffffffffffffff86166bffffffffffffffffffffffff19909116179055600480830180546001600160a01b031916339081179091556003909301805460ff60a01b1916600160a01b1790559054925163343a2ff360e21b815290810191909152600b83900b60248201529192506001600160a01b03169063d0e8bfcc90604401600060405180830381600087803b15801561075c57600080fd5b505af1158015610770573d6000803e3d6000fd5b5050600480546001818101835560009283527f8a35acfbc15ff81a39ae7d344fd709f28e8600b4aa8c65c6b64bfe7fe36bd19b909101999099559790975550505050505050565b6000602082840312156107c957600080fd5b5035919050565b80151581146107de57600080fd5b50565b600080600080600060a086880312156107f957600080fd5b85359450602086013593506040860135925060608601356001600160a01b038116811461082557600080fd5b91506080860135610835816107d0565b809150509295509295909350565b60006020828403121561085557600080fd5b5051919050565b60006020828403121561086e57600080fd5b8151610879816107d0565b9392505050565b6000828210156108a057634e487b7160e01b600052601160045260246000fd5b500390565b6000826108c257634e487b7160e01b600052601260045260246000fd5b50049056fea2646970667358221220e3ea5988fa9594733bdf5a83106af2f0a736ea608da623be3837035e4b06905464736f6c634300080d0033",
  "bytecodeSha1": "e439eb033a93a8e6cc1d4b41b0fd61504bf70005",
  "compiler": {
    "evm_version": "istanbul",
    "optimizer": {
      "enabled": true,
      "runs": 200
    },
    "version": "0.8.13+commit.abaa5c0e"
  },
  "contractName": "StreamMarket",
  "language": "Solidity",
  "natspec": {
    "kind": "dev",
    "methods": {},
    "version": 1
  },
  "opcodes": "PUSH1 0x80 PUSH1 0x40 MSTORE CALLVALUE DUP1 ISZERO PUSH2 0x10 JUMPI PUSH1 0x0 DUP1 REVERT JUMPDEST POP PUSH1 0x4 CALLDATASIZE LT PUSH2 0x93 JUMPI PUSH1 0x0 CALLDATALOAD PUSH1 0xE0 SHR DUP1 PUSH4 0x80275860 GT PUSH2 0x66 JUMPI DUP1 PUSH4 0x80275860 EQ PUSH2 0x17F JUMPI DUP1 PUSH4 0x9ECCEB5E EQ PUSH2 0x187 JUMPI DUP1 PUSH4 0xC189892B EQ PUSH2 0x1E2 JUMPI DUP1 PUSH4 0xE0BAB4C4 EQ PUSH2 0x1F5 JUMPI DUP1 PUSH4 0xF4B9FA75 EQ PUSH2 0x220 JUMPI PUSH1 0x0 DUP1 REVERT JUMPDEST DUP1 PUSH4 0x2332370 EQ PUSH2 0x98 JUMPI DUP1 PUSH4 0x26C8FF20 EQ PUSH2 0x136 JUMPI DUP1 PUSH4 0x2D090D06 EQ PUSH2 0x14B JUMPI DUP1 PUSH4 0x7BCAA485 EQ PUSH2 0x16C JUMPI JUMPDEST PUSH1 0x0 DUP1 REVERT JUMPDEST PUSH2 0xF2 PUSH2 0xA6 CALLDATASIZE PUSH1 0x4 PUSH2 0x7B7 JUMP JUMPDEST PUSH1 0x5 PUSH1 0x20 MSTORE PUSH1 0x0 SWAP1 DUP2 MSTORE PUSH1 0x40 SWAP1 KECCAK256 DUP1 SLOAD PUSH1 0x1 DUP3 ADD SLOAD PUSH1 0x2 DUP4 ADD SLOAD PUSH1 0x3 DUP5 ADD SLOAD PUSH1 0x4 SWAP1 SWAP5 ADD SLOAD SWAP3 SWAP4 PUSH1 0xB SWAP3 SWAP1 SWAP3 SIGNEXTEND SWAP3 SWAP1 SWAP2 PUSH1 0x1 PUSH1 0x1 PUSH1 0xA0 SHL SUB DUP1 DUP3 AND SWAP3 PUSH1 0x1 PUSH1 0xA0 SHL SWAP1 SWAP3 DIV PUSH1 0xFF AND SWAP2 AND DUP7 JUMP JUMPDEST PUSH1 0x40 DUP1 MLOAD SWAP7 DUP8 MSTORE PUSH1 0xB SWAP6 SWAP1 SWAP6 SIGNEXTEND PUSH1 0x20 DUP8 ADD MSTORE SWAP4 DUP6 ADD SWAP3 SWAP1 SWAP3 MSTORE PUSH1 0x1 PUSH1 0x1 PUSH1 0xA0 SHL SUB SWAP1 DUP2 AND PUSH1 0x60 DUP6 ADD MSTORE SWAP1 ISZERO ISZERO PUSH1 0x80 DUP5 ADD MSTORE AND PUSH1 0xA0 DUP3 ADD MSTORE PUSH1 0xC0 ADD JUMPDEST PUSH1 0x40 MLOAD DUP1 SWAP2 SUB SWAP1 RETURN JUMPDEST PUSH2 0x149 PUSH2 0x144 CALLDATASIZE PUSH1 0x4 PUSH2 0x7E1 JUMP JUMPDEST PUSH2 0x233 JUMP JUMPDEST STOP JUMPDEST PUSH2 0x15E PUSH2 0x159 CALLDATASIZE PUSH1 0x4 PUSH2 0x7B7 JUMP JUMPDEST PUSH2 0x3E4 JUMP JUMPDEST PUSH1 0x40 MLOAD SWAP1 DUP2 MSTORE PUSH1 0x20 ADD PUSH2 0x12D JUMP JUMPDEST PUSH2 0x149 PUSH2 0x17A CALLDATASIZE PUSH1 0x4 PUSH2 0x7B7 JUMP JUMPDEST PUSH2 0x405 JUMP JUMPDEST PUSH1 0x4 SLOAD PUSH2 0x15E JUMP JUMPDEST PUSH2 0xF2 PUSH2 0x195 CALLDATASIZE PUSH1 0x4 PUSH2 0x7B7 JUMP JUMPDEST PUSH1 0x0 SWAP1 DUP2 MSTORE PUSH1 0x5 PUSH1 0x20 MSTORE PUSH1 0x40 SWAP1 KECCAK256 DUP1 SLOAD PUSH1 0x1 DUP3 ADD SLOAD PUSH1 0x2 DUP4 ADD SLOAD PUSH1 0x3 DUP5 ADD SLOAD PUSH1 0x4 SWAP1 SWAP5 ADD SLOAD SWAP3 SWAP5 PUSH1 0xB SWAP3 SWAP1 SWAP3 SIGNEXTEND SWAP4 SWAP1 SWAP3 PUSH1 0x1 PUSH1 0x1 PUSH1 0xA0 SHL SUB DUP1 DUP4 AND SWAP4 PUSH1 0x1 PUSH1 0xA0 SHL SWAP1 SWAP4 DIV PUSH1 0xFF AND SWAP3 SWAP2 AND SWAP1 JUMP JUMPDEST PUSH2 0x149 PUSH2 0x1F0 CALLDATASIZE PUSH1 0x4 PUSH2 0x7B7 JUMP JUMPDEST PUSH2 0x4A5 JUMP JUMPDEST PUSH1 0x2 SLOAD PUSH2 0x208 SWAP1 PUSH1 0x1 PUSH1 0x1 PUSH1 0xA0 SHL SUB AND DUP2 JUMP JUMPDEST PUSH1 0x40 MLOAD PUSH1 0x1 PUSH1 0x1 PUSH1 0xA0 SHL SUB SWAP1 SWAP2 AND DUP2 MSTORE PUSH1 0x20 ADD PUSH2 0x12D JUMP JUMPDEST PUSH1 0x3 SLOAD PUSH2 0x208 SWAP1 PUSH1 0x1 PUSH1 0x1 PUSH1 0xA0 SHL SUB AND DUP2 JUMP JUMPDEST PUSH1 0x2 PUSH1 0x0 SLOAD SUB PUSH2 0x28A JUMPI PUSH1 0x40 MLOAD PUSH3 0x461BCD PUSH1 0xE5 SHL DUP2 MSTORE PUSH1 0x20 PUSH1 0x4 DUP3 ADD MSTORE PUSH1 0x1F PUSH1 0x24 DUP3 ADD MSTORE PUSH32 0x5265656E7472616E637947756172643A207265656E7472616E742063616C6C00 PUSH1 0x44 DUP3 ADD MSTORE PUSH1 0x64 ADD JUMPDEST PUSH1 0x40 MLOAD DUP1 SWAP2 SUB SWAP1 REVERT JUMPDEST PUSH1 0x2 PUSH1 0x0 SSTORE PUSH1 0x1 SLOAD PUSH1 0x1 PUSH1 0x1 PUSH1 0xA0 SHL SUB AND CALLER EQ PUSH2 0x2D7 JUMPI PUSH1 0x40 MLOAD PUSH3 0x461BCD PUSH1 0xE5 SHL DUP2 MSTORE PUSH1 0x20 PUSH1 0x4 DUP3 ADD MSTORE PUSH1 0xB PUSH1 0x24 DUP3 ADD MSTORE PUSH11 0x1B9BDD08185B1B1BDDD959 PUSH1 0xAA SHL PUSH1 0x44 DUP3 ADD MSTORE PUSH1 0x64 ADD PUSH2 0x281 JUMP JUMPDEST PUSH1 0x40 DUP1 MLOAD PUSH1 0xC0 DUP2 ADD DUP3 MSTORE DUP6 DUP2 MSTORE PUSH1 0x0 PUSH1 0x20 DUP1 DUP4 ADD DUP3 DUP2 MSTORE DUP4 DUP6 ADD DUP9 DUP2 MSTORE PUSH1 0x1 PUSH1 0x1 PUSH1 0xA0 SHL SUB DUP9 DUP2 AND PUSH1 0x60 DUP8 ADD DUP2 DUP2 MSTORE DUP10 ISZERO ISZERO PUSH1 0x80 DUP10 ADD SWAP1 DUP2 MSTORE PUSH1 0xA0 DUP10 ADD DUP9 DUP2 MSTORE DUP16 DUP10 MSTORE PUSH1 0x5 DUP9 MSTORE SWAP8 DUP11 SWAP1 KECCAK256 SWAP9 MLOAD DUP10 SSTORE SWAP5 MLOAD PUSH1 0x1 DUP10 ADD DUP1 SLOAD PUSH12 0xFFFFFFFFFFFFFFFFFFFFFFFF NOT AND PUSH12 0xFFFFFFFFFFFFFFFFFFFFFFFF SWAP1 SWAP3 AND SWAP2 SWAP1 SWAP2 OR SWAP1 SSTORE SWAP3 MLOAD PUSH1 0x2 DUP9 ADD SSTORE SWAP2 MLOAD PUSH1 0x3 DUP8 ADD DUP1 SLOAD SWAP5 MLOAD SWAP2 DUP4 AND PUSH1 0x1 PUSH1 0x1 PUSH1 0xA8 SHL SUB NOT SWAP1 SWAP6 AND SWAP5 SWAP1 SWAP5 OR PUSH1 0x1 PUSH1 0xA0 SHL SWAP2 ISZERO ISZERO SWAP2 SWAP1 SWAP2 MUL OR SWAP1 SWAP3 SSTORE SWAP3 MLOAD PUSH1 0x4 SWAP1 SWAP5 ADD DUP1 SLOAD PUSH1 0x1 PUSH1 0x1 PUSH1 0xA0 SHL SUB NOT AND SWAP5 SWAP1 SWAP2 AND SWAP4 SWAP1 SWAP4 OR SWAP1 SWAP3 SSTORE SWAP2 MLOAD DUP7 DUP2 MSTORE DUP8 SWAP3 SWAP2 PUSH32 0x7A6E51AB9297BA33747665C706A5FCCD30B58CCD05D5CE5366A9E82D680AA58E SWAP2 ADD PUSH1 0x40 MLOAD DUP1 SWAP2 SUB SWAP1 LOG3 POP POP PUSH1 0x1 PUSH1 0x0 SSTORE POP POP POP JUMP JUMPDEST PUSH1 0x4 DUP2 DUP2 SLOAD DUP2 LT PUSH2 0x3F4 JUMPI PUSH1 0x0 DUP1 REVERT JUMPDEST PUSH1 0x0 SWAP2 DUP3 MSTORE PUSH1 0x20 SWAP1 SWAP2 KECCAK256 ADD SLOAD SWAP1 POP DUP2 JUMP JUMPDEST PUSH1 0x0 DUP2 DUP2 MSTORE PUSH1 0x5 PUSH1 0x20 MSTORE PUSH1 0x40 SWAP1 KECCAK256 PUSH1 0x2 DUP2 ADD SLOAD TIMESTAMP LT PUSH2 0x4A1 JUMPI PUSH1 0x4 DUP2 DUP2 ADD SLOAD PUSH1 0x1 SLOAD PUSH1 0x40 MLOAD PUSH4 0xDE4B9E93 PUSH1 0xE0 SHL DUP2 MSTORE PUSH1 0x1 PUSH1 0x1 PUSH1 0xA0 SHL SUB SWAP3 DUP4 AND SWAP4 DUP2 ADD DUP5 SWAP1 MSTORE SWAP2 AND SWAP1 PUSH4 0xDE4B9E93 SWAP1 PUSH1 0x24 ADD PUSH1 0x0 PUSH1 0x40 MLOAD DUP1 DUP4 SUB DUP2 PUSH1 0x0 DUP8 DUP1 EXTCODESIZE ISZERO DUP1 ISZERO PUSH2 0x46B JUMPI PUSH1 0x0 DUP1 REVERT JUMPDEST POP GAS CALL ISZERO DUP1 ISZERO PUSH2 0x47F JUMPI RETURNDATASIZE PUSH1 0x0 DUP1 RETURNDATACOPY RETURNDATASIZE PUSH1 0x0 REVERT JUMPDEST POP POP POP PUSH1 0x0 DUP5 DUP2 MSTORE PUSH1 0x5 PUSH1 0x20 MSTORE PUSH1 0x40 SWAP1 KECCAK256 PUSH1 0x3 ADD DUP1 SLOAD PUSH1 0xFF PUSH1 0xA0 SHL NOT AND SWAP1 SSTORE POP POP JUMPDEST POP POP JUMP JUMPDEST PUSH1 0x2 PUSH1 0x0 SLOAD SUB PUSH2 0x4F7 JUMPI PUSH1 0x40 MLOAD PUSH3 0x461BCD PUSH1 0xE5 SHL DUP2 MSTORE PUSH1 0x20 PUSH1 0x4 DUP3 ADD MSTORE PUSH1 0x1F PUSH1 0x24 DUP3 ADD MSTORE PUSH32 0x5265656E7472616E637947756172643A207265656E7472616E742063616C6C00 PUSH1 0x44 DUP3 ADD MSTORE PUSH1 0x64 ADD PUSH2 0x281 JUMP JUMPDEST PUSH1 0x2 PUSH1 0x0 SWAP1 DUP2 SSTORE DUP2 DUP2 MSTORE PUSH1 0x5 PUSH1 0x20 MSTORE PUSH1 0x40 SWAP1 KECCAK256 PUSH1 0x3 DUP2 ADD SLOAD PUSH1 0x1 PUSH1 0xA0 SHL SWAP1 DIV PUSH1 0xFF AND ISZERO PUSH2 0x523 JUMPI PUSH1 0x0 DUP1 REVERT JUMPDEST TIMESTAMP DUP2 PUSH1 0x2 ADD SLOAD GT PUSH2 0x533 JUMPI PUSH1 0x0 DUP1 REVERT JUMPDEST DUP1 SLOAD PUSH1 0x3 SLOAD PUSH1 0x40 MLOAD PUSH4 0x6EB1769F PUSH1 0xE1 SHL DUP2 MSTORE CALLER PUSH1 0x4 DUP3 ADD MSTORE ADDRESS PUSH1 0x24 DUP3 ADD MSTORE DUP3 SWAP2 PUSH1 0x1 PUSH1 0x1 PUSH1 0xA0 SHL SUB AND SWAP1 PUSH4 0xDD62ED3E SWAP1 PUSH1 0x44 ADD PUSH1 0x20 PUSH1 0x40 MLOAD DUP1 DUP4 SUB DUP2 DUP7 GAS STATICCALL ISZERO DUP1 ISZERO PUSH2 0x583 JUMPI RETURNDATASIZE PUSH1 0x0 DUP1 RETURNDATACOPY RETURNDATASIZE PUSH1 0x0 REVERT JUMPDEST POP POP POP POP PUSH1 0x40 MLOAD RETURNDATASIZE PUSH1 0x1F NOT PUSH1 0x1F DUP3 ADD AND DUP3 ADD DUP1 PUSH1 0x40 MSTORE POP DUP2 ADD SWAP1 PUSH2 0x5A7 SWAP2 SWAP1 PUSH2 0x843 JUMP JUMPDEST LT ISZERO PUSH2 0x5EC JUMPI PUSH1 0x40 MLOAD PUSH3 0x461BCD PUSH1 0xE5 SHL DUP2 MSTORE PUSH1 0x20 PUSH1 0x4 DUP3 ADD MSTORE PUSH1 0x14 PUSH1 0x24 DUP3 ADD MSTORE PUSH20 0xC2D8D8DEEEC2DCC6CA40DCDEE840CADCDEEACED PUSH1 0x63 SHL PUSH1 0x44 DUP3 ADD MSTORE PUSH1 0x64 ADD PUSH2 0x281 JUMP JUMPDEST PUSH1 0x0 DUP4 DUP2 MSTORE PUSH1 0x5 PUSH1 0x20 MSTORE PUSH1 0x40 SWAP1 DUP2 SWAP1 KECCAK256 PUSH1 0x3 SWAP1 DUP2 ADD SLOAD SWAP1 SLOAD SWAP2 MLOAD PUSH4 0x23B872DD PUSH1 0xE0 SHL DUP2 MSTORE CALLER PUSH1 0x4 DUP3 ADD MSTORE PUSH1 0x1 PUSH1 0x1 PUSH1 0xA0 SHL SUB SWAP2 DUP3 AND PUSH1 0x24 DUP3 ADD DUP2 SWAP1 MSTORE PUSH1 0x44 DUP3 ADD DUP6 SWAP1 MSTORE SWAP3 SWAP2 SWAP1 SWAP2 AND SWAP1 PUSH4 0x23B872DD SWAP1 PUSH1 0x64 ADD PUSH1 0x20 PUSH1 0x40 MLOAD DUP1 DUP4 SUB DUP2 PUSH1 0x0 DUP8 GAS CALL ISZERO DUP1 ISZERO PUSH2 0x65D JUMPI RETURNDATASIZE PUSH1 0x0 DUP1 RETURNDATACOPY RETURNDATASIZE PUSH1 0x0 REVERT JUMPDEST POP POP POP POP PUSH1 0x40 MLOAD RETURNDATASIZE PUSH1 0x1F NOT PUSH1 0x1F DUP3 ADD AND DUP3 ADD DUP1 PUSH1 0x40 MSTORE POP DUP2 ADD SWAP1 PUSH2 0x681 SWAP2 SWAP1 PUSH2 0x85C JUMP JUMPDEST POP PUSH1 0x0 TIMESTAMP DUP5 PUSH1 0x2 ADD SLOAD PUSH2 0x694 SWAP2 SWAP1 PUSH2 0x880 JUMP JUMPDEST DUP5 SLOAD PUSH2 0x6A0 SWAP2 SWAP1 PUSH2 0x8A5 JUMP JUMPDEST SWAP1 POP PUSH1 0x0 DUP2 PUSH1 0x0 DUP8 DUP2 MSTORE PUSH1 0x5 PUSH1 0x20 MSTORE PUSH1 0x40 SWAP1 DUP2 SWAP1 KECCAK256 PUSH1 0x1 DUP1 DUP3 ADD DUP1 SLOAD PUSH12 0xFFFFFFFFFFFFFFFFFFFFFFFF DUP7 AND PUSH12 0xFFFFFFFFFFFFFFFFFFFFFFFF NOT SWAP1 SWAP2 AND OR SWAP1 SSTORE PUSH1 0x4 DUP1 DUP4 ADD DUP1 SLOAD PUSH1 0x1 PUSH1 0x1 PUSH1 0xA0 SHL SUB NOT AND CALLER SWAP1 DUP2 OR SWAP1 SWAP2 SSTORE PUSH1 0x3 SWAP1 SWAP4 ADD DUP1 SLOAD PUSH1 0xFF PUSH1 0xA0 SHL NOT AND PUSH1 0x1 PUSH1 0xA0 SHL OR SWAP1 SSTORE SWAP1 SLOAD SWAP3 MLOAD PUSH4 0x343A2FF3 PUSH1 0xE2 SHL DUP2 MSTORE SWAP1 DUP2 ADD SWAP2 SWAP1 SWAP2 MSTORE PUSH1 0xB DUP4 SWAP1 SIGNEXTEND PUSH1 0x24 DUP3 ADD MSTORE SWAP2 SWAP3 POP PUSH1 0x1 PUSH1 0x1 PUSH1 0xA0 SHL SUB AND SWAP1 PUSH4 0xD0E8BFCC SWAP1 PUSH1 0x44 ADD PUSH1 0x0 PUSH1 0x40 MLOAD DUP1 DUP4 SUB DUP2 PUSH1 0x0 DUP8 DUP1 EXTCODESIZE ISZERO DUP1 ISZERO PUSH2 0x75C JUMPI PUSH1 0x0 DUP1 REVERT JUMPDEST POP GAS CALL ISZERO DUP1 ISZERO PUSH2 0x770 JUMPI RETURNDATASIZE PUSH1 0x0 DUP1 RETURNDATACOPY RETURNDATASIZE PUSH1 0x0 REVERT JUMPDEST POP POP PUSH1 0x4 DUP1 SLOAD PUSH1 0x1 DUP2 DUP2 ADD DUP4 SSTORE PUSH1 0x0 SWAP3 DUP4 MSTORE PUSH32 0x8A35ACFBC15FF81A39AE7D344FD709F28E8600B4AA8C65C6B64BFE7FE36BD19B SWAP1 SWAP2 ADD SWAP10 SWAP1 SWAP10 SSTORE SWAP8 SWAP1 SWAP8 SSTORE POP POP POP POP POP POP POP JUMP JUMPDEST PUSH1 0x0 PUSH1 0x20 DUP3 DUP5 SUB SLT ISZERO PUSH2 0x7C9 JUMPI PUSH1 0x0 DUP1 REVERT JUMPDEST POP CALLDATALOAD SWAP2 SWAP1 POP JUMP JUMPDEST DUP1 ISZERO ISZERO DUP2 EQ PUSH2 0x7DE JUMPI PUSH1 0x0 DUP1 REVERT JUMPDEST POP JUMP JUMPDEST PUSH1 0x0 DUP1 PUSH1 0x0 DUP1 PUSH1 0x0 PUSH1 0xA0 DUP7 DUP9 SUB SLT ISZERO PUSH2 0x7F9 JUMPI PUSH1 0x0 DUP1 REVERT JUMPDEST DUP6 CALLDATALOAD SWAP5 POP PUSH1 0x20 DUP7 ADD CALLDATALOAD SWAP4 POP PUSH1 0x40 DUP7 ADD CALLDATALOAD SWAP3 POP PUSH1 0x60 DUP7 ADD CALLDATALOAD PUSH1 0x1 PUSH1 0x1 PUSH1 0xA0 SHL SUB DUP2 AND DUP2 EQ PUSH2 0x825 JUMPI PUSH1 0x0 DUP1 REVERT JUMPDEST SWAP2 POP PUSH1 0x80 DUP7 ADD CALLDATALOAD PUSH2 0x835 DUP2 PUSH2 0x7D0 JUMP JUMPDEST DUP1 SWAP2 POP POP SWAP3 SWAP6 POP SWAP3 SWAP6 SWAP1 SWAP4 POP JUMP JUMPDEST PUSH1 0x0 PUSH1 0x20 DUP3 DUP5 SUB SLT ISZERO PUSH2 0x855 JUMPI PUSH1 0x0 DUP1 REVERT JUMPDEST POP MLOAD SWAP2 SWAP1 POP JUMP JUMPDEST PUSH1 0x0 PUSH1 0x20 DUP3 DUP5 SUB SLT ISZERO PUSH2 0x86E JUMPI PUSH1 0x0 DUP1 REVERT JUMPDEST DUP2 MLOAD PUSH2 0x879 DUP2 PUSH2 0x7D0 JUMP JUMPDEST SWAP4 SWAP3 POP POP POP JUMP JUMPDEST PUSH1 0x0 DUP3 DUP3 LT ISZERO PUSH2 0x8A0 JUMPI PUSH4 0x4E487B71 PUSH1 0xE0 SHL PUSH1 0x0 MSTORE PUSH1 0x11 PUSH1 0x4 MSTORE PUSH1 0x24 PUSH1 0x0 REVERT JUMPDEST POP SUB SWAP1 JUMP JUMPDEST PUSH1 0x0 DUP3 PUSH2 0x8C2 JUMPI PUSH4 0x4E487B71 PUSH1 0xE0 SHL PUSH1 0x0 MSTORE PUSH1 0x12 PUSH1 0x4 MSTORE PUSH1 0x24 PUSH1 0x0 REVERT JUMPDEST POP DIV SWAP1 JUMP INVALID LOG2 PUSH5 0x6970667358 0x22 SLT KECCAK256 0xE3 0xEA MSIZE DUP9 STATICCALL SWAP6 SWAP5 PUSH20 0x3BDF5A83106AF2F0A736EA608DA623BE3837035E 0x4B MOD SWAP1 SLOAD PUSH5 0x736F6C6343 STOP ADDMOD 0xD STOP CALLER ",
  "sha1": "d80ff8b5265f48faae4f54b006305d36274a136e",
  "source": "// SPDX-License-Identifier: MIT\n\npragma solidity ^0.8.7;\n\nimport \"@openzeppelin/contracts/token/ERC1155/ERC1155.sol\";\nimport \"@openzeppelin/contracts/token/ERC1155/IERC1155Receiver.sol\";\n\nimport \"@openzeppelin/contracts/token/ERC20/IERC20.sol\";\n\nimport {ITrust} from \"../interfaces/ITrust.sol\";\nimport {ISuperToken} from \"@superfluid/interfaces/superfluid/ISuperToken.sol\";\nimport \"@openzeppelin/contracts/security/ReentrancyGuard.sol\";\n\ncontract StreamMarket is ReentrancyGuard {\n    ITrust private trustContract;\n    ISuperToken public DAI;\n    IERC20 public dai;\n\n    struct Derivative {\n        uint256 price;\n        int96 flowRate;\n        uint256 endtime;\n        address seller;\n        bool active;\n        address buyer;\n    }\n\n    uint256[] public s_positions;\n\n    mapping(uint256 => Derivative) public s_derivativeIdInfo;\n\n    event positionAdded(\n        address indexed from,\n        uint256 indexed id,\n        uint256 price\n    );\n\n    modifier onlyTrust() {\n        require(msg.sender == address(trustContract), \"not allowed\");\n        _;\n    }\n\n    constructor(\n        address _trustAddress,\n        ISuperToken _dai,\n        IERC20 fdai\n    ) {\n        trustContract = ITrust(_trustAddress);\n        DAI = _dai;\n        dai = fdai;\n    }\n\n    function getPositionDetails(uint256 id)\n        public\n        view\n        returns (\n            uint256 price,\n            int96 flowRate,\n            uint256 endTime,\n            address seller,\n            bool status,\n            address buyer\n        )\n    {\n        Derivative storage der = s_derivativeIdInfo[id];\n        price = der.price;\n        flowRate = der.flowRate;\n        endTime = der.endtime;\n        seller = der.seller;\n        status = der.active;\n        buyer = der.buyer;\n    }\n\n    function addPosition(\n        uint256 id,\n        uint256 price,\n        uint256 endtime,\n        address seller,\n        bool _active\n    ) external nonReentrant onlyTrust {\n        s_derivativeIdInfo[id] = Derivative(\n            price,\n            0,\n            endtime,\n            seller,\n            _active,\n            address(0)\n        );\n        emit positionAdded(seller, id, price);\n    }\n\n    function toIint(uint256 number) private pure returns (int96) {\n        int256 number1 = int256(number);\n        return (int96(number1));\n    }\n\n    function buyStream(uint256 id) public nonReentrant {\n        Derivative storage pos = s_derivativeIdInfo[id];\n        require(pos.active == false);\n        require(pos.endtime > block.timestamp);\n        uint256 price = pos.price;\n        require(\n            dai.allowance(msg.sender, address(this)) >= price,\n            \"allowance not enough\"\n        );\n        address seller = s_derivativeIdInfo[id].seller;\n        dai.transferFrom(msg.sender, seller, price);\n        //calculate flowrate based on time and amount\n        uint256 number = (pos.price / (pos.endtime - block.timestamp));\n        int96 flowrate = toIint(number);\n        s_derivativeIdInfo[id].flowRate = flowrate;\n        s_derivativeIdInfo[id].buyer = msg.sender;\n        s_derivativeIdInfo[id].active = true;\n        trustContract.openStream(msg.sender, flowrate);\n        s_positions.push(id);\n    }\n\n    function stopPosition(uint256 id) external {\n        Derivative storage toRemove = s_derivativeIdInfo[id];\n        if (toRemove.endtime <= block.timestamp) {\n            address buyer = toRemove.buyer;\n            trustContract.closeStream(buyer);\n            s_derivativeIdInfo[id].active = false;\n        }\n    }\n\n    function getPositions() external view returns (uint256 index) {\n        index = s_positions.length;\n    }\n}\n",
  "sourcePath": "contracts/StreamMarket.sol",
  "type": "contract"
}