{
  "abi": [
    {
      "inputs": [
        {
          "internalType": "address",
          "name": "host",
          "type": "address"
        },
        {
          "internalType": "address",
          "name": "cfa",
          "type": "address"
        }
      ],
      "stateMutability": "nonpayable",
      "type": "constructor"
    },
    {
      "anonymous": false,
      "inputs": [
        {
          "indexed": true,
          "internalType": "address",
          "name": "previousOwner",
          "type": "address"
        },
        {
          "indexed": true,
          "internalType": "address",
          "name": "newOwner",
          "type": "address"
        }
      ],
      "name": "OwnershipTransferred",
      "type": "event"
    },
    {
      "inputs": [
        {
          "internalType": "address",
          "name": "_employeeAddress",
          "type": "address"
        },
        {
          "internalType": "uint256",
          "name": "_salary",
          "type": "uint256"
        },
        {
          "internalType": "uint256",
          "name": "_paymentInterval",
          "type": "uint256"
        }
      ],
      "name": "_addemployee",
      "outputs": [],
      "stateMutability": "nonpayable",
      "type": "function"
    },
    {
      "inputs": [
        {
          "internalType": "uint8",
          "name": "_payType",
          "type": "uint8"
        },
        {
          "internalType": "address",
          "name": "_companyAddress",
          "type": "address"
        },
        {
          "internalType": "uint8",
          "name": "_origin",
          "type": "uint8"
        }
      ],
      "name": "_createCompany",
      "outputs": [],
      "stateMutability": "nonpayable",
      "type": "function"
    },
    {
      "inputs": [
        {
          "internalType": "address",
          "name": "_keeper",
          "type": "address"
        }
      ],
      "name": "addAdmin",
      "outputs": [],
      "stateMutability": "nonpayable",
      "type": "function"
    },
    {
      "inputs": [
        {
          "internalType": "address",
          "name": "_idaCon",
          "type": "address"
        }
      ],
      "name": "addIdaContract",
      "outputs": [],
      "stateMutability": "nonpayable",
      "type": "function"
    },
    {
      "inputs": [
        {
          "internalType": "address",
          "name": "_to",
          "type": "address"
        }
      ],
      "name": "closeStream",
      "outputs": [],
      "stateMutability": "nonpayable",
      "type": "function"
    },
    {
      "inputs": [
        {
          "internalType": "uint128",
          "name": "_percentage",
          "type": "uint128"
        },
        {
          "internalType": "uint256",
          "name": "_frequency",
          "type": "uint256"
        },
        {
          "internalType": "string",
          "name": "_asset",
          "type": "string"
        }
      ],
      "name": "createIvestmentPosition",
      "outputs": [],
      "stateMutability": "nonpayable",
      "type": "function"
    },
    {
      "inputs": [
        {
          "internalType": "address",
          "name": "_employee",
          "type": "address"
        }
      ],
      "name": "getEmployeeFlowRate",
      "outputs": [
        {
          "internalType": "int96",
          "name": "",
          "type": "int96"
        }
      ],
      "stateMutability": "view",
      "type": "function"
    },
    {
      "inputs": [
        {
          "internalType": "address",
          "name": "_employee",
          "type": "address"
        }
      ],
      "name": "getEmployeeIndex",
      "outputs": [
        {
          "internalType": "uint256",
          "name": "index",
          "type": "uint256"
        }
      ],
      "stateMutability": "view",
      "type": "function"
    },
    {
      "inputs": [],
      "name": "getPeriodicEmployee",
      "outputs": [
        {
          "internalType": "uint256",
          "name": "len",
          "type": "uint256"
        }
      ],
      "stateMutability": "view",
      "type": "function"
    },
    {
      "inputs": [
        {
          "internalType": "address",
          "name": "_company",
          "type": "address"
        }
      ],
      "name": "getTotalCompanyEmployees",
      "outputs": [
        {
          "internalType": "uint256",
          "name": "",
          "type": "uint256"
        }
      ],
      "stateMutability": "view",
      "type": "function"
    },
    {
      "inputs": [],
      "name": "getTotalInvestors",
      "outputs": [
        {
          "internalType": "uint256",
          "name": "number",
          "type": "uint256"
        }
      ],
      "stateMutability": "view",
      "type": "function"
    },
    {
      "inputs": [
        {
          "internalType": "address",
          "name": "_company",
          "type": "address"
        }
      ],
      "name": "getTotalPaying",
      "outputs": [
        {
          "internalType": "uint256",
          "name": "",
          "type": "uint256"
        }
      ],
      "stateMutability": "view",
      "type": "function"
    },
    {
      "inputs": [],
      "name": "loans",
      "outputs": [
        {
          "internalType": "uint256",
          "name": "",
          "type": "uint256"
        }
      ],
      "stateMutability": "view",
      "type": "function"
    },
    {
      "inputs": [
        {
          "internalType": "address",
          "name": "recepient",
          "type": "address"
        },
        {
          "internalType": "address",
          "name": "token",
          "type": "address"
        }
      ],
      "name": "makeInvestmentDeposit",
      "outputs": [],
      "stateMutability": "nonpayable",
      "type": "function"
    },
    {
      "inputs": [
        {
          "internalType": "address",
          "name": "_to",
          "type": "address"
        },
        {
          "internalType": "int96",
          "name": "_flowRate",
          "type": "int96"
        }
      ],
      "name": "openStream",
      "outputs": [],
      "stateMutability": "nonpayable",
      "type": "function"
    },
    {
      "inputs": [],
      "name": "owner",
      "outputs": [
        {
          "internalType": "address",
          "name": "",
          "type": "address"
        }
      ],
      "stateMutability": "view",
      "type": "function"
    },
    {
      "inputs": [
        {
          "internalType": "uint256",
          "name": "",
          "type": "uint256"
        }
      ],
      "name": "periodicEmployees",
      "outputs": [
        {
          "internalType": "address",
          "name": "",
          "type": "address"
        }
      ],
      "stateMutability": "view",
      "type": "function"
    },
    {
      "inputs": [
        {
          "internalType": "address",
          "name": "to",
          "type": "address"
        },
        {
          "internalType": "int96",
          "name": "flowRate",
          "type": "int96"
        }
      ],
      "name": "reduceFlow",
      "outputs": [],
      "stateMutability": "nonpayable",
      "type": "function"
    },
    {
      "inputs": [
        {
          "internalType": "address",
          "name": "_employee",
          "type": "address"
        }
      ],
      "name": "removeEmployee",
      "outputs": [],
      "stateMutability": "nonpayable",
      "type": "function"
    },
    {
      "inputs": [],
      "name": "renounceOwnership",
      "outputs": [],
      "stateMutability": "nonpayable",
      "type": "function"
    },
    {
      "inputs": [
        {
          "internalType": "string",
          "name": "",
          "type": "string"
        }
      ],
      "name": "s_assetAddress",
      "outputs": [
        {
          "internalType": "address",
          "name": "",
          "type": "address"
        }
      ],
      "stateMutability": "view",
      "type": "function"
    },
    {
      "inputs": [
        {
          "internalType": "address",
          "name": "",
          "type": "address"
        },
        {
          "internalType": "uint256",
          "name": "",
          "type": "uint256"
        }
      ],
      "name": "s_companyEmployees",
      "outputs": [
        {
          "internalType": "address",
          "name": "",
          "type": "address"
        }
      ],
      "stateMutability": "view",
      "type": "function"
    },
    {
      "inputs": [
        {
          "internalType": "address",
          "name": "",
          "type": "address"
        }
      ],
      "name": "s_companyInfo",
      "outputs": [
        {
          "internalType": "address",
          "name": "_address",
          "type": "address"
        },
        {
          "internalType": "bool",
          "name": "status",
          "type": "bool"
        },
        {
          "internalType": "enum TrustCFA.PAYTYPE",
          "name": "paymentType",
          "type": "uint8"
        },
        {
          "internalType": "uint256",
          "name": "totalPaying",
          "type": "uint256"
        },
        {
          "internalType": "enum TrustCFA.ORIGIN",
          "name": "origin",
          "type": "uint8"
        }
      ],
      "stateMutability": "view",
      "type": "function"
    },
    {
      "inputs": [
        {
          "internalType": "uint256",
          "name": "",
          "type": "uint256"
        }
      ],
      "name": "s_investingAddresses",
      "outputs": [
        {
          "internalType": "address",
          "name": "",
          "type": "address"
        }
      ],
      "stateMutability": "view",
      "type": "function"
    },
    {
      "inputs": [
        {
          "internalType": "uint256",
          "name": "",
          "type": "uint256"
        }
      ],
      "name": "s_loanpositions",
      "outputs": [
        {
          "internalType": "address",
          "name": "employee",
          "type": "address"
        },
        {
          "internalType": "uint256",
          "name": "startTime",
          "type": "uint256"
        },
        {
          "internalType": "uint256",
          "name": "amount",
          "type": "uint256"
        },
        {
          "internalType": "uint256",
          "name": "endTime",
          "type": "uint256"
        }
      ],
      "stateMutability": "view",
      "type": "function"
    },
    {
      "inputs": [
        {
          "internalType": "uint256",
          "name": "amount",
          "type": "uint256"
        },
        {
          "internalType": "uint256",
          "name": "endTime",
          "type": "uint256"
        }
      ],
      "name": "sellStream",
      "outputs": [],
      "stateMutability": "nonpayable",
      "type": "function"
    },
    {
      "inputs": [],
      "name": "stopInvestmentPosition",
      "outputs": [],
      "stateMutability": "nonpayable",
      "type": "function"
    },
    {
      "inputs": [
        {
          "internalType": "address",
          "name": "newOwner",
          "type": "address"
        }
      ],
      "name": "transferOwnership",
      "outputs": [],
      "stateMutability": "nonpayable",
      "type": "function"
    },
    {
      "inputs": [
        {
          "internalType": "address",
          "name": "_company",
          "type": "address"
        }
      ],
      "name": "viewCompanyInfo",
      "outputs": [
        {
          "internalType": "address",
          "name": "_address",
          "type": "address"
        },
        {
          "internalType": "bool",
          "name": "status",
          "type": "bool"
        },
        {
          "internalType": "enum TrustCFA.PAYTYPE",
          "name": "payType",
          "type": "uint8"
        },
        {
          "internalType": "uint256",
          "name": "totalPaying",
          "type": "uint256"
        }
      ],
      "stateMutability": "view",
      "type": "function"
    },
    {
      "inputs": [
        {
          "internalType": "address",
          "name": "_employee",
          "type": "address"
        }
      ],
      "name": "viewEmployeeInfo",
      "outputs": [
        {
          "internalType": "uint256",
          "name": "salary",
          "type": "uint256"
        },
        {
          "internalType": "address",
          "name": "employer",
          "type": "address"
        },
        {
          "internalType": "uint256",
          "name": "startTime",
          "type": "uint256"
        },
        {
          "internalType": "uint256",
          "name": "paymentInterval",
          "type": "uint256"
        }
      ],
      "stateMutability": "view",
      "type": "function"
    },
    {
      "inputs": [
        {
          "internalType": "address",
          "name": "_investor",
          "type": "address"
        }
      ],
      "name": "viewInvestment",
      "outputs": [
        {
          "internalType": "bool",
          "name": "isActive",
          "type": "bool"
        },
        {
          "internalType": "uint256",
          "name": "startTime",
          "type": "uint256"
        },
        {
          "internalType": "uint128",
          "name": "percentage",
          "type": "uint128"
        },
        {
          "internalType": "uint256",
          "name": "frequency",
          "type": "uint256"
        },
        {
          "internalType": "uint256",
          "name": "amountAccumunated",
          "type": "uint256"
        },
        {
          "internalType": "address",
          "name": "asset",
          "type": "address"
        }
      ],
      "stateMutability": "view",
      "type": "function"
    }
  ],
  "bytecode": "60806040819052600580546001600160a01b031916735343b5ba672ae99d627a1c87866b8e53f47db2e690811790915563026b1d5f60e01b82529063026b1d5f90608490602090600481865afa1580156200005e573d6000803e3d6000fd5b505050506040513d601f19601f820116820180604052508101906200008491906200017e565b600680546001600160a01b0319166001600160a01b0392909216919091179055348015620000b157600080fd5b50604051620021e4380380620021e4833981016040819052620000d491620001a3565b620000df3362000111565b600380546001600160a01b039384166001600160a01b03199182161790915560028054929093169116179055620001db565b600080546001600160a01b038381166001600160a01b0319831681178455604051919092169283917f8be0079c531659141344cd1fd0a4f28419497f9722a3daafe3b4186f6b6457e09190a35050565b80516001600160a01b03811681146200017957600080fd5b919050565b6000602082840312156200019157600080fd5b6200019c8262000161565b9392505050565b60008060408385031215620001b757600080fd5b620001c28362000161565b9150620001d26020840162000161565b90509250929050565b611ff980620001eb6000396000f3fe608060405234801561001057600080fd5b50600436106101e55760003560e01c8063a2bae4af1161010f578063de4b9e93116100a2578063ede4668c11610071578063ede4668c14610629578063f2fde38b1461063c578063f9fa97ef1461064f578063fda9d6c51461066257600080fd5b8063de4b9e931461059b578063e2028325146105ae578063e3f20180146105c1578063e9946b201461062057600080fd5b8063d0e8bfcc116100de578063d0e8bfcc1461055a578063d108177a1461056d578063d5219adb14610580578063d7766d791461059357600080fd5b8063a2bae4af1461041d578063ab92758b14610425578063b1b5e8fa14610490578063d0c68a4c1461053657600080fd5b8063641cc046116101875780638be1e996116101565780638be1e996146103795780638da5cb5b1461039d57806399a8906a146103ae5780639d5800ce146103c157600080fd5b8063641cc04614610326578063704802751461032e578063715018a61461035e5780638ad998a71461036657600080fd5b80632877a324116101c35780632877a324146102715780634c6a99dc146102845780634e16772d146102ed5780635dcea9d61461031357600080fd5b80630ef4790a146101ea578063126d7b921461023b5780631c0428501461025c575b600080fd5b61021e6101f8366004611a23565b80516020818301810180516008825292820191909301209152546001600160a01b031681565b6040516001600160a01b0390911681526020015b60405180910390f35b61024e610249366004611a7c565b610675565b604051908152602001610232565b61026f61026a366004611a97565b6106f0565b005b61026f61027f366004611aca565b61096b565b6102c3610292366004611b2f565b60116020526000908152604090208054600182015460028301546003909301546001600160a01b0390921692909184565b604080516001600160a01b0390951685526020850193909352918301526060820152608001610232565b6103006102fb366004611a7c565b610b01565b604051600b9190910b8152602001610232565b61021e610321366004611b2f565b610b26565b61026f610b50565b61026f61033c366004611a7c565b600d80546001600160a01b0319166001600160a01b0392909216919091179055565b61026f610c51565b61026f610374366004611b48565b610c87565b61024e610387366004611a7c565b6001600160a01b03166000908152600a60205290565b6000546001600160a01b031661021e565b61021e6103bc366004611b6a565b610df4565b61040d6103cf366004611a7c565b6001600160a01b039081166000908152600a6020526040902080546001909101549181169260ff600160a01b8304811693600160a81b909304169190565b6040516102329493929190611bc8565b600b5461024e565b610468610433366004611a7c565b6001600160a01b039081166000908152600c602052604090206001810154600282015460038301546004909301549194931692565b604080519485526001600160a01b039093166020850152918301526060820152608001610232565b6104f061049e366004611a7c565b6001600160a01b039081166000908152600e602052604090208054600182015460028301546003840154600485015460059095015460ff9094169692956001600160801b039092169490939092911690565b60408051961515875260208701959095526001600160801b0390931693850193909352606084015260808301919091526001600160a01b031660a082015260c001610232565b61024e610544366004611a7c565b6001600160a01b03166000908152600960205290565b61026f610568366004611bfb565b610e2c565b61026f61057b366004611a7c565b610e3a565b61026f61058e366004611c38565b611105565b600f5461024e565b61026f6105a9366004611a7c565b611388565b61021e6105bc366004611b2f565b611395565b61060f6105cf366004611a7c565b600a602052600090815260409020805460018201546002909201546001600160a01b0382169260ff600160a01b8404811693600160a81b90048116921685565b604051610232959493929190611c6b565b61024e60105481565b61026f610637366004611a7c565b6113a5565b61026f61064a366004611a7c565b6113f1565b61026f61065d366004611cc2565b611489565b61026f610670366004611bfb565b6116bf565b33600090815260096020528060005b818111156106e95733600090815260096020526040902080546001600160a01b0386169190839081106106b9576106b9611d05565b6000918252602090912001546001600160a01b0316036106d7578092505b806106e181611d31565b915050610684565b5050919050565b600d546001600160a01b0316331461070757600080fd5b6001600160a01b0382166000908152600e60205260409020610728836116c9565b6001600160a01b0384811660009081526012602052604090819020839055600654905163095ea7b360e01b81529082166004820152602481018390529084169063095ea7b3906044016020604051808303816000875af1158015610790573d6000803e3d6000fd5b505050506040513d601f19601f820116820180604052508101906107b49190611d4a565b5060065460405163e8eda9df60e01b81526001600160a01b038581166004830152602482018490528681166044830152600060648301529091169063e8eda9df90608401600060405180830381600087803b15801561081257600080fd5b505af1158015610826573d6000803e3d6000fd5b505050506000826003015490506040518060c001604052806001151581526020014281526020018460020160009054906101000a90046001600160801b03166001600160801b03168152602001600081526020018281526020018460050160009054906101000a90046001600160a01b03166001600160a01b0316815250600e6000876001600160a01b03166001600160a01b0316815260200190815260200160002060008201518160000160006101000a81548160ff0219169083151502179055506020820151816001015560408201518160020160006101000a8154816001600160801b0302191690836001600160801b03160217905550606082015181600301556080820151816004015560a08201518160050160006101000a8154816001600160a01b0302191690836001600160a01b031602179055509050505050505050565b336000908152600c602052604090206001600582015460ff16600181111561099557610995611b94565b146109d65760405162461bcd60e51b815260206004820152600c60248201526b6e6f7420656c696769626c6560a01b60448201526064015b60405180910390fd5b6040518060c00160405280600115158152602001428152602001856001600160801b0316815260200184815260200160008152602001600884604051610a1c9190611d98565b9081526040805160209281900383019020546001600160a01b03908116909352336000818152600e84528281208651815460ff191690151517815593860151600180860191909155928601516002850180546001600160801b0319166001600160801b03909216919091179055606086015160038501556080860151600485015560a090950151600590930180546001600160a01b03199081169490951693909317909255600f805491820181559093527f8d1108e10bcb7c27dddfc02ed9d693a074039d026cf4ea4240b40f7d581ac8029092018054909116909117905550505050565b6001600160a01b0381166000908152600c6020526040812060010154805b9392505050565b600f8181548110610b3657600080fd5b6000918252602090912001546001600160a01b0316905081565b336000908152600c60205260409020805460ff161515600114610ba55760405162461bcd60e51b815260206004820152600d60248201526c6e6f7420696e76657374696e6760981b60448201526064016109cd565b506040805160c0810182526000808252426020808401918252838501838152606085018481526080860185815260a08701868152338752600e909452969094209451855460ff19169015151785559151600185015590516002840180546001600160801b0319166001600160801b0390921691909117905590516003830155915160048201559051600590910180546001600160a01b0319166001600160a01b03909216919091179055565b6000546001600160a01b03163314610c7b5760405162461bcd60e51b81526004016109cd90611db4565b610c85600061174c565b565b336000908152600c60205260409020805460ff161515600114610ca957600080fd5b60028160010154610cba9190611de9565b831115610cc657600080fd5b62278d00821115610cd657600080fd5b600581015462010000900460ff1615610cee57600080fd5b6001600582015460ff166001811115610d0957610d09611b94565b03610def576040805160808101825233808252426020808401918252838501888152606085018881526010805460009081526011909452878420965187546001600160a01b0319166001600160a01b039182161788559451600180890191909155925160028801559051600390960195909555549354945163013647f960e51b8152600481019590955260248501889052604485018790526064850192909252608484019190915216906326c8ff209060a401600060405180830381600087803b158015610dd657600080fd5b505af1158015610dea573d6000803e3d6000fd5b505050505b505050565b60096020528160005260406000208181548110610e1057600080fd5b6000918252602090912001546001600160a01b03169150829050565b610e36828261179c565b5050565b6001600160a01b038181166000908152600c6020526040902060020154163314610e6357600080fd5b6000610e6e82610675565b3360009081526009602052909150610e87600182611e0b565b604080516101008101825260008082526020808301828152838501838152606085018481526080860185815260a0870186815260c0880187905260e088018790526001600160a01b038d81168852600c909652979095208651815490151560ff1991821617825593516001808301919091559251600282018054919096166001600160a01b031990911617909455516003840155925160048301559351600582018054969750939591949093929116908381811115610f4857610f48611b94565b021790555060c08201516005909101805460e0909301511515620100000262ff000019921515610100029290921662ffff0019909316929092171790556000336000908152600a6020526040902054600160a81b900460ff166001811115610fb257610fb2611b94565b03611017576007546040516325d3ceff60e11b81526001600160a01b03858116600483015290911690634ba79dfe90602401600060405180830381600087803b158015610ffe57600080fd5b505af1158015611012573d6000803e3d6000fd5b505050505b8082036110635733600090815260096020526040902080548061103c5761103c611e22565b600082815260209020810160001990810180546001600160a01b0319169055019055505050565b33600090815260096020526040902080548290811061108457611084611d05565b60009182526020808320909101543383526009909152604090912080546001600160a01b0390921691849081106110bd576110bd611d05565b600091825260208083209190910180546001600160a01b0319166001600160a01b03949094169390931790925533815260099091526040902080548061103c5761103c611e22565b336000908152600a602052604090208054600160a01b900460ff16151560011461115e5760405162461bcd60e51b815260206004820152600a6024820152696e6f742061637469766560b01b60448201526064016109cd565b60408051610100810182526000815260208101859052339181019190915242606082015260808101839052815460a0820190600160a81b900460ff1660018111156111ab576111ab611b94565b81526000602080830182905260409283018290526001600160a01b038089168352600c8252918390208451815490151560ff199182161782559185015160018281019190915593850151600282018054919094166001600160a01b031990911617909255606084015160038301556080840151600483015560a08401516005830180549394919390921690838181111561124757611247611b94565b021790555060c08201516005909101805460e0909301511515620100000262ff000019921515610100029290921662ffff001990931692909217179055336000908152600a6020526040812060010180548592906112a6908490611e38565b90915550600090508154600160a81b900460ff1660018111156112cb576112cb611b94565b0361138257600754604051639d14b2b960e01b81526001600160a01b0386811660048301526024820186905290911690639d14b2b990604401600060405180830381600087803b15801561131e57600080fd5b505af1158015611332573d6000803e3d6000fd5b5050600b80546001810182556000919091527f0175b7a638427703f0dbe7bb9bbf987a2551717b34e79f33b5b1008d1fa01db90180546001600160a01b0319166001600160a01b03881617905550505b50505050565b61139230826118bb565b50565b600b8181548110610b3657600080fd5b6000546001600160a01b031633146113cf5760405162461bcd60e51b81526004016109cd90611db4565b600780546001600160a01b0319166001600160a01b0392909216919091179055565b6000546001600160a01b0316331461141b5760405162461bcd60e51b81526004016109cd90611db4565b6001600160a01b0381166114805760405162461bcd60e51b815260206004820152602660248201527f4f776e61626c653a206e6577206f776e657220697320746865207a65726f206160448201526564647265737360d01b60648201526084016109cd565b6113928161174c565b6000546001600160a01b031633146114b35760405162461bcd60e51b81526004016109cd90611db4565b8060ff166000036115e3578260ff166001036115bc576040805160a0810182526001600160a01b038416815260016020820181905290918201905b8152602001600081526020016000600181111561150d5761150d611b94565b90526001600160a01b038084166000908152600a602090815260409182902084518154928601511515600160a01b026001600160a81b0319909316941693909317178083559083015190829060ff60a81b1916600160a81b83600181111561157757611577611b94565b02179055506060820151816001015560808201518160020160006101000a81548160ff021916908360018111156115b0576115b0611b94565b02179055505050505050565b6040805160a0810182526001600160a01b03841681526001602082015290810160006114ee565b8260ff16600003611623576040805160a0810182526001600160a01b0384168152600160208201529081016000815260006020820152604001600161150d565b6040805160a0810182526001600160a01b03841681526001602082018190529091820190815260006020820152604001600190526001600160a01b038084166000908152600a602090815260409182902084518154928601511515600160a01b026001600160a81b0319909316941693909317178083559083015190829060ff60a81b1916600160a81b83600181111561157757611577611b94565b610e368282611906565b6001600160a01b0381166000908152600e60209081526040808320600c90925282206001600582015460ff16600181111561170657611706611b94565b1461171057600080fd5b6001808301549082015460009061172b9062278d0090611de9565b9050806117388342611e0b565b6117429190611e50565b9695505050505050565b600080546001600160a01b038381166001600160a01b0319831681178455604051919092169283917f8be0079c531659141344cd1fd0a4f28419497f9722a3daafe3b4186f6b6457e09190a35050565b6001600160a01b0382163014806117ba57506001600160a01b038216155b156117c3575050565b6003546002546004546001600160a01b03928316926339255d5b9281169163317e182f60e11b9116868660005b6040519080825280601f01601f19166020018201604052801561181a576020820181803683370190505b5060405160240161182e9493929190611e9b565b60408051601f198184030181529181526020820180516001600160e01b03166001600160e01b03199485161790525160e085901b90921682526118749291600401611ed1565b6000604051808303816000875af1158015611893573d6000803e3d6000fd5b505050506040513d6000823e601f3d908101601f19168201604052610def9190810190611f18565b6003546002546004546040805160008152602081019091526001600160a01b03938416936339255d5b93811692635a5999e360e11b9261182e92909116908890889060448101611f8f565b6001600160a01b03821630148061192457506001600160a01b038216155b1561192d575050565b6003546002546004546001600160a01b03928316926339255d5b928116916328104d3160e11b9116868660006117f0565b634e487b7160e01b600052604160045260246000fd5b604051601f8201601f1916810167ffffffffffffffff8111828210171561199d5761199d61195e565b604052919050565b600067ffffffffffffffff8211156119bf576119bf61195e565b50601f01601f191660200190565b600082601f8301126119de57600080fd5b81356119f16119ec826119a5565b611974565b818152846020838601011115611a0657600080fd5b816020850160208301376000918101602001919091529392505050565b600060208284031215611a3557600080fd5b813567ffffffffffffffff811115611a4c57600080fd5b611a58848285016119cd565b949350505050565b80356001600160a01b0381168114611a7757600080fd5b919050565b600060208284031215611a8e57600080fd5b610b1f82611a60565b60008060408385031215611aaa57600080fd5b611ab383611a60565b9150611ac160208401611a60565b90509250929050565b600080600060608486031215611adf57600080fd5b83356001600160801b0381168114611af657600080fd5b925060208401359150604084013567ffffffffffffffff811115611b1957600080fd5b611b25868287016119cd565b9150509250925092565b600060208284031215611b4157600080fd5b5035919050565b60008060408385031215611b5b57600080fd5b50508035926020909101359150565b60008060408385031215611b7d57600080fd5b611b8683611a60565b946020939093013593505050565b634e487b7160e01b600052602160045260246000fd5b6002811061139257634e487b7160e01b600052602160045260246000fd5b6001600160a01b0385168152831515602082015260808101611be984611baa565b60408201939093526060015292915050565b60008060408385031215611c0e57600080fd5b611c1783611a60565b9150602083013580600b0b8114611c2d57600080fd5b809150509250929050565b600080600060608486031215611c4d57600080fd5b611c5684611a60565b95602085013595506040909401359392505050565b6001600160a01b0386168152841515602082015260a08101611c8c85611baa565b846040830152836060830152611ca183611baa565b8260808301529695505050505050565b803560ff81168114611a7757600080fd5b600080600060608486031215611cd757600080fd5b611ce084611cb1565b9250611cee60208501611a60565b9150611cfc60408501611cb1565b90509250925092565b634e487b7160e01b600052603260045260246000fd5b634e487b7160e01b600052601160045260246000fd5b600060018201611d4357611d43611d1b565b5060010190565b600060208284031215611d5c57600080fd5b81518015158114610b1f57600080fd5b60005b83811015611d87578181015183820152602001611d6f565b838111156113825750506000910152565b60008251611daa818460208701611d6c565b9190910192915050565b6020808252818101527f4f776e61626c653a2063616c6c6572206973206e6f7420746865206f776e6572604082015260600190565b600082611e0657634e487b7160e01b600052601260045260246000fd5b500490565b600082821015611e1d57611e1d611d1b565b500390565b634e487b7160e01b600052603160045260246000fd5b60008219821115611e4b57611e4b611d1b565b500190565b6000816000190483118215151615611e6a57611e6a611d1b565b500290565b60008151808452611e87816020860160208601611d6c565b601f01601f19169290920160200192915050565b6001600160a01b03858116825284166020820152600b83900b604082015260806060820181905260009061174290830184611e6f565b6001600160a01b0383168152606060208201819052600090611ef590830184611e6f565b8281036040938401526002815261060f60f31b6020820152919091019392505050565b600060208284031215611f2a57600080fd5b815167ffffffffffffffff811115611f4157600080fd5b8201601f81018413611f5257600080fd5b8051611f606119ec826119a5565b818152856020838501011115611f7557600080fd5b611f86826020830160208601611d6c565b95945050505050565b6001600160a01b03858116825284811660208301528316604082015260806060820181905260009061174290830184611e6f56fea2646970667358221220f0fc11aab4a49402b800ad108acdc8197796ca7c443215e04426bdd2b56f7ce664736f6c634300080d0033",
  "bytecodeSha1": "d149a82dd1280281c4fffcfdb3e9490b61a85d5b",
  "compiler": {
    "evm_version": "istanbul",
    "optimizer": {
      "enabled": true,
      "runs": 200
    },
    "version": "0.8.13+commit.abaa5c0e"
  },
  "contractName": "TrustCFA",
  "language": "Solidity",
  "natspec": {
    "kind": "dev",
    "methods": {
      "_addemployee(address,uint256,uint256)": {
        "details": "only callable by an active employer",
        "notice": "add an employer to the platform",
        "params": {
          "_employeeAddress": ": address of the employer",
          "_paymentInterval": ": the interval to which the employee receives the pay",
          "_salary": ": the employee salary"
        }
      },
      "_createCompany(uint8,address,uint8)": {
        "details": "only callable by the contract admin",
        "notice": "add a compny to the platform",
        "params": {
          "_companyAddress": ": the address of the company",
          "_payType": ": the type of payment the company gives ie. Installments or stream"
        }
      },
      "owner()": {
        "details": "Returns the address of the current owner."
      },
      "renounceOwnership()": {
        "details": "Leaves the contract without owner. It will not be possible to call `onlyOwner` functions anymore. Can only be called by the current owner. NOTE: Renouncing ownership will leave the contract without an owner, thereby removing any functionality that is only available to the owner."
      },
      "transferOwnership(address)": {
        "details": "Transfers ownership of the contract to a new account (`newOwner`). Can only be called by the current owner."
      },
      "viewCompanyInfo(address)": {
        "notice": "get an employer's infor",
        "params": {
          "_company": ": employee address"
        }
      },
      "viewEmployeeInfo(address)": {
        "notice": "get an employee's infor",
        "params": {
          "_employee": ": employee address"
        }
      }
    },
    "version": 1
  },
  "opcodes": "PUSH1 0x80 PUSH1 0x40 MSTORE CALLVALUE DUP1 ISZERO PUSH2 0x10 JUMPI PUSH1 0x0 DUP1 REVERT JUMPDEST POP PUSH1 0x4 CALLDATASIZE LT PUSH2 0x1E5 JUMPI PUSH1 0x0 CALLDATALOAD PUSH1 0xE0 SHR DUP1 PUSH4 0xA2BAE4AF GT PUSH2 0x10F JUMPI DUP1 PUSH4 0xDE4B9E93 GT PUSH2 0xA2 JUMPI DUP1 PUSH4 0xEDE4668C GT PUSH2 0x71 JUMPI DUP1 PUSH4 0xEDE4668C EQ PUSH2 0x629 JUMPI DUP1 PUSH4 0xF2FDE38B EQ PUSH2 0x63C JUMPI DUP1 PUSH4 0xF9FA97EF EQ PUSH2 0x64F JUMPI DUP1 PUSH4 0xFDA9D6C5 EQ PUSH2 0x662 JUMPI PUSH1 0x0 DUP1 REVERT JUMPDEST DUP1 PUSH4 0xDE4B9E93 EQ PUSH2 0x59B JUMPI DUP1 PUSH4 0xE2028325 EQ PUSH2 0x5AE JUMPI DUP1 PUSH4 0xE3F20180 EQ PUSH2 0x5C1 JUMPI DUP1 PUSH4 0xE9946B20 EQ PUSH2 0x620 JUMPI PUSH1 0x0 DUP1 REVERT JUMPDEST DUP1 PUSH4 0xD0E8BFCC GT PUSH2 0xDE JUMPI DUP1 PUSH4 0xD0E8BFCC EQ PUSH2 0x55A JUMPI DUP1 PUSH4 0xD108177A EQ PUSH2 0x56D JUMPI DUP1 PUSH4 0xD5219ADB EQ PUSH2 0x580 JUMPI DUP1 PUSH4 0xD7766D79 EQ PUSH2 0x593 JUMPI PUSH1 0x0 DUP1 REVERT JUMPDEST DUP1 PUSH4 0xA2BAE4AF EQ PUSH2 0x41D JUMPI DUP1 PUSH4 0xAB92758B EQ PUSH2 0x425 JUMPI DUP1 PUSH4 0xB1B5E8FA EQ PUSH2 0x490 JUMPI DUP1 PUSH4 0xD0C68A4C EQ PUSH2 0x536 JUMPI PUSH1 0x0 DUP1 REVERT JUMPDEST DUP1 PUSH4 0x641CC046 GT PUSH2 0x187 JUMPI DUP1 PUSH4 0x8BE1E996 GT PUSH2 0x156 JUMPI DUP1 PUSH4 0x8BE1E996 EQ PUSH2 0x379 JUMPI DUP1 PUSH4 0x8DA5CB5B EQ PUSH2 0x39D JUMPI DUP1 PUSH4 0x99A8906A EQ PUSH2 0x3AE JUMPI DUP1 PUSH4 0x9D5800CE EQ PUSH2 0x3C1 JUMPI PUSH1 0x0 DUP1 REVERT JUMPDEST DUP1 PUSH4 0x641CC046 EQ PUSH2 0x326 JUMPI DUP1 PUSH4 0x70480275 EQ PUSH2 0x32E JUMPI DUP1 PUSH4 0x715018A6 EQ PUSH2 0x35E JUMPI DUP1 PUSH4 0x8AD998A7 EQ PUSH2 0x366 JUMPI PUSH1 0x0 DUP1 REVERT JUMPDEST DUP1 PUSH4 0x2877A324 GT PUSH2 0x1C3 JUMPI DUP1 PUSH4 0x2877A324 EQ PUSH2 0x271 JUMPI DUP1 PUSH4 0x4C6A99DC EQ PUSH2 0x284 JUMPI DUP1 PUSH4 0x4E16772D EQ PUSH2 0x2ED JUMPI DUP1 PUSH4 0x5DCEA9D6 EQ PUSH2 0x313 JUMPI PUSH1 0x0 DUP1 REVERT JUMPDEST DUP1 PUSH4 0xEF4790A EQ PUSH2 0x1EA JUMPI DUP1 PUSH4 0x126D7B92 EQ PUSH2 0x23B JUMPI DUP1 PUSH4 0x1C042850 EQ PUSH2 0x25C JUMPI JUMPDEST PUSH1 0x0 DUP1 REVERT JUMPDEST PUSH2 0x21E PUSH2 0x1F8 CALLDATASIZE PUSH1 0x4 PUSH2 0x1A23 JUMP JUMPDEST DUP1 MLOAD PUSH1 0x20 DUP2 DUP4 ADD DUP2 ADD DUP1 MLOAD PUSH1 0x8 DUP3 MSTORE SWAP3 DUP3 ADD SWAP2 SWAP1 SWAP4 ADD KECCAK256 SWAP2 MSTORE SLOAD PUSH1 0x1 PUSH1 0x1 PUSH1 0xA0 SHL SUB AND DUP2 JUMP JUMPDEST PUSH1 0x40 MLOAD PUSH1 0x1 PUSH1 0x1 PUSH1 0xA0 SHL SUB SWAP1 SWAP2 AND DUP2 MSTORE PUSH1 0x20 ADD JUMPDEST PUSH1 0x40 MLOAD DUP1 SWAP2 SUB SWAP1 RETURN JUMPDEST PUSH2 0x24E PUSH2 0x249 CALLDATASIZE PUSH1 0x4 PUSH2 0x1A7C JUMP JUMPDEST PUSH2 0x675 JUMP JUMPDEST PUSH1 0x40 MLOAD SWAP1 DUP2 MSTORE PUSH1 0x20 ADD PUSH2 0x232 JUMP JUMPDEST PUSH2 0x26F PUSH2 0x26A CALLDATASIZE PUSH1 0x4 PUSH2 0x1A97 JUMP JUMPDEST PUSH2 0x6F0 JUMP JUMPDEST STOP JUMPDEST PUSH2 0x26F PUSH2 0x27F CALLDATASIZE PUSH1 0x4 PUSH2 0x1ACA JUMP JUMPDEST PUSH2 0x96B JUMP JUMPDEST PUSH2 0x2C3 PUSH2 0x292 CALLDATASIZE PUSH1 0x4 PUSH2 0x1B2F JUMP JUMPDEST PUSH1 0x11 PUSH1 0x20 MSTORE PUSH1 0x0 SWAP1 DUP2 MSTORE PUSH1 0x40 SWAP1 KECCAK256 DUP1 SLOAD PUSH1 0x1 DUP3 ADD SLOAD PUSH1 0x2 DUP4 ADD SLOAD PUSH1 0x3 SWAP1 SWAP4 ADD SLOAD PUSH1 0x1 PUSH1 0x1 PUSH1 0xA0 SHL SUB SWAP1 SWAP3 AND SWAP3 SWAP1 SWAP2 DUP5 JUMP JUMPDEST PUSH1 0x40 DUP1 MLOAD PUSH1 0x1 PUSH1 0x1 PUSH1 0xA0 SHL SUB SWAP1 SWAP6 AND DUP6 MSTORE PUSH1 0x20 DUP6 ADD SWAP4 SWAP1 SWAP4 MSTORE SWAP2 DUP4 ADD MSTORE PUSH1 0x60 DUP3 ADD MSTORE PUSH1 0x80 ADD PUSH2 0x232 JUMP JUMPDEST PUSH2 0x300 PUSH2 0x2FB CALLDATASIZE PUSH1 0x4 PUSH2 0x1A7C JUMP JUMPDEST PUSH2 0xB01 JUMP JUMPDEST PUSH1 0x40 MLOAD PUSH1 0xB SWAP2 SWAP1 SWAP2 SIGNEXTEND DUP2 MSTORE PUSH1 0x20 ADD PUSH2 0x232 JUMP JUMPDEST PUSH2 0x21E PUSH2 0x321 CALLDATASIZE PUSH1 0x4 PUSH2 0x1B2F JUMP JUMPDEST PUSH2 0xB26 JUMP JUMPDEST PUSH2 0x26F PUSH2 0xB50 JUMP JUMPDEST PUSH2 0x26F PUSH2 0x33C CALLDATASIZE PUSH1 0x4 PUSH2 0x1A7C JUMP JUMPDEST PUSH1 0xD DUP1 SLOAD PUSH1 0x1 PUSH1 0x1 PUSH1 0xA0 SHL SUB NOT AND PUSH1 0x1 PUSH1 0x1 PUSH1 0xA0 SHL SUB SWAP3 SWAP1 SWAP3 AND SWAP2 SWAP1 SWAP2 OR SWAP1 SSTORE JUMP JUMPDEST PUSH2 0x26F PUSH2 0xC51 JUMP JUMPDEST PUSH2 0x26F PUSH2 0x374 CALLDATASIZE PUSH1 0x4 PUSH2 0x1B48 JUMP JUMPDEST PUSH2 0xC87 JUMP JUMPDEST PUSH2 0x24E PUSH2 0x387 CALLDATASIZE PUSH1 0x4 PUSH2 0x1A7C JUMP JUMPDEST PUSH1 0x1 PUSH1 0x1 PUSH1 0xA0 SHL SUB AND PUSH1 0x0 SWAP1 DUP2 MSTORE PUSH1 0xA PUSH1 0x20 MSTORE SWAP1 JUMP JUMPDEST PUSH1 0x0 SLOAD PUSH1 0x1 PUSH1 0x1 PUSH1 0xA0 SHL SUB AND PUSH2 0x21E JUMP JUMPDEST PUSH2 0x21E PUSH2 0x3BC CALLDATASIZE PUSH1 0x4 PUSH2 0x1B6A JUMP JUMPDEST PUSH2 0xDF4 JUMP JUMPDEST PUSH2 0x40D PUSH2 0x3CF CALLDATASIZE PUSH1 0x4 PUSH2 0x1A7C JUMP JUMPDEST PUSH1 0x1 PUSH1 0x1 PUSH1 0xA0 SHL SUB SWAP1 DUP2 AND PUSH1 0x0 SWAP1 DUP2 MSTORE PUSH1 0xA PUSH1 0x20 MSTORE PUSH1 0x40 SWAP1 KECCAK256 DUP1 SLOAD PUSH1 0x1 SWAP1 SWAP2 ADD SLOAD SWAP2 DUP2 AND SWAP3 PUSH1 0xFF PUSH1 0x1 PUSH1 0xA0 SHL DUP4 DIV DUP2 AND SWAP4 PUSH1 0x1 PUSH1 0xA8 SHL SWAP1 SWAP4 DIV AND SWAP2 SWAP1 JUMP JUMPDEST PUSH1 0x40 MLOAD PUSH2 0x232 SWAP5 SWAP4 SWAP3 SWAP2 SWAP1 PUSH2 0x1BC8 JUMP JUMPDEST PUSH1 0xB SLOAD PUSH2 0x24E JUMP JUMPDEST PUSH2 0x468 PUSH2 0x433 CALLDATASIZE PUSH1 0x4 PUSH2 0x1A7C JUMP JUMPDEST PUSH1 0x1 PUSH1 0x1 PUSH1 0xA0 SHL SUB SWAP1 DUP2 AND PUSH1 0x0 SWAP1 DUP2 MSTORE PUSH1 0xC PUSH1 0x20 MSTORE PUSH1 0x40 SWAP1 KECCAK256 PUSH1 0x1 DUP2 ADD SLOAD PUSH1 0x2 DUP3 ADD SLOAD PUSH1 0x3 DUP4 ADD SLOAD PUSH1 0x4 SWAP1 SWAP4 ADD SLOAD SWAP2 SWAP5 SWAP4 AND SWAP3 JUMP JUMPDEST PUSH1 0x40 DUP1 MLOAD SWAP5 DUP6 MSTORE PUSH1 0x1 PUSH1 0x1 PUSH1 0xA0 SHL SUB SWAP1 SWAP4 AND PUSH1 0x20 DUP6 ADD MSTORE SWAP2 DUP4 ADD MSTORE PUSH1 0x60 DUP3 ADD MSTORE PUSH1 0x80 ADD PUSH2 0x232 JUMP JUMPDEST PUSH2 0x4F0 PUSH2 0x49E CALLDATASIZE PUSH1 0x4 PUSH2 0x1A7C JUMP JUMPDEST PUSH1 0x1 PUSH1 0x1 PUSH1 0xA0 SHL SUB SWAP1 DUP2 AND PUSH1 0x0 SWAP1 DUP2 MSTORE PUSH1 0xE PUSH1 0x20 MSTORE PUSH1 0x40 SWAP1 KECCAK256 DUP1 SLOAD PUSH1 0x1 DUP3 ADD SLOAD PUSH1 0x2 DUP4 ADD SLOAD PUSH1 0x3 DUP5 ADD SLOAD PUSH1 0x4 DUP6 ADD SLOAD PUSH1 0x5 SWAP1 SWAP6 ADD SLOAD PUSH1 0xFF SWAP1 SWAP5 AND SWAP7 SWAP3 SWAP6 PUSH1 0x1 PUSH1 0x1 PUSH1 0x80 SHL SUB SWAP1 SWAP3 AND SWAP5 SWAP1 SWAP4 SWAP1 SWAP3 SWAP2 AND SWAP1 JUMP JUMPDEST PUSH1 0x40 DUP1 MLOAD SWAP7 ISZERO ISZERO DUP8 MSTORE PUSH1 0x20 DUP8 ADD SWAP6 SWAP1 SWAP6 MSTORE PUSH1 0x1 PUSH1 0x1 PUSH1 0x80 SHL SUB SWAP1 SWAP4 AND SWAP4 DUP6 ADD SWAP4 SWAP1 SWAP4 MSTORE PUSH1 0x60 DUP5 ADD MSTORE PUSH1 0x80 DUP4 ADD SWAP2 SWAP1 SWAP2 MSTORE PUSH1 0x1 PUSH1 0x1 PUSH1 0xA0 SHL SUB AND PUSH1 0xA0 DUP3 ADD MSTORE PUSH1 0xC0 ADD PUSH2 0x232 JUMP JUMPDEST PUSH2 0x24E PUSH2 0x544 CALLDATASIZE PUSH1 0x4 PUSH2 0x1A7C JUMP JUMPDEST PUSH1 0x1 PUSH1 0x1 PUSH1 0xA0 SHL SUB AND PUSH1 0x0 SWAP1 DUP2 MSTORE PUSH1 0x9 PUSH1 0x20 MSTORE SWAP1 JUMP JUMPDEST PUSH2 0x26F PUSH2 0x568 CALLDATASIZE PUSH1 0x4 PUSH2 0x1BFB JUMP JUMPDEST PUSH2 0xE2C JUMP JUMPDEST PUSH2 0x26F PUSH2 0x57B CALLDATASIZE PUSH1 0x4 PUSH2 0x1A7C JUMP JUMPDEST PUSH2 0xE3A JUMP JUMPDEST PUSH2 0x26F PUSH2 0x58E CALLDATASIZE PUSH1 0x4 PUSH2 0x1C38 JUMP JUMPDEST PUSH2 0x1105 JUMP JUMPDEST PUSH1 0xF SLOAD PUSH2 0x24E JUMP JUMPDEST PUSH2 0x26F PUSH2 0x5A9 CALLDATASIZE PUSH1 0x4 PUSH2 0x1A7C JUMP JUMPDEST PUSH2 0x1388 JUMP JUMPDEST PUSH2 0x21E PUSH2 0x5BC CALLDATASIZE PUSH1 0x4 PUSH2 0x1B2F JUMP JUMPDEST PUSH2 0x1395 JUMP JUMPDEST PUSH2 0x60F PUSH2 0x5CF CALLDATASIZE PUSH1 0x4 PUSH2 0x1A7C JUMP JUMPDEST PUSH1 0xA PUSH1 0x20 MSTORE PUSH1 0x0 SWAP1 DUP2 MSTORE PUSH1 0x40 SWAP1 KECCAK256 DUP1 SLOAD PUSH1 0x1 DUP3 ADD SLOAD PUSH1 0x2 SWAP1 SWAP3 ADD SLOAD PUSH1 0x1 PUSH1 0x1 PUSH1 0xA0 SHL SUB DUP3 AND SWAP3 PUSH1 0xFF PUSH1 0x1 PUSH1 0xA0 SHL DUP5 DIV DUP2 AND SWAP4 PUSH1 0x1 PUSH1 0xA8 SHL SWAP1 DIV DUP2 AND SWAP3 AND DUP6 JUMP JUMPDEST PUSH1 0x40 MLOAD PUSH2 0x232 SWAP6 SWAP5 SWAP4 SWAP3 SWAP2 SWAP1 PUSH2 0x1C6B JUMP JUMPDEST PUSH2 0x24E PUSH1 0x10 SLOAD DUP2 JUMP JUMPDEST PUSH2 0x26F PUSH2 0x637 CALLDATASIZE PUSH1 0x4 PUSH2 0x1A7C JUMP JUMPDEST PUSH2 0x13A5 JUMP JUMPDEST PUSH2 0x26F PUSH2 0x64A CALLDATASIZE PUSH1 0x4 PUSH2 0x1A7C JUMP JUMPDEST PUSH2 0x13F1 JUMP JUMPDEST PUSH2 0x26F PUSH2 0x65D CALLDATASIZE PUSH1 0x4 PUSH2 0x1CC2 JUMP JUMPDEST PUSH2 0x1489 JUMP JUMPDEST PUSH2 0x26F PUSH2 0x670 CALLDATASIZE PUSH1 0x4 PUSH2 0x1BFB JUMP JUMPDEST PUSH2 0x16BF JUMP JUMPDEST CALLER PUSH1 0x0 SWAP1 DUP2 MSTORE PUSH1 0x9 PUSH1 0x20 MSTORE DUP1 PUSH1 0x0 JUMPDEST DUP2 DUP2 GT ISZERO PUSH2 0x6E9 JUMPI CALLER PUSH1 0x0 SWAP1 DUP2 MSTORE PUSH1 0x9 PUSH1 0x20 MSTORE PUSH1 0x40 SWAP1 KECCAK256 DUP1 SLOAD PUSH1 0x1 PUSH1 0x1 PUSH1 0xA0 SHL SUB DUP7 AND SWAP2 SWAP1 DUP4 SWAP1 DUP2 LT PUSH2 0x6B9 JUMPI PUSH2 0x6B9 PUSH2 0x1D05 JUMP JUMPDEST PUSH1 0x0 SWAP2 DUP3 MSTORE PUSH1 0x20 SWAP1 SWAP2 KECCAK256 ADD SLOAD PUSH1 0x1 PUSH1 0x1 PUSH1 0xA0 SHL SUB AND SUB PUSH2 0x6D7 JUMPI DUP1 SWAP3 POP JUMPDEST DUP1 PUSH2 0x6E1 DUP2 PUSH2 0x1D31 JUMP JUMPDEST SWAP2 POP POP PUSH2 0x684 JUMP JUMPDEST POP POP SWAP2 SWAP1 POP JUMP JUMPDEST PUSH1 0xD SLOAD PUSH1 0x1 PUSH1 0x1 PUSH1 0xA0 SHL SUB AND CALLER EQ PUSH2 0x707 JUMPI PUSH1 0x0 DUP1 REVERT JUMPDEST PUSH1 0x1 PUSH1 0x1 PUSH1 0xA0 SHL SUB DUP3 AND PUSH1 0x0 SWAP1 DUP2 MSTORE PUSH1 0xE PUSH1 0x20 MSTORE PUSH1 0x40 SWAP1 KECCAK256 PUSH2 0x728 DUP4 PUSH2 0x16C9 JUMP JUMPDEST PUSH1 0x1 PUSH1 0x1 PUSH1 0xA0 SHL SUB DUP5 DUP2 AND PUSH1 0x0 SWAP1 DUP2 MSTORE PUSH1 0x12 PUSH1 0x20 MSTORE PUSH1 0x40 SWAP1 DUP2 SWAP1 KECCAK256 DUP4 SWAP1 SSTORE PUSH1 0x6 SLOAD SWAP1 MLOAD PUSH4 0x95EA7B3 PUSH1 0xE0 SHL DUP2 MSTORE SWAP1 DUP3 AND PUSH1 0x4 DUP3 ADD MSTORE PUSH1 0x24 DUP2 ADD DUP4 SWAP1 MSTORE SWAP1 DUP5 AND SWAP1 PUSH4 0x95EA7B3 SWAP1 PUSH1 0x44 ADD PUSH1 0x20 PUSH1 0x40 MLOAD DUP1 DUP4 SUB DUP2 PUSH1 0x0 DUP8 GAS CALL ISZERO DUP1 ISZERO PUSH2 0x790 JUMPI RETURNDATASIZE PUSH1 0x0 DUP1 RETURNDATACOPY RETURNDATASIZE PUSH1 0x0 REVERT JUMPDEST POP POP POP POP PUSH1 0x40 MLOAD RETURNDATASIZE PUSH1 0x1F NOT PUSH1 0x1F DUP3 ADD AND DUP3 ADD DUP1 PUSH1 0x40 MSTORE POP DUP2 ADD SWAP1 PUSH2 0x7B4 SWAP2 SWAP1 PUSH2 0x1D4A JUMP JUMPDEST POP PUSH1 0x6 SLOAD PUSH1 0x40 MLOAD PUSH4 0xE8EDA9DF PUSH1 0xE0 SHL DUP2 MSTORE PUSH1 0x1 PUSH1 0x1 PUSH1 0xA0 SHL SUB DUP6 DUP2 AND PUSH1 0x4 DUP4 ADD MSTORE PUSH1 0x24 DUP3 ADD DUP5 SWAP1 MSTORE DUP7 DUP2 AND PUSH1 0x44 DUP4 ADD MSTORE PUSH1 0x0 PUSH1 0x64 DUP4 ADD MSTORE SWAP1 SWAP2 AND SWAP1 PUSH4 0xE8EDA9DF SWAP1 PUSH1 0x84 ADD PUSH1 0x0 PUSH1 0x40 MLOAD DUP1 DUP4 SUB DUP2 PUSH1 0x0 DUP8 DUP1 EXTCODESIZE ISZERO DUP1 ISZERO PUSH2 0x812 JUMPI PUSH1 0x0 DUP1 REVERT JUMPDEST POP GAS CALL ISZERO DUP1 ISZERO PUSH2 0x826 JUMPI RETURNDATASIZE PUSH1 0x0 DUP1 RETURNDATACOPY RETURNDATASIZE PUSH1 0x0 REVERT JUMPDEST POP POP POP POP PUSH1 0x0 DUP3 PUSH1 0x3 ADD SLOAD SWAP1 POP PUSH1 0x40 MLOAD DUP1 PUSH1 0xC0 ADD PUSH1 0x40 MSTORE DUP1 PUSH1 0x1 ISZERO ISZERO DUP2 MSTORE PUSH1 0x20 ADD TIMESTAMP DUP2 MSTORE PUSH1 0x20 ADD DUP5 PUSH1 0x2 ADD PUSH1 0x0 SWAP1 SLOAD SWAP1 PUSH2 0x100 EXP SWAP1 DIV PUSH1 0x1 PUSH1 0x1 PUSH1 0x80 SHL SUB AND PUSH1 0x1 PUSH1 0x1 PUSH1 0x80 SHL SUB AND DUP2 MSTORE PUSH1 0x20 ADD PUSH1 0x0 DUP2 MSTORE PUSH1 0x20 ADD DUP3 DUP2 MSTORE PUSH1 0x20 ADD DUP5 PUSH1 0x5 ADD PUSH1 0x0 SWAP1 SLOAD SWAP1 PUSH2 0x100 EXP SWAP1 DIV PUSH1 0x1 PUSH1 0x1 PUSH1 0xA0 SHL SUB AND PUSH1 0x1 PUSH1 0x1 PUSH1 0xA0 SHL SUB AND DUP2 MSTORE POP PUSH1 0xE PUSH1 0x0 DUP8 PUSH1 0x1 PUSH1 0x1 PUSH1 0xA0 SHL SUB AND PUSH1 0x1 PUSH1 0x1 PUSH1 0xA0 SHL SUB AND DUP2 MSTORE PUSH1 0x20 ADD SWAP1 DUP2 MSTORE PUSH1 0x20 ADD PUSH1 0x0 KECCAK256 PUSH1 0x0 DUP3 ADD MLOAD DUP2 PUSH1 0x0 ADD PUSH1 0x0 PUSH2 0x100 EXP DUP2 SLOAD DUP2 PUSH1 0xFF MUL NOT AND SWAP1 DUP4 ISZERO ISZERO MUL OR SWAP1 SSTORE POP PUSH1 0x20 DUP3 ADD MLOAD DUP2 PUSH1 0x1 ADD SSTORE PUSH1 0x40 DUP3 ADD MLOAD DUP2 PUSH1 0x2 ADD PUSH1 0x0 PUSH2 0x100 EXP DUP2 SLOAD DUP2 PUSH1 0x1 PUSH1 0x1 PUSH1 0x80 SHL SUB MUL NOT AND SWAP1 DUP4 PUSH1 0x1 PUSH1 0x1 PUSH1 0x80 SHL SUB AND MUL OR SWAP1 SSTORE POP PUSH1 0x60 DUP3 ADD MLOAD DUP2 PUSH1 0x3 ADD SSTORE PUSH1 0x80 DUP3 ADD MLOAD DUP2 PUSH1 0x4 ADD SSTORE PUSH1 0xA0 DUP3 ADD MLOAD DUP2 PUSH1 0x5 ADD PUSH1 0x0 PUSH2 0x100 EXP DUP2 SLOAD DUP2 PUSH1 0x1 PUSH1 0x1 PUSH1 0xA0 SHL SUB MUL NOT AND SWAP1 DUP4 PUSH1 0x1 PUSH1 0x1 PUSH1 0xA0 SHL SUB AND MUL OR SWAP1 SSTORE POP SWAP1 POP POP POP POP POP POP POP JUMP JUMPDEST CALLER PUSH1 0x0 SWAP1 DUP2 MSTORE PUSH1 0xC PUSH1 0x20 MSTORE PUSH1 0x40 SWAP1 KECCAK256 PUSH1 0x1 PUSH1 0x5 DUP3 ADD SLOAD PUSH1 0xFF AND PUSH1 0x1 DUP2 GT ISZERO PUSH2 0x995 JUMPI PUSH2 0x995 PUSH2 0x1B94 JUMP JUMPDEST EQ PUSH2 0x9D6 JUMPI PUSH1 0x40 MLOAD PUSH3 0x461BCD PUSH1 0xE5 SHL DUP2 MSTORE PUSH1 0x20 PUSH1 0x4 DUP3 ADD MSTORE PUSH1 0xC PUSH1 0x24 DUP3 ADD MSTORE PUSH12 0x6E6F7420656C696769626C65 PUSH1 0xA0 SHL PUSH1 0x44 DUP3 ADD MSTORE PUSH1 0x64 ADD JUMPDEST PUSH1 0x40 MLOAD DUP1 SWAP2 SUB SWAP1 REVERT JUMPDEST PUSH1 0x40 MLOAD DUP1 PUSH1 0xC0 ADD PUSH1 0x40 MSTORE DUP1 PUSH1 0x1 ISZERO ISZERO DUP2 MSTORE PUSH1 0x20 ADD TIMESTAMP DUP2 MSTORE PUSH1 0x20 ADD DUP6 PUSH1 0x1 PUSH1 0x1 PUSH1 0x80 SHL SUB AND DUP2 MSTORE PUSH1 0x20 ADD DUP5 DUP2 MSTORE PUSH1 0x20 ADD PUSH1 0x0 DUP2 MSTORE PUSH1 0x20 ADD PUSH1 0x8 DUP5 PUSH1 0x40 MLOAD PUSH2 0xA1C SWAP2 SWAP1 PUSH2 0x1D98 JUMP JUMPDEST SWAP1 DUP2 MSTORE PUSH1 0x40 DUP1 MLOAD PUSH1 0x20 SWAP3 DUP2 SWAP1 SUB DUP4 ADD SWAP1 KECCAK256 SLOAD PUSH1 0x1 PUSH1 0x1 PUSH1 0xA0 SHL SUB SWAP1 DUP2 AND SWAP1 SWAP4 MSTORE CALLER PUSH1 0x0 DUP2 DUP2 MSTORE PUSH1 0xE DUP5 MSTORE DUP3 DUP2 KECCAK256 DUP7 MLOAD DUP2 SLOAD PUSH1 0xFF NOT AND SWAP1 ISZERO ISZERO OR DUP2 SSTORE SWAP4 DUP7 ADD MLOAD PUSH1 0x1 DUP1 DUP7 ADD SWAP2 SWAP1 SWAP2 SSTORE SWAP3 DUP7 ADD MLOAD PUSH1 0x2 DUP6 ADD DUP1 SLOAD PUSH1 0x1 PUSH1 0x1 PUSH1 0x80 SHL SUB NOT AND PUSH1 0x1 PUSH1 0x1 PUSH1 0x80 SHL SUB SWAP1 SWAP3 AND SWAP2 SWAP1 SWAP2 OR SWAP1 SSTORE PUSH1 0x60 DUP7 ADD MLOAD PUSH1 0x3 DUP6 ADD SSTORE PUSH1 0x80 DUP7 ADD MLOAD PUSH1 0x4 DUP6 ADD SSTORE PUSH1 0xA0 SWAP1 SWAP6 ADD MLOAD PUSH1 0x5 SWAP1 SWAP4 ADD DUP1 SLOAD PUSH1 0x1 PUSH1 0x1 PUSH1 0xA0 SHL SUB NOT SWAP1 DUP2 AND SWAP5 SWAP1 SWAP6 AND SWAP4 SWAP1 SWAP4 OR SWAP1 SWAP3 SSTORE PUSH1 0xF DUP1 SLOAD SWAP2 DUP3 ADD DUP2 SSTORE SWAP1 SWAP4 MSTORE PUSH32 0x8D1108E10BCB7C27DDDFC02ED9D693A074039D026CF4EA4240B40F7D581AC802 SWAP1 SWAP3 ADD DUP1 SLOAD SWAP1 SWAP2 AND SWAP1 SWAP2 OR SWAP1 SSTORE POP POP POP POP JUMP JUMPDEST PUSH1 0x1 PUSH1 0x1 PUSH1 0xA0 SHL SUB DUP2 AND PUSH1 0x0 SWAP1 DUP2 MSTORE PUSH1 0xC PUSH1 0x20 MSTORE PUSH1 0x40 DUP2 KECCAK256 PUSH1 0x1 ADD SLOAD DUP1 JUMPDEST SWAP4 SWAP3 POP POP POP JUMP JUMPDEST PUSH1 0xF DUP2 DUP2 SLOAD DUP2 LT PUSH2 0xB36 JUMPI PUSH1 0x0 DUP1 REVERT JUMPDEST PUSH1 0x0 SWAP2 DUP3 MSTORE PUSH1 0x20 SWAP1 SWAP2 KECCAK256 ADD SLOAD PUSH1 0x1 PUSH1 0x1 PUSH1 0xA0 SHL SUB AND SWAP1 POP DUP2 JUMP JUMPDEST CALLER PUSH1 0x0 SWAP1 DUP2 MSTORE PUSH1 0xC PUSH1 0x20 MSTORE PUSH1 0x40 SWAP1 KECCAK256 DUP1 SLOAD PUSH1 0xFF AND ISZERO ISZERO PUSH1 0x1 EQ PUSH2 0xBA5 JUMPI PUSH1 0x40 MLOAD PUSH3 0x461BCD PUSH1 0xE5 SHL DUP2 MSTORE PUSH1 0x20 PUSH1 0x4 DUP3 ADD MSTORE PUSH1 0xD PUSH1 0x24 DUP3 ADD MSTORE PUSH13 0x6E6F7420696E76657374696E67 PUSH1 0x98 SHL PUSH1 0x44 DUP3 ADD MSTORE PUSH1 0x64 ADD PUSH2 0x9CD JUMP JUMPDEST POP PUSH1 0x40 DUP1 MLOAD PUSH1 0xC0 DUP2 ADD DUP3 MSTORE PUSH1 0x0 DUP1 DUP3 MSTORE TIMESTAMP PUSH1 0x20 DUP1 DUP5 ADD SWAP2 DUP3 MSTORE DUP4 DUP6 ADD DUP4 DUP2 MSTORE PUSH1 0x60 DUP6 ADD DUP5 DUP2 MSTORE PUSH1 0x80 DUP7 ADD DUP6 DUP2 MSTORE PUSH1 0xA0 DUP8 ADD DUP7 DUP2 MSTORE CALLER DUP8 MSTORE PUSH1 0xE SWAP1 SWAP5 MSTORE SWAP7 SWAP1 SWAP5 KECCAK256 SWAP5 MLOAD DUP6 SLOAD PUSH1 0xFF NOT AND SWAP1 ISZERO ISZERO OR DUP6 SSTORE SWAP2 MLOAD PUSH1 0x1 DUP6 ADD SSTORE SWAP1 MLOAD PUSH1 0x2 DUP5 ADD DUP1 SLOAD PUSH1 0x1 PUSH1 0x1 PUSH1 0x80 SHL SUB NOT AND PUSH1 0x1 PUSH1 0x1 PUSH1 0x80 SHL SUB SWAP1 SWAP3 AND SWAP2 SWAP1 SWAP2 OR SWAP1 SSTORE SWAP1 MLOAD PUSH1 0x3 DUP4 ADD SSTORE SWAP2 MLOAD PUSH1 0x4 DUP3 ADD SSTORE SWAP1 MLOAD PUSH1 0x5 SWAP1 SWAP2 ADD DUP1 SLOAD PUSH1 0x1 PUSH1 0x1 PUSH1 0xA0 SHL SUB NOT AND PUSH1 0x1 PUSH1 0x1 PUSH1 0xA0 SHL SUB SWAP1 SWAP3 AND SWAP2 SWAP1 SWAP2 OR SWAP1 SSTORE JUMP JUMPDEST PUSH1 0x0 SLOAD PUSH1 0x1 PUSH1 0x1 PUSH1 0xA0 SHL SUB AND CALLER EQ PUSH2 0xC7B JUMPI PUSH1 0x40 MLOAD PUSH3 0x461BCD PUSH1 0xE5 SHL DUP2 MSTORE PUSH1 0x4 ADD PUSH2 0x9CD SWAP1 PUSH2 0x1DB4 JUMP JUMPDEST PUSH2 0xC85 PUSH1 0x0 PUSH2 0x174C JUMP JUMPDEST JUMP JUMPDEST CALLER PUSH1 0x0 SWAP1 DUP2 MSTORE PUSH1 0xC PUSH1 0x20 MSTORE PUSH1 0x40 SWAP1 KECCAK256 DUP1 SLOAD PUSH1 0xFF AND ISZERO ISZERO PUSH1 0x1 EQ PUSH2 0xCA9 JUMPI PUSH1 0x0 DUP1 REVERT JUMPDEST PUSH1 0x2 DUP2 PUSH1 0x1 ADD SLOAD PUSH2 0xCBA SWAP2 SWAP1 PUSH2 0x1DE9 JUMP JUMPDEST DUP4 GT ISZERO PUSH2 0xCC6 JUMPI PUSH1 0x0 DUP1 REVERT JUMPDEST PUSH3 0x278D00 DUP3 GT ISZERO PUSH2 0xCD6 JUMPI PUSH1 0x0 DUP1 REVERT JUMPDEST PUSH1 0x5 DUP2 ADD SLOAD PUSH3 0x10000 SWAP1 DIV PUSH1 0xFF AND ISZERO PUSH2 0xCEE JUMPI PUSH1 0x0 DUP1 REVERT JUMPDEST PUSH1 0x1 PUSH1 0x5 DUP3 ADD SLOAD PUSH1 0xFF AND PUSH1 0x1 DUP2 GT ISZERO PUSH2 0xD09 JUMPI PUSH2 0xD09 PUSH2 0x1B94 JUMP JUMPDEST SUB PUSH2 0xDEF JUMPI PUSH1 0x40 DUP1 MLOAD PUSH1 0x80 DUP2 ADD DUP3 MSTORE CALLER DUP1 DUP3 MSTORE TIMESTAMP PUSH1 0x20 DUP1 DUP5 ADD SWAP2 DUP3 MSTORE DUP4 DUP6 ADD DUP9 DUP2 MSTORE PUSH1 0x60 DUP6 ADD DUP9 DUP2 MSTORE PUSH1 0x10 DUP1 SLOAD PUSH1 0x0 SWAP1 DUP2 MSTORE PUSH1 0x11 SWAP1 SWAP5 MSTORE DUP8 DUP5 KECCAK256 SWAP7 MLOAD DUP8 SLOAD PUSH1 0x1 PUSH1 0x1 PUSH1 0xA0 SHL SUB NOT AND PUSH1 0x1 PUSH1 0x1 PUSH1 0xA0 SHL SUB SWAP2 DUP3 AND OR DUP9 SSTORE SWAP5 MLOAD PUSH1 0x1 DUP1 DUP10 ADD SWAP2 SWAP1 SWAP2 SSTORE SWAP3 MLOAD PUSH1 0x2 DUP9 ADD SSTORE SWAP1 MLOAD PUSH1 0x3 SWAP1 SWAP7 ADD SWAP6 SWAP1 SWAP6 SSTORE SLOAD SWAP4 SLOAD SWAP5 MLOAD PUSH4 0x13647F9 PUSH1 0xE5 SHL DUP2 MSTORE PUSH1 0x4 DUP2 ADD SWAP6 SWAP1 SWAP6 MSTORE PUSH1 0x24 DUP6 ADD DUP9 SWAP1 MSTORE PUSH1 0x44 DUP6 ADD DUP8 SWAP1 MSTORE PUSH1 0x64 DUP6 ADD SWAP3 SWAP1 SWAP3 MSTORE PUSH1 0x84 DUP5 ADD SWAP2 SWAP1 SWAP2 MSTORE AND SWAP1 PUSH4 0x26C8FF20 SWAP1 PUSH1 0xA4 ADD PUSH1 0x0 PUSH1 0x40 MLOAD DUP1 DUP4 SUB DUP2 PUSH1 0x0 DUP8 DUP1 EXTCODESIZE ISZERO DUP1 ISZERO PUSH2 0xDD6 JUMPI PUSH1 0x0 DUP1 REVERT JUMPDEST POP GAS CALL ISZERO DUP1 ISZERO PUSH2 0xDEA JUMPI RETURNDATASIZE PUSH1 0x0 DUP1 RETURNDATACOPY RETURNDATASIZE PUSH1 0x0 REVERT JUMPDEST POP POP POP POP JUMPDEST POP POP POP JUMP JUMPDEST PUSH1 0x9 PUSH1 0x20 MSTORE DUP2 PUSH1 0x0 MSTORE PUSH1 0x40 PUSH1 0x0 KECCAK256 DUP2 DUP2 SLOAD DUP2 LT PUSH2 0xE10 JUMPI PUSH1 0x0 DUP1 REVERT JUMPDEST PUSH1 0x0 SWAP2 DUP3 MSTORE PUSH1 0x20 SWAP1 SWAP2 KECCAK256 ADD SLOAD PUSH1 0x1 PUSH1 0x1 PUSH1 0xA0 SHL SUB AND SWAP2 POP DUP3 SWAP1 POP JUMP JUMPDEST PUSH2 0xE36 DUP3 DUP3 PUSH2 0x179C JUMP JUMPDEST POP POP JUMP JUMPDEST PUSH1 0x1 PUSH1 0x1 PUSH1 0xA0 SHL SUB DUP2 DUP2 AND PUSH1 0x0 SWAP1 DUP2 MSTORE PUSH1 0xC PUSH1 0x20 MSTORE PUSH1 0x40 SWAP1 KECCAK256 PUSH1 0x2 ADD SLOAD AND CALLER EQ PUSH2 0xE63 JUMPI PUSH1 0x0 DUP1 REVERT JUMPDEST PUSH1 0x0 PUSH2 0xE6E DUP3 PUSH2 0x675 JUMP JUMPDEST CALLER PUSH1 0x0 SWAP1 DUP2 MSTORE PUSH1 0x9 PUSH1 0x20 MSTORE SWAP1 SWAP2 POP PUSH2 0xE87 PUSH1 0x1 DUP3 PUSH2 0x1E0B JUMP JUMPDEST PUSH1 0x40 DUP1 MLOAD PUSH2 0x100 DUP2 ADD DUP3 MSTORE PUSH1 0x0 DUP1 DUP3 MSTORE PUSH1 0x20 DUP1 DUP4 ADD DUP3 DUP2 MSTORE DUP4 DUP6 ADD DUP4 DUP2 MSTORE PUSH1 0x60 DUP6 ADD DUP5 DUP2 MSTORE PUSH1 0x80 DUP7 ADD DUP6 DUP2 MSTORE PUSH1 0xA0 DUP8 ADD DUP7 DUP2 MSTORE PUSH1 0xC0 DUP9 ADD DUP8 SWAP1 MSTORE PUSH1 0xE0 DUP9 ADD DUP8 SWAP1 MSTORE PUSH1 0x1 PUSH1 0x1 PUSH1 0xA0 SHL SUB DUP14 DUP2 AND DUP9 MSTORE PUSH1 0xC SWAP1 SWAP7 MSTORE SWAP8 SWAP1 SWAP6 KECCAK256 DUP7 MLOAD DUP2 SLOAD SWAP1 ISZERO ISZERO PUSH1 0xFF NOT SWAP2 DUP3 AND OR DUP3 SSTORE SWAP4 MLOAD PUSH1 0x1 DUP1 DUP4 ADD SWAP2 SWAP1 SWAP2 SSTORE SWAP3 MLOAD PUSH1 0x2 DUP3 ADD DUP1 SLOAD SWAP2 SWAP1 SWAP7 AND PUSH1 0x1 PUSH1 0x1 PUSH1 0xA0 SHL SUB NOT SWAP1 SWAP2 AND OR SWAP1 SWAP5 SSTORE MLOAD PUSH1 0x3 DUP5 ADD SSTORE SWAP3 MLOAD PUSH1 0x4 DUP4 ADD SSTORE SWAP4 MLOAD PUSH1 0x5 DUP3 ADD DUP1 SLOAD SWAP7 SWAP8 POP SWAP4 SWAP6 SWAP2 SWAP5 SWAP1 SWAP4 SWAP3 SWAP2 AND SWAP1 DUP4 DUP2 DUP2 GT ISZERO PUSH2 0xF48 JUMPI PUSH2 0xF48 PUSH2 0x1B94 JUMP JUMPDEST MUL OR SWAP1 SSTORE POP PUSH1 0xC0 DUP3 ADD MLOAD PUSH1 0x5 SWAP1 SWAP2 ADD DUP1 SLOAD PUSH1 0xE0 SWAP1 SWAP4 ADD MLOAD ISZERO ISZERO PUSH3 0x10000 MUL PUSH3 0xFF0000 NOT SWAP3 ISZERO ISZERO PUSH2 0x100 MUL SWAP3 SWAP1 SWAP3 AND PUSH3 0xFFFF00 NOT SWAP1 SWAP4 AND SWAP3 SWAP1 SWAP3 OR OR SWAP1 SSTORE PUSH1 0x0 CALLER PUSH1 0x0 SWAP1 DUP2 MSTORE PUSH1 0xA PUSH1 0x20 MSTORE PUSH1 0x40 SWAP1 KECCAK256 SLOAD PUSH1 0x1 PUSH1 0xA8 SHL SWAP1 DIV PUSH1 0xFF AND PUSH1 0x1 DUP2 GT ISZERO PUSH2 0xFB2 JUMPI PUSH2 0xFB2 PUSH2 0x1B94 JUMP JUMPDEST SUB PUSH2 0x1017 JUMPI PUSH1 0x7 SLOAD PUSH1 0x40 MLOAD PUSH4 0x25D3CEFF PUSH1 0xE1 SHL DUP2 MSTORE PUSH1 0x1 PUSH1 0x1 PUSH1 0xA0 SHL SUB DUP6 DUP2 AND PUSH1 0x4 DUP4 ADD MSTORE SWAP1 SWAP2 AND SWAP1 PUSH4 0x4BA79DFE SWAP1 PUSH1 0x24 ADD PUSH1 0x0 PUSH1 0x40 MLOAD DUP1 DUP4 SUB DUP2 PUSH1 0x0 DUP8 DUP1 EXTCODESIZE ISZERO DUP1 ISZERO PUSH2 0xFFE JUMPI PUSH1 0x0 DUP1 REVERT JUMPDEST POP GAS CALL ISZERO DUP1 ISZERO PUSH2 0x1012 JUMPI RETURNDATASIZE PUSH1 0x0 DUP1 RETURNDATACOPY RETURNDATASIZE PUSH1 0x0 REVERT JUMPDEST POP POP POP POP JUMPDEST DUP1 DUP3 SUB PUSH2 0x1063 JUMPI CALLER PUSH1 0x0 SWAP1 DUP2 MSTORE PUSH1 0x9 PUSH1 0x20 MSTORE PUSH1 0x40 SWAP1 KECCAK256 DUP1 SLOAD DUP1 PUSH2 0x103C JUMPI PUSH2 0x103C PUSH2 0x1E22 JUMP JUMPDEST PUSH1 0x0 DUP3 DUP2 MSTORE PUSH1 0x20 SWAP1 KECCAK256 DUP2 ADD PUSH1 0x0 NOT SWAP1 DUP2 ADD DUP1 SLOAD PUSH1 0x1 PUSH1 0x1 PUSH1 0xA0 SHL SUB NOT AND SWAP1 SSTORE ADD SWAP1 SSTORE POP POP POP JUMP JUMPDEST CALLER PUSH1 0x0 SWAP1 DUP2 MSTORE PUSH1 0x9 PUSH1 0x20 MSTORE PUSH1 0x40 SWAP1 KECCAK256 DUP1 SLOAD DUP3 SWAP1 DUP2 LT PUSH2 0x1084 JUMPI PUSH2 0x1084 PUSH2 0x1D05 JUMP JUMPDEST PUSH1 0x0 SWAP2 DUP3 MSTORE PUSH1 0x20 DUP1 DUP4 KECCAK256 SWAP1 SWAP2 ADD SLOAD CALLER DUP4 MSTORE PUSH1 0x9 SWAP1 SWAP2 MSTORE PUSH1 0x40 SWAP1 SWAP2 KECCAK256 DUP1 SLOAD PUSH1 0x1 PUSH1 0x1 PUSH1 0xA0 SHL SUB SWAP1 SWAP3 AND SWAP2 DUP5 SWAP1 DUP2 LT PUSH2 0x10BD JUMPI PUSH2 0x10BD PUSH2 0x1D05 JUMP JUMPDEST PUSH1 0x0 SWAP2 DUP3 MSTORE PUSH1 0x20 DUP1 DUP4 KECCAK256 SWAP2 SWAP1 SWAP2 ADD DUP1 SLOAD PUSH1 0x1 PUSH1 0x1 PUSH1 0xA0 SHL SUB NOT AND PUSH1 0x1 PUSH1 0x1 PUSH1 0xA0 SHL SUB SWAP5 SWAP1 SWAP5 AND SWAP4 SWAP1 SWAP4 OR SWAP1 SWAP3 SSTORE CALLER DUP2 MSTORE PUSH1 0x9 SWAP1 SWAP2 MSTORE PUSH1 0x40 SWAP1 KECCAK256 DUP1 SLOAD DUP1 PUSH2 0x103C JUMPI PUSH2 0x103C PUSH2 0x1E22 JUMP JUMPDEST CALLER PUSH1 0x0 SWAP1 DUP2 MSTORE PUSH1 0xA PUSH1 0x20 MSTORE PUSH1 0x40 SWAP1 KECCAK256 DUP1 SLOAD PUSH1 0x1 PUSH1 0xA0 SHL SWAP1 DIV PUSH1 0xFF AND ISZERO ISZERO PUSH1 0x1 EQ PUSH2 0x115E JUMPI PUSH1 0x40 MLOAD PUSH3 0x461BCD PUSH1 0xE5 SHL DUP2 MSTORE PUSH1 0x20 PUSH1 0x4 DUP3 ADD MSTORE PUSH1 0xA PUSH1 0x24 DUP3 ADD MSTORE PUSH10 0x6E6F7420616374697665 PUSH1 0xB0 SHL PUSH1 0x44 DUP3 ADD MSTORE PUSH1 0x64 ADD PUSH2 0x9CD JUMP JUMPDEST PUSH1 0x40 DUP1 MLOAD PUSH2 0x100 DUP2 ADD DUP3 MSTORE PUSH1 0x0 DUP2 MSTORE PUSH1 0x20 DUP2 ADD DUP6 SWAP1 MSTORE CALLER SWAP2 DUP2 ADD SWAP2 SWAP1 SWAP2 MSTORE TIMESTAMP PUSH1 0x60 DUP3 ADD MSTORE PUSH1 0x80 DUP2 ADD DUP4 SWAP1 MSTORE DUP2 SLOAD PUSH1 0xA0 DUP3 ADD SWAP1 PUSH1 0x1 PUSH1 0xA8 SHL SWAP1 DIV PUSH1 0xFF AND PUSH1 0x1 DUP2 GT ISZERO PUSH2 0x11AB JUMPI PUSH2 0x11AB PUSH2 0x1B94 JUMP JUMPDEST DUP2 MSTORE PUSH1 0x0 PUSH1 0x20 DUP1 DUP4 ADD DUP3 SWAP1 MSTORE PUSH1 0x40 SWAP3 DUP4 ADD DUP3 SWAP1 MSTORE PUSH1 0x1 PUSH1 0x1 PUSH1 0xA0 SHL SUB DUP1 DUP10 AND DUP4 MSTORE PUSH1 0xC DUP3 MSTORE SWAP2 DUP4 SWAP1 KECCAK256 DUP5 MLOAD DUP2 SLOAD SWAP1 ISZERO ISZERO PUSH1 0xFF NOT SWAP2 DUP3 AND OR DUP3 SSTORE SWAP2 DUP6 ADD MLOAD PUSH1 0x1 DUP3 DUP2 ADD SWAP2 SWAP1 SWAP2 SSTORE SWAP4 DUP6 ADD MLOAD PUSH1 0x2 DUP3 ADD DUP1 SLOAD SWAP2 SWAP1 SWAP5 AND PUSH1 0x1 PUSH1 0x1 PUSH1 0xA0 SHL SUB NOT SWAP1 SWAP2 AND OR SWAP1 SWAP3 SSTORE PUSH1 0x60 DUP5 ADD MLOAD PUSH1 0x3 DUP4 ADD SSTORE PUSH1 0x80 DUP5 ADD MLOAD PUSH1 0x4 DUP4 ADD SSTORE PUSH1 0xA0 DUP5 ADD MLOAD PUSH1 0x5 DUP4 ADD DUP1 SLOAD SWAP4 SWAP5 SWAP2 SWAP4 SWAP1 SWAP3 AND SWAP1 DUP4 DUP2 DUP2 GT ISZERO PUSH2 0x1247 JUMPI PUSH2 0x1247 PUSH2 0x1B94 JUMP JUMPDEST MUL OR SWAP1 SSTORE POP PUSH1 0xC0 DUP3 ADD MLOAD PUSH1 0x5 SWAP1 SWAP2 ADD DUP1 SLOAD PUSH1 0xE0 SWAP1 SWAP4 ADD MLOAD ISZERO ISZERO PUSH3 0x10000 MUL PUSH3 0xFF0000 NOT SWAP3 ISZERO ISZERO PUSH2 0x100 MUL SWAP3 SWAP1 SWAP3 AND PUSH3 0xFFFF00 NOT SWAP1 SWAP4 AND SWAP3 SWAP1 SWAP3 OR OR SWAP1 SSTORE CALLER PUSH1 0x0 SWAP1 DUP2 MSTORE PUSH1 0xA PUSH1 0x20 MSTORE PUSH1 0x40 DUP2 KECCAK256 PUSH1 0x1 ADD DUP1 SLOAD DUP6 SWAP3 SWAP1 PUSH2 0x12A6 SWAP1 DUP5 SWAP1 PUSH2 0x1E38 JUMP JUMPDEST SWAP1 SWAP2 SSTORE POP PUSH1 0x0 SWAP1 POP DUP2 SLOAD PUSH1 0x1 PUSH1 0xA8 SHL SWAP1 DIV PUSH1 0xFF AND PUSH1 0x1 DUP2 GT ISZERO PUSH2 0x12CB JUMPI PUSH2 0x12CB PUSH2 0x1B94 JUMP JUMPDEST SUB PUSH2 0x1382 JUMPI PUSH1 0x7 SLOAD PUSH1 0x40 MLOAD PUSH4 0x9D14B2B9 PUSH1 0xE0 SHL DUP2 MSTORE PUSH1 0x1 PUSH1 0x1 PUSH1 0xA0 SHL SUB DUP7 DUP2 AND PUSH1 0x4 DUP4 ADD MSTORE PUSH1 0x24 DUP3 ADD DUP7 SWAP1 MSTORE SWAP1 SWAP2 AND SWAP1 PUSH4 0x9D14B2B9 SWAP1 PUSH1 0x44 ADD PUSH1 0x0 PUSH1 0x40 MLOAD DUP1 DUP4 SUB DUP2 PUSH1 0x0 DUP8 DUP1 EXTCODESIZE ISZERO DUP1 ISZERO PUSH2 0x131E JUMPI PUSH1 0x0 DUP1 REVERT JUMPDEST POP GAS CALL ISZERO DUP1 ISZERO PUSH2 0x1332 JUMPI RETURNDATASIZE PUSH1 0x0 DUP1 RETURNDATACOPY RETURNDATASIZE PUSH1 0x0 REVERT JUMPDEST POP POP PUSH1 0xB DUP1 SLOAD PUSH1 0x1 DUP2 ADD DUP3 SSTORE PUSH1 0x0 SWAP2 SWAP1 SWAP2 MSTORE PUSH32 0x175B7A638427703F0DBE7BB9BBF987A2551717B34E79F33B5B1008D1FA01DB9 ADD DUP1 SLOAD PUSH1 0x1 PUSH1 0x1 PUSH1 0xA0 SHL SUB NOT AND PUSH1 0x1 PUSH1 0x1 PUSH1 0xA0 SHL SUB DUP9 AND OR SWAP1 SSTORE POP POP JUMPDEST POP POP POP POP JUMP JUMPDEST PUSH2 0x1392 ADDRESS DUP3 PUSH2 0x18BB JUMP JUMPDEST POP JUMP JUMPDEST PUSH1 0xB DUP2 DUP2 SLOAD DUP2 LT PUSH2 0xB36 JUMPI PUSH1 0x0 DUP1 REVERT JUMPDEST PUSH1 0x0 SLOAD PUSH1 0x1 PUSH1 0x1 PUSH1 0xA0 SHL SUB AND CALLER EQ PUSH2 0x13CF JUMPI PUSH1 0x40 MLOAD PUSH3 0x461BCD PUSH1 0xE5 SHL DUP2 MSTORE PUSH1 0x4 ADD PUSH2 0x9CD SWAP1 PUSH2 0x1DB4 JUMP JUMPDEST PUSH1 0x7 DUP1 SLOAD PUSH1 0x1 PUSH1 0x1 PUSH1 0xA0 SHL SUB NOT AND PUSH1 0x1 PUSH1 0x1 PUSH1 0xA0 SHL SUB SWAP3 SWAP1 SWAP3 AND SWAP2 SWAP1 SWAP2 OR SWAP1 SSTORE JUMP JUMPDEST PUSH1 0x0 SLOAD PUSH1 0x1 PUSH1 0x1 PUSH1 0xA0 SHL SUB AND CALLER EQ PUSH2 0x141B JUMPI PUSH1 0x40 MLOAD PUSH3 0x461BCD PUSH1 0xE5 SHL DUP2 MSTORE PUSH1 0x4 ADD PUSH2 0x9CD SWAP1 PUSH2 0x1DB4 JUMP JUMPDEST PUSH1 0x1 PUSH1 0x1 PUSH1 0xA0 SHL SUB DUP2 AND PUSH2 0x1480 JUMPI PUSH1 0x40 MLOAD PUSH3 0x461BCD PUSH1 0xE5 SHL DUP2 MSTORE PUSH1 0x20 PUSH1 0x4 DUP3 ADD MSTORE PUSH1 0x26 PUSH1 0x24 DUP3 ADD MSTORE PUSH32 0x4F776E61626C653A206E6577206F776E657220697320746865207A65726F2061 PUSH1 0x44 DUP3 ADD MSTORE PUSH6 0x646472657373 PUSH1 0xD0 SHL PUSH1 0x64 DUP3 ADD MSTORE PUSH1 0x84 ADD PUSH2 0x9CD JUMP JUMPDEST PUSH2 0x1392 DUP2 PUSH2 0x174C JUMP JUMPDEST PUSH1 0x0 SLOAD PUSH1 0x1 PUSH1 0x1 PUSH1 0xA0 SHL SUB AND CALLER EQ PUSH2 0x14B3 JUMPI PUSH1 0x40 MLOAD PUSH3 0x461BCD PUSH1 0xE5 SHL DUP2 MSTORE PUSH1 0x4 ADD PUSH2 0x9CD SWAP1 PUSH2 0x1DB4 JUMP JUMPDEST DUP1 PUSH1 0xFF AND PUSH1 0x0 SUB PUSH2 0x15E3 JUMPI DUP3 PUSH1 0xFF AND PUSH1 0x1 SUB PUSH2 0x15BC JUMPI PUSH1 0x40 DUP1 MLOAD PUSH1 0xA0 DUP2 ADD DUP3 MSTORE PUSH1 0x1 PUSH1 0x1 PUSH1 0xA0 SHL SUB DUP5 AND DUP2 MSTORE PUSH1 0x1 PUSH1 0x20 DUP3 ADD DUP2 SWAP1 MSTORE SWAP1 SWAP2 DUP3 ADD SWAP1 JUMPDEST DUP2 MSTORE PUSH1 0x20 ADD PUSH1 0x0 DUP2 MSTORE PUSH1 0x20 ADD PUSH1 0x0 PUSH1 0x1 DUP2 GT ISZERO PUSH2 0x150D JUMPI PUSH2 0x150D PUSH2 0x1B94 JUMP JUMPDEST SWAP1 MSTORE PUSH1 0x1 PUSH1 0x1 PUSH1 0xA0 SHL SUB DUP1 DUP5 AND PUSH1 0x0 SWAP1 DUP2 MSTORE PUSH1 0xA PUSH1 0x20 SWAP1 DUP2 MSTORE PUSH1 0x40 SWAP2 DUP3 SWAP1 KECCAK256 DUP5 MLOAD DUP2 SLOAD SWAP3 DUP7 ADD MLOAD ISZERO ISZERO PUSH1 0x1 PUSH1 0xA0 SHL MUL PUSH1 0x1 PUSH1 0x1 PUSH1 0xA8 SHL SUB NOT SWAP1 SWAP4 AND SWAP5 AND SWAP4 SWAP1 SWAP4 OR OR DUP1 DUP4 SSTORE SWAP1 DUP4 ADD MLOAD SWAP1 DUP3 SWAP1 PUSH1 0xFF PUSH1 0xA8 SHL NOT AND PUSH1 0x1 PUSH1 0xA8 SHL DUP4 PUSH1 0x1 DUP2 GT ISZERO PUSH2 0x1577 JUMPI PUSH2 0x1577 PUSH2 0x1B94 JUMP JUMPDEST MUL OR SWAP1 SSTORE POP PUSH1 0x60 DUP3 ADD MLOAD DUP2 PUSH1 0x1 ADD SSTORE PUSH1 0x80 DUP3 ADD MLOAD DUP2 PUSH1 0x2 ADD PUSH1 0x0 PUSH2 0x100 EXP DUP2 SLOAD DUP2 PUSH1 0xFF MUL NOT AND SWAP1 DUP4 PUSH1 0x1 DUP2 GT ISZERO PUSH2 0x15B0 JUMPI PUSH2 0x15B0 PUSH2 0x1B94 JUMP JUMPDEST MUL OR SWAP1 SSTORE POP POP POP POP POP POP JUMP JUMPDEST PUSH1 0x40 DUP1 MLOAD PUSH1 0xA0 DUP2 ADD DUP3 MSTORE PUSH1 0x1 PUSH1 0x1 PUSH1 0xA0 SHL SUB DUP5 AND DUP2 MSTORE PUSH1 0x1 PUSH1 0x20 DUP3 ADD MSTORE SWAP1 DUP2 ADD PUSH1 0x0 PUSH2 0x14EE JUMP JUMPDEST DUP3 PUSH1 0xFF AND PUSH1 0x0 SUB PUSH2 0x1623 JUMPI PUSH1 0x40 DUP1 MLOAD PUSH1 0xA0 DUP2 ADD DUP3 MSTORE PUSH1 0x1 PUSH1 0x1 PUSH1 0xA0 SHL SUB DUP5 AND DUP2 MSTORE PUSH1 0x1 PUSH1 0x20 DUP3 ADD MSTORE SWAP1 DUP2 ADD PUSH1 0x0 DUP2 MSTORE PUSH1 0x0 PUSH1 0x20 DUP3 ADD MSTORE PUSH1 0x40 ADD PUSH1 0x1 PUSH2 0x150D JUMP JUMPDEST PUSH1 0x40 DUP1 MLOAD PUSH1 0xA0 DUP2 ADD DUP3 MSTORE PUSH1 0x1 PUSH1 0x1 PUSH1 0xA0 SHL SUB DUP5 AND DUP2 MSTORE PUSH1 0x1 PUSH1 0x20 DUP3 ADD DUP2 SWAP1 MSTORE SWAP1 SWAP2 DUP3 ADD SWAP1 DUP2 MSTORE PUSH1 0x0 PUSH1 0x20 DUP3 ADD MSTORE PUSH1 0x40 ADD PUSH1 0x1 SWAP1 MSTORE PUSH1 0x1 PUSH1 0x1 PUSH1 0xA0 SHL SUB DUP1 DUP5 AND PUSH1 0x0 SWAP1 DUP2 MSTORE PUSH1 0xA PUSH1 0x20 SWAP1 DUP2 MSTORE PUSH1 0x40 SWAP2 DUP3 SWAP1 KECCAK256 DUP5 MLOAD DUP2 SLOAD SWAP3 DUP7 ADD MLOAD ISZERO ISZERO PUSH1 0x1 PUSH1 0xA0 SHL MUL PUSH1 0x1 PUSH1 0x1 PUSH1 0xA8 SHL SUB NOT SWAP1 SWAP4 AND SWAP5 AND SWAP4 SWAP1 SWAP4 OR OR DUP1 DUP4 SSTORE SWAP1 DUP4 ADD MLOAD SWAP1 DUP3 SWAP1 PUSH1 0xFF PUSH1 0xA8 SHL NOT AND PUSH1 0x1 PUSH1 0xA8 SHL DUP4 PUSH1 0x1 DUP2 GT ISZERO PUSH2 0x1577 JUMPI PUSH2 0x1577 PUSH2 0x1B94 JUMP JUMPDEST PUSH2 0xE36 DUP3 DUP3 PUSH2 0x1906 JUMP JUMPDEST PUSH1 0x1 PUSH1 0x1 PUSH1 0xA0 SHL SUB DUP2 AND PUSH1 0x0 SWAP1 DUP2 MSTORE PUSH1 0xE PUSH1 0x20 SWAP1 DUP2 MSTORE PUSH1 0x40 DUP1 DUP4 KECCAK256 PUSH1 0xC SWAP1 SWAP3 MSTORE DUP3 KECCAK256 PUSH1 0x1 PUSH1 0x5 DUP3 ADD SLOAD PUSH1 0xFF AND PUSH1 0x1 DUP2 GT ISZERO PUSH2 0x1706 JUMPI PUSH2 0x1706 PUSH2 0x1B94 JUMP JUMPDEST EQ PUSH2 0x1710 JUMPI PUSH1 0x0 DUP1 REVERT JUMPDEST PUSH1 0x1 DUP1 DUP4 ADD SLOAD SWAP1 DUP3 ADD SLOAD PUSH1 0x0 SWAP1 PUSH2 0x172B SWAP1 PUSH3 0x278D00 SWAP1 PUSH2 0x1DE9 JUMP JUMPDEST SWAP1 POP DUP1 PUSH2 0x1738 DUP4 TIMESTAMP PUSH2 0x1E0B JUMP JUMPDEST PUSH2 0x1742 SWAP2 SWAP1 PUSH2 0x1E50 JUMP JUMPDEST SWAP7 SWAP6 POP POP POP POP POP POP JUMP JUMPDEST PUSH1 0x0 DUP1 SLOAD PUSH1 0x1 PUSH1 0x1 PUSH1 0xA0 SHL SUB DUP4 DUP2 AND PUSH1 0x1 PUSH1 0x1 PUSH1 0xA0 SHL SUB NOT DUP4 AND DUP2 OR DUP5 SSTORE PUSH1 0x40 MLOAD SWAP2 SWAP1 SWAP3 AND SWAP3 DUP4 SWAP2 PUSH32 0x8BE0079C531659141344CD1FD0A4F28419497F9722A3DAAFE3B4186F6B6457E0 SWAP2 SWAP1 LOG3 POP POP JUMP JUMPDEST PUSH1 0x1 PUSH1 0x1 PUSH1 0xA0 SHL SUB DUP3 AND ADDRESS EQ DUP1 PUSH2 0x17BA JUMPI POP PUSH1 0x1 PUSH1 0x1 PUSH1 0xA0 SHL SUB DUP3 AND ISZERO JUMPDEST ISZERO PUSH2 0x17C3 JUMPI POP POP JUMP JUMPDEST PUSH1 0x3 SLOAD PUSH1 0x2 SLOAD PUSH1 0x4 SLOAD PUSH1 0x1 PUSH1 0x1 PUSH1 0xA0 SHL SUB SWAP3 DUP4 AND SWAP3 PUSH4 0x39255D5B SWAP3 DUP2 AND SWAP2 PUSH4 0x317E182F PUSH1 0xE1 SHL SWAP2 AND DUP7 DUP7 PUSH1 0x0 JUMPDEST PUSH1 0x40 MLOAD SWAP1 DUP1 DUP3 MSTORE DUP1 PUSH1 0x1F ADD PUSH1 0x1F NOT AND PUSH1 0x20 ADD DUP3 ADD PUSH1 0x40 MSTORE DUP1 ISZERO PUSH2 0x181A JUMPI PUSH1 0x20 DUP3 ADD DUP2 DUP1 CALLDATASIZE DUP4 CALLDATACOPY ADD SWAP1 POP JUMPDEST POP PUSH1 0x40 MLOAD PUSH1 0x24 ADD PUSH2 0x182E SWAP5 SWAP4 SWAP3 SWAP2 SWAP1 PUSH2 0x1E9B JUMP JUMPDEST PUSH1 0x40 DUP1 MLOAD PUSH1 0x1F NOT DUP2 DUP5 SUB ADD DUP2 MSTORE SWAP2 DUP2 MSTORE PUSH1 0x20 DUP3 ADD DUP1 MLOAD PUSH1 0x1 PUSH1 0x1 PUSH1 0xE0 SHL SUB AND PUSH1 0x1 PUSH1 0x1 PUSH1 0xE0 SHL SUB NOT SWAP5 DUP6 AND OR SWAP1 MSTORE MLOAD PUSH1 0xE0 DUP6 SWAP1 SHL SWAP1 SWAP3 AND DUP3 MSTORE PUSH2 0x1874 SWAP3 SWAP2 PUSH1 0x4 ADD PUSH2 0x1ED1 JUMP JUMPDEST PUSH1 0x0 PUSH1 0x40 MLOAD DUP1 DUP4 SUB DUP2 PUSH1 0x0 DUP8 GAS CALL ISZERO DUP1 ISZERO PUSH2 0x1893 JUMPI RETURNDATASIZE PUSH1 0x0 DUP1 RETURNDATACOPY RETURNDATASIZE PUSH1 0x0 REVERT JUMPDEST POP POP POP POP PUSH1 0x40 MLOAD RETURNDATASIZE PUSH1 0x0 DUP3 RETURNDATACOPY PUSH1 0x1F RETURNDATASIZE SWAP1 DUP2 ADD PUSH1 0x1F NOT AND DUP3 ADD PUSH1 0x40 MSTORE PUSH2 0xDEF SWAP2 SWAP1 DUP2 ADD SWAP1 PUSH2 0x1F18 JUMP JUMPDEST PUSH1 0x3 SLOAD PUSH1 0x2 SLOAD PUSH1 0x4 SLOAD PUSH1 0x40 DUP1 MLOAD PUSH1 0x0 DUP2 MSTORE PUSH1 0x20 DUP2 ADD SWAP1 SWAP2 MSTORE PUSH1 0x1 PUSH1 0x1 PUSH1 0xA0 SHL SUB SWAP4 DUP5 AND SWAP4 PUSH4 0x39255D5B SWAP4 DUP2 AND SWAP3 PUSH4 0x5A5999E3 PUSH1 0xE1 SHL SWAP3 PUSH2 0x182E SWAP3 SWAP1 SWAP2 AND SWAP1 DUP9 SWAP1 DUP9 SWAP1 PUSH1 0x44 DUP2 ADD PUSH2 0x1F8F JUMP JUMPDEST PUSH1 0x1 PUSH1 0x1 PUSH1 0xA0 SHL SUB DUP3 AND ADDRESS EQ DUP1 PUSH2 0x1924 JUMPI POP PUSH1 0x1 PUSH1 0x1 PUSH1 0xA0 SHL SUB DUP3 AND ISZERO JUMPDEST ISZERO PUSH2 0x192D JUMPI POP POP JUMP JUMPDEST PUSH1 0x3 SLOAD PUSH1 0x2 SLOAD PUSH1 0x4 SLOAD PUSH1 0x1 PUSH1 0x1 PUSH1 0xA0 SHL SUB SWAP3 DUP4 AND SWAP3 PUSH4 0x39255D5B SWAP3 DUP2 AND SWAP2 PUSH4 0x28104D31 PUSH1 0xE1 SHL SWAP2 AND DUP7 DUP7 PUSH1 0x0 PUSH2 0x17F0 JUMP JUMPDEST PUSH4 0x4E487B71 PUSH1 0xE0 SHL PUSH1 0x0 MSTORE PUSH1 0x41 PUSH1 0x4 MSTORE PUSH1 0x24 PUSH1 0x0 REVERT JUMPDEST PUSH1 0x40 MLOAD PUSH1 0x1F DUP3 ADD PUSH1 0x1F NOT AND DUP2 ADD PUSH8 0xFFFFFFFFFFFFFFFF DUP2 GT DUP3 DUP3 LT OR ISZERO PUSH2 0x199D JUMPI PUSH2 0x199D PUSH2 0x195E JUMP JUMPDEST PUSH1 0x40 MSTORE SWAP2 SWAP1 POP JUMP JUMPDEST PUSH1 0x0 PUSH8 0xFFFFFFFFFFFFFFFF DUP3 GT ISZERO PUSH2 0x19BF JUMPI PUSH2 0x19BF PUSH2 0x195E JUMP JUMPDEST POP PUSH1 0x1F ADD PUSH1 0x1F NOT AND PUSH1 0x20 ADD SWAP1 JUMP JUMPDEST PUSH1 0x0 DUP3 PUSH1 0x1F DUP4 ADD SLT PUSH2 0x19DE JUMPI PUSH1 0x0 DUP1 REVERT JUMPDEST DUP2 CALLDATALOAD PUSH2 0x19F1 PUSH2 0x19EC DUP3 PUSH2 0x19A5 JUMP JUMPDEST PUSH2 0x1974 JUMP JUMPDEST DUP2 DUP2 MSTORE DUP5 PUSH1 0x20 DUP4 DUP7 ADD ADD GT ISZERO PUSH2 0x1A06 JUMPI PUSH1 0x0 DUP1 REVERT JUMPDEST DUP2 PUSH1 0x20 DUP6 ADD PUSH1 0x20 DUP4 ADD CALLDATACOPY PUSH1 0x0 SWAP2 DUP2 ADD PUSH1 0x20 ADD SWAP2 SWAP1 SWAP2 MSTORE SWAP4 SWAP3 POP POP POP JUMP JUMPDEST PUSH1 0x0 PUSH1 0x20 DUP3 DUP5 SUB SLT ISZERO PUSH2 0x1A35 JUMPI PUSH1 0x0 DUP1 REVERT JUMPDEST DUP2 CALLDATALOAD PUSH8 0xFFFFFFFFFFFFFFFF DUP2 GT ISZERO PUSH2 0x1A4C JUMPI PUSH1 0x0 DUP1 REVERT JUMPDEST PUSH2 0x1A58 DUP5 DUP3 DUP6 ADD PUSH2 0x19CD JUMP JUMPDEST SWAP5 SWAP4 POP POP POP POP JUMP JUMPDEST DUP1 CALLDATALOAD PUSH1 0x1 PUSH1 0x1 PUSH1 0xA0 SHL SUB DUP2 AND DUP2 EQ PUSH2 0x1A77 JUMPI PUSH1 0x0 DUP1 REVERT JUMPDEST SWAP2 SWAP1 POP JUMP JUMPDEST PUSH1 0x0 PUSH1 0x20 DUP3 DUP5 SUB SLT ISZERO PUSH2 0x1A8E JUMPI PUSH1 0x0 DUP1 REVERT JUMPDEST PUSH2 0xB1F DUP3 PUSH2 0x1A60 JUMP JUMPDEST PUSH1 0x0 DUP1 PUSH1 0x40 DUP4 DUP6 SUB SLT ISZERO PUSH2 0x1AAA JUMPI PUSH1 0x0 DUP1 REVERT JUMPDEST PUSH2 0x1AB3 DUP4 PUSH2 0x1A60 JUMP JUMPDEST SWAP2 POP PUSH2 0x1AC1 PUSH1 0x20 DUP5 ADD PUSH2 0x1A60 JUMP JUMPDEST SWAP1 POP SWAP3 POP SWAP3 SWAP1 POP JUMP JUMPDEST PUSH1 0x0 DUP1 PUSH1 0x0 PUSH1 0x60 DUP5 DUP7 SUB SLT ISZERO PUSH2 0x1ADF JUMPI PUSH1 0x0 DUP1 REVERT JUMPDEST DUP4 CALLDATALOAD PUSH1 0x1 PUSH1 0x1 PUSH1 0x80 SHL SUB DUP2 AND DUP2 EQ PUSH2 0x1AF6 JUMPI PUSH1 0x0 DUP1 REVERT JUMPDEST SWAP3 POP PUSH1 0x20 DUP5 ADD CALLDATALOAD SWAP2 POP PUSH1 0x40 DUP5 ADD CALLDATALOAD PUSH8 0xFFFFFFFFFFFFFFFF DUP2 GT ISZERO PUSH2 0x1B19 JUMPI PUSH1 0x0 DUP1 REVERT JUMPDEST PUSH2 0x1B25 DUP7 DUP3 DUP8 ADD PUSH2 0x19CD JUMP JUMPDEST SWAP2 POP POP SWAP3 POP SWAP3 POP SWAP3 JUMP JUMPDEST PUSH1 0x0 PUSH1 0x20 DUP3 DUP5 SUB SLT ISZERO PUSH2 0x1B41 JUMPI PUSH1 0x0 DUP1 REVERT JUMPDEST POP CALLDATALOAD SWAP2 SWAP1 POP JUMP JUMPDEST PUSH1 0x0 DUP1 PUSH1 0x40 DUP4 DUP6 SUB SLT ISZERO PUSH2 0x1B5B JUMPI PUSH1 0x0 DUP1 REVERT JUMPDEST POP POP DUP1 CALLDATALOAD SWAP3 PUSH1 0x20 SWAP1 SWAP2 ADD CALLDATALOAD SWAP2 POP JUMP JUMPDEST PUSH1 0x0 DUP1 PUSH1 0x40 DUP4 DUP6 SUB SLT ISZERO PUSH2 0x1B7D JUMPI PUSH1 0x0 DUP1 REVERT JUMPDEST PUSH2 0x1B86 DUP4 PUSH2 0x1A60 JUMP JUMPDEST SWAP5 PUSH1 0x20 SWAP4 SWAP1 SWAP4 ADD CALLDATALOAD SWAP4 POP POP POP JUMP JUMPDEST PUSH4 0x4E487B71 PUSH1 0xE0 SHL PUSH1 0x0 MSTORE PUSH1 0x21 PUSH1 0x4 MSTORE PUSH1 0x24 PUSH1 0x0 REVERT JUMPDEST PUSH1 0x2 DUP2 LT PUSH2 0x1392 JUMPI PUSH4 0x4E487B71 PUSH1 0xE0 SHL PUSH1 0x0 MSTORE PUSH1 0x21 PUSH1 0x4 MSTORE PUSH1 0x24 PUSH1 0x0 REVERT JUMPDEST PUSH1 0x1 PUSH1 0x1 PUSH1 0xA0 SHL SUB DUP6 AND DUP2 MSTORE DUP4 ISZERO ISZERO PUSH1 0x20 DUP3 ADD MSTORE PUSH1 0x80 DUP2 ADD PUSH2 0x1BE9 DUP5 PUSH2 0x1BAA JUMP JUMPDEST PUSH1 0x40 DUP3 ADD SWAP4 SWAP1 SWAP4 MSTORE PUSH1 0x60 ADD MSTORE SWAP3 SWAP2 POP POP JUMP JUMPDEST PUSH1 0x0 DUP1 PUSH1 0x40 DUP4 DUP6 SUB SLT ISZERO PUSH2 0x1C0E JUMPI PUSH1 0x0 DUP1 REVERT JUMPDEST PUSH2 0x1C17 DUP4 PUSH2 0x1A60 JUMP JUMPDEST SWAP2 POP PUSH1 0x20 DUP4 ADD CALLDATALOAD DUP1 PUSH1 0xB SIGNEXTEND DUP2 EQ PUSH2 0x1C2D JUMPI PUSH1 0x0 DUP1 REVERT JUMPDEST DUP1 SWAP2 POP POP SWAP3 POP SWAP3 SWAP1 POP JUMP JUMPDEST PUSH1 0x0 DUP1 PUSH1 0x0 PUSH1 0x60 DUP5 DUP7 SUB SLT ISZERO PUSH2 0x1C4D JUMPI PUSH1 0x0 DUP1 REVERT JUMPDEST PUSH2 0x1C56 DUP5 PUSH2 0x1A60 JUMP JUMPDEST SWAP6 PUSH1 0x20 DUP6 ADD CALLDATALOAD SWAP6 POP PUSH1 0x40 SWAP1 SWAP5 ADD CALLDATALOAD SWAP4 SWAP3 POP POP POP JUMP JUMPDEST PUSH1 0x1 PUSH1 0x1 PUSH1 0xA0 SHL SUB DUP7 AND DUP2 MSTORE DUP5 ISZERO ISZERO PUSH1 0x20 DUP3 ADD MSTORE PUSH1 0xA0 DUP2 ADD PUSH2 0x1C8C DUP6 PUSH2 0x1BAA JUMP JUMPDEST DUP5 PUSH1 0x40 DUP4 ADD MSTORE DUP4 PUSH1 0x60 DUP4 ADD MSTORE PUSH2 0x1CA1 DUP4 PUSH2 0x1BAA JUMP JUMPDEST DUP3 PUSH1 0x80 DUP4 ADD MSTORE SWAP7 SWAP6 POP POP POP POP POP POP JUMP JUMPDEST DUP1 CALLDATALOAD PUSH1 0xFF DUP2 AND DUP2 EQ PUSH2 0x1A77 JUMPI PUSH1 0x0 DUP1 REVERT JUMPDEST PUSH1 0x0 DUP1 PUSH1 0x0 PUSH1 0x60 DUP5 DUP7 SUB SLT ISZERO PUSH2 0x1CD7 JUMPI PUSH1 0x0 DUP1 REVERT JUMPDEST PUSH2 0x1CE0 DUP5 PUSH2 0x1CB1 JUMP JUMPDEST SWAP3 POP PUSH2 0x1CEE PUSH1 0x20 DUP6 ADD PUSH2 0x1A60 JUMP JUMPDEST SWAP2 POP PUSH2 0x1CFC PUSH1 0x40 DUP6 ADD PUSH2 0x1CB1 JUMP JUMPDEST SWAP1 POP SWAP3 POP SWAP3 POP SWAP3 JUMP JUMPDEST PUSH4 0x4E487B71 PUSH1 0xE0 SHL PUSH1 0x0 MSTORE PUSH1 0x32 PUSH1 0x4 MSTORE PUSH1 0x24 PUSH1 0x0 REVERT JUMPDEST PUSH4 0x4E487B71 PUSH1 0xE0 SHL PUSH1 0x0 MSTORE PUSH1 0x11 PUSH1 0x4 MSTORE PUSH1 0x24 PUSH1 0x0 REVERT JUMPDEST PUSH1 0x0 PUSH1 0x1 DUP3 ADD PUSH2 0x1D43 JUMPI PUSH2 0x1D43 PUSH2 0x1D1B JUMP JUMPDEST POP PUSH1 0x1 ADD SWAP1 JUMP JUMPDEST PUSH1 0x0 PUSH1 0x20 DUP3 DUP5 SUB SLT ISZERO PUSH2 0x1D5C JUMPI PUSH1 0x0 DUP1 REVERT JUMPDEST DUP2 MLOAD DUP1 ISZERO ISZERO DUP2 EQ PUSH2 0xB1F JUMPI PUSH1 0x0 DUP1 REVERT JUMPDEST PUSH1 0x0 JUMPDEST DUP4 DUP2 LT ISZERO PUSH2 0x1D87 JUMPI DUP2 DUP2 ADD MLOAD DUP4 DUP3 ADD MSTORE PUSH1 0x20 ADD PUSH2 0x1D6F JUMP JUMPDEST DUP4 DUP2 GT ISZERO PUSH2 0x1382 JUMPI POP POP PUSH1 0x0 SWAP2 ADD MSTORE JUMP JUMPDEST PUSH1 0x0 DUP3 MLOAD PUSH2 0x1DAA DUP2 DUP5 PUSH1 0x20 DUP8 ADD PUSH2 0x1D6C JUMP JUMPDEST SWAP2 SWAP1 SWAP2 ADD SWAP3 SWAP2 POP POP JUMP JUMPDEST PUSH1 0x20 DUP1 DUP3 MSTORE DUP2 DUP2 ADD MSTORE PUSH32 0x4F776E61626C653A2063616C6C6572206973206E6F7420746865206F776E6572 PUSH1 0x40 DUP3 ADD MSTORE PUSH1 0x60 ADD SWAP1 JUMP JUMPDEST PUSH1 0x0 DUP3 PUSH2 0x1E06 JUMPI PUSH4 0x4E487B71 PUSH1 0xE0 SHL PUSH1 0x0 MSTORE PUSH1 0x12 PUSH1 0x4 MSTORE PUSH1 0x24 PUSH1 0x0 REVERT JUMPDEST POP DIV SWAP1 JUMP JUMPDEST PUSH1 0x0 DUP3 DUP3 LT ISZERO PUSH2 0x1E1D JUMPI PUSH2 0x1E1D PUSH2 0x1D1B JUMP JUMPDEST POP SUB SWAP1 JUMP JUMPDEST PUSH4 0x4E487B71 PUSH1 0xE0 SHL PUSH1 0x0 MSTORE PUSH1 0x31 PUSH1 0x4 MSTORE PUSH1 0x24 PUSH1 0x0 REVERT JUMPDEST PUSH1 0x0 DUP3 NOT DUP3 GT ISZERO PUSH2 0x1E4B JUMPI PUSH2 0x1E4B PUSH2 0x1D1B JUMP JUMPDEST POP ADD SWAP1 JUMP JUMPDEST PUSH1 0x0 DUP2 PUSH1 0x0 NOT DIV DUP4 GT DUP3 ISZERO ISZERO AND ISZERO PUSH2 0x1E6A JUMPI PUSH2 0x1E6A PUSH2 0x1D1B JUMP JUMPDEST POP MUL SWAP1 JUMP JUMPDEST PUSH1 0x0 DUP2 MLOAD DUP1 DUP5 MSTORE PUSH2 0x1E87 DUP2 PUSH1 0x20 DUP7 ADD PUSH1 0x20 DUP7 ADD PUSH2 0x1D6C JUMP JUMPDEST PUSH1 0x1F ADD PUSH1 0x1F NOT AND SWAP3 SWAP1 SWAP3 ADD PUSH1 0x20 ADD SWAP3 SWAP2 POP POP JUMP JUMPDEST PUSH1 0x1 PUSH1 0x1 PUSH1 0xA0 SHL SUB DUP6 DUP2 AND DUP3 MSTORE DUP5 AND PUSH1 0x20 DUP3 ADD MSTORE PUSH1 0xB DUP4 SWAP1 SIGNEXTEND PUSH1 0x40 DUP3 ADD MSTORE PUSH1 0x80 PUSH1 0x60 DUP3 ADD DUP2 SWAP1 MSTORE PUSH1 0x0 SWAP1 PUSH2 0x1742 SWAP1 DUP4 ADD DUP5 PUSH2 0x1E6F JUMP JUMPDEST PUSH1 0x1 PUSH1 0x1 PUSH1 0xA0 SHL SUB DUP4 AND DUP2 MSTORE PUSH1 0x60 PUSH1 0x20 DUP3 ADD DUP2 SWAP1 MSTORE PUSH1 0x0 SWAP1 PUSH2 0x1EF5 SWAP1 DUP4 ADD DUP5 PUSH2 0x1E6F JUMP JUMPDEST DUP3 DUP2 SUB PUSH1 0x40 SWAP4 DUP5 ADD MSTORE PUSH1 0x2 DUP2 MSTORE PUSH2 0x60F PUSH1 0xF3 SHL PUSH1 0x20 DUP3 ADD MSTORE SWAP2 SWAP1 SWAP2 ADD SWAP4 SWAP3 POP POP POP JUMP JUMPDEST PUSH1 0x0 PUSH1 0x20 DUP3 DUP5 SUB SLT ISZERO PUSH2 0x1F2A JUMPI PUSH1 0x0 DUP1 REVERT JUMPDEST DUP2 MLOAD PUSH8 0xFFFFFFFFFFFFFFFF DUP2 GT ISZERO PUSH2 0x1F41 JUMPI PUSH1 0x0 DUP1 REVERT JUMPDEST DUP3 ADD PUSH1 0x1F DUP2 ADD DUP5 SGT PUSH2 0x1F52 JUMPI PUSH1 0x0 DUP1 REVERT JUMPDEST DUP1 MLOAD PUSH2 0x1F60 PUSH2 0x19EC DUP3 PUSH2 0x19A5 JUMP JUMPDEST DUP2 DUP2 MSTORE DUP6 PUSH1 0x20 DUP4 DUP6 ADD ADD GT ISZERO PUSH2 0x1F75 JUMPI PUSH1 0x0 DUP1 REVERT JUMPDEST PUSH2 0x1F86 DUP3 PUSH1 0x20 DUP4 ADD PUSH1 0x20 DUP7 ADD PUSH2 0x1D6C JUMP JUMPDEST SWAP6 SWAP5 POP POP POP POP POP JUMP JUMPDEST PUSH1 0x1 PUSH1 0x1 PUSH1 0xA0 SHL SUB DUP6 DUP2 AND DUP3 MSTORE DUP5 DUP2 AND PUSH1 0x20 DUP4 ADD MSTORE DUP4 AND PUSH1 0x40 DUP3 ADD MSTORE PUSH1 0x80 PUSH1 0x60 DUP3 ADD DUP2 SWAP1 MSTORE PUSH1 0x0 SWAP1 PUSH2 0x1742 SWAP1 DUP4 ADD DUP5 PUSH2 0x1E6F JUMP INVALID LOG2 PUSH5 0x6970667358 0x22 SLT KECCAK256 CREATE 0xFC GT 0xAA 0xB4 LOG4 SWAP5 MUL 0xB8 STOP 0xAD LT DUP11 0xCD 0xC8 NOT PUSH24 0x96CA7C443215E04426BDD2B56F7CE664736F6C634300080D STOP CALLER ",
  "sha1": "8ed705b2ab23adea6866ff924fad2d364d6abe70",
  "source": "// SPDX-License-Identifier: MIT\npragma solidity ^0.8.0;\n\nimport {IConstantFlowAgreementV1} from \"@superfluid/interfaces/agreements/IConstantFlowAgreementV1.sol\";\nimport {ISuperTokenFactory} from \"@superfluid/interfaces/superfluid/ISuperTokenFactory.sol\";\nimport {ISuperfluid, ISuperToken, ISuperApp, ISuperAgreement, SuperAppDefinitions} from \"@superfluid/interfaces/superfluid/ISuperfluid.sol\";\nimport {Ownable} from \"@openzeppelin/contracts/access/Ownable.sol\";\nimport {IPoolAddressesProvider} from \"../interfaces/IPoolAddressesProvider.sol\";\nimport {IPool} from \"../interfaces/IPool.sol\";\nimport {IStreamMarket} from \"../interfaces/IStreamMarket.sol\";\nimport {ITrustIDA} from \"../interfaces/ITrustIDA.sol\";\n\nimport {IERC20} from \"@openzeppelin/contracts/token/ERC20/IERC20.sol\";\n\ncontract TrustCFA is Ownable {\n    IStreamMarket private market;\n    IConstantFlowAgreementV1 private _cfa;\n    ISuperfluid private _host;\n    ISuperToken private _acceptedToken;\n    IPoolAddressesProvider private provider =\n        IPoolAddressesProvider(\n            address(0x5343b5bA672Ae99d627A1C87866b8E53F47Db2E6)\n        );\n    IPool private lendingPool = IPool(provider.getPool());\n    ITrustIDA idaContract;\n\n    //assets to invest\n    mapping(string => address) public s_assetAddress;\n\n    enum PAYTYPE {\n        INSTALLMENTS,\n        STREAM\n    }\n\n    enum ORIGIN {\n        NATIVE,\n        FIAT\n    }\n\n    struct Company {\n        address _address;\n        bool status;\n        PAYTYPE paymentType;\n        uint256 totalPaying;\n        ORIGIN origin;\n    }\n\n    mapping(address => address[]) public s_companyEmployees;\n\n    mapping(address => Company) public s_companyInfo;\n\n    struct EmployeeInfo {\n        bool isActive;\n        uint256 monthlyIncome;\n        address employer;\n        uint256 startTime;\n        uint256 paymentInterval;\n        PAYTYPE paymentType;\n        bool isInvesting;\n        bool hasLoan;\n    }\n    address[] public periodicEmployees;\n\n    mapping(address => EmployeeInfo) private s_employeeinfo;\n\n    struct InvestmentInfo {\n        bool isActive;\n        uint256 startTime;\n        uint128 percentage;\n        uint256 frequency;\n        uint256 amountAccumunated;\n        address asset;\n    }\n\n    address private investmentKeeper;\n\n    mapping(address => InvestmentInfo) private s_addressInvestment;\n\n    address[] public s_investingAddresses; //active addresses\n\n    struct Loan {\n        address employee;\n        uint256 startTime;\n        uint256 amount;\n        uint256 endTime;\n    }\n\n    uint256 public loans;\n    mapping(uint256 => Loan) public s_loanpositions;\n\n    mapping(address => uint256) private s_accumulated;\n\n    modifier onlyAdmin() {\n        require(msg.sender == owner());\n        _;\n    }\n\n    modifier onlyInvestmentKeeper() {\n        require(msg.sender == investmentKeeper);\n        _;\n    }\n\n    constructor(address host, address cfa) {\n        _host = ISuperfluid(host);\n        _cfa = IConstantFlowAgreementV1(cfa);\n    }\n\n    /**\n     * @notice add a compny to the platform\n     * @dev only callable by the contract admin\n     * @param _payType: the type of payment the company gives ie. Installments or stream\n     * @param _companyAddress: the address of the company\n     */\n    function _createCompany(\n        uint8 _payType,\n        address _companyAddress,\n        uint8 _origin\n    ) external onlyOwner {\n        if (_origin == 0) {\n            if (_payType == 1) {\n                s_companyInfo[_companyAddress] = Company(\n                    _companyAddress,\n                    true,\n                    PAYTYPE.STREAM,\n                    0,\n                    ORIGIN.NATIVE\n                );\n            } else {\n                s_companyInfo[_companyAddress] = Company(\n                    _companyAddress,\n                    true,\n                    PAYTYPE.INSTALLMENTS,\n                    0,\n                    ORIGIN.NATIVE\n                );\n            }\n        } else {\n            if (_payType == 0) {\n                s_companyInfo[_companyAddress] = Company(\n                    _companyAddress,\n                    true,\n                    PAYTYPE.INSTALLMENTS,\n                    0,\n                    ORIGIN.FIAT\n                );\n            } else {\n                s_companyInfo[_companyAddress] = Company(\n                    _companyAddress,\n                    true,\n                    PAYTYPE.STREAM,\n                    0,\n                    ORIGIN.FIAT\n                );\n            }\n        }\n    }\n\n    /**\n     * @notice add an employer to the platform\n     * @dev only callable by an active employer\n     * @param _employeeAddress: address of the employer\n     * @param _salary: the employee salary\n     * @param _paymentInterval: the interval to which the employee receives the pay\n     */\n    function _addemployee(\n        address _employeeAddress,\n        uint256 _salary,\n        uint256 _paymentInterval\n    ) external {\n        Company storage company = s_companyInfo[msg.sender];\n        require(company.status == true, \"not active\");\n        s_employeeinfo[_employeeAddress] = EmployeeInfo(\n            false,\n            _salary,\n            msg.sender,\n            block.timestamp,\n            _paymentInterval,\n            company.paymentType,\n            false,\n            false\n        );\n        s_companyInfo[msg.sender].totalPaying += _salary;\n        //if (company.paymentType == PAYTYPE.STREAM) {\n        //    //ascertain that the mployer has paid\n        //    //create flow to the employee\n        //}\n        if (company.paymentType == PAYTYPE.INSTALLMENTS) {\n            idaContract._addAddressToIndex(_employeeAddress, _salary);\n            periodicEmployees.push(_employeeAddress);\n        }\n    }\n\n    function getEmployeeIndex(address _employee)\n        public\n        view\n        returns (uint256 index)\n    {\n        uint256 size = getTotalCompanyEmployees(msg.sender);\n        for (uint256 i = 0; i > size; i++) {\n            if (s_companyEmployees[msg.sender][i] == _employee) {\n                index = i;\n            }\n        }\n    }\n\n    function removeEmployee(address _employee) external {\n        require(msg.sender == s_employeeinfo[_employee].employer);\n        uint256 indexToremove = getEmployeeIndex(_employee);\n        uint256 size = getTotalCompanyEmployees(msg.sender) - 1;\n        s_employeeinfo[_employee] = EmployeeInfo(\n            false,\n            0,\n            address(0),\n            0,\n            0,\n            PAYTYPE.INSTALLMENTS,\n            false,\n            false\n        );\n        if (s_companyInfo[msg.sender].paymentType == PAYTYPE.INSTALLMENTS) {\n            //remove employee from IDA\n            idaContract.removeAddress(_employee);\n        }\n        if (indexToremove == size) {\n            s_companyEmployees[msg.sender].pop();\n        } else {\n            s_companyEmployees[msg.sender][indexToremove] = s_companyEmployees[\n                msg.sender\n            ][size];\n            s_companyEmployees[msg.sender].pop();\n        }\n    }\n\n    function createIvestmentPosition(\n        uint128 _percentage,\n        uint256 _frequency,\n        string memory _asset\n    ) external {\n        EmployeeInfo storage employee = s_employeeinfo[msg.sender];\n        require(employee.paymentType == PAYTYPE.STREAM, \"not eligible\");\n        s_addressInvestment[msg.sender] = InvestmentInfo(\n            true,\n            block.timestamp,\n            _percentage,\n            _frequency,\n            0,\n            s_assetAddress[_asset]\n        );\n        s_investingAddresses.push(msg.sender);\n    }\n\n    function stopInvestmentPosition() external {\n        EmployeeInfo storage employee = s_employeeinfo[msg.sender];\n        require(employee.isActive == true, \"not investing\");\n        s_addressInvestment[msg.sender] = InvestmentInfo(\n            false,\n            block.timestamp,\n            0,\n            0,\n            0,\n            address(0)\n        );\n    }\n\n    function makeInvestmentDeposit(address recepient, address token)\n        external\n        onlyInvestmentKeeper\n    {\n        InvestmentInfo storage investment = s_addressInvestment[recepient];\n        s_accumulated[recepient] = _totalAccumulated(recepient);\n        uint256 amount = s_accumulated[recepient];\n        IERC20(token).approve(address(lendingPool), amount);\n        lendingPool.deposit(token, amount, recepient, 0);\n        //update the user details\n\n        uint256 feq = investment.frequency;\n        s_addressInvestment[recepient] = InvestmentInfo(\n            true,\n            block.timestamp,\n            investment.percentage,\n            0,\n            feq,\n            investment.asset\n        );\n    }\n\n    function openStream(address _to, int96 _flowRate) external {\n        _createFlow(_to, _flowRate);\n    }\n\n    function closeStream(address _to) external {\n        _deleteFlow(address(this), _to);\n    }\n\n    function reduceFlow(address to, int96 flowRate) external {\n        _updateFlow(to, flowRate);\n    }\n\n    function _createFlow(address to, int96 flowRate) internal {\n        if (to == address(this) || to == address(0)) return;\n        _host.callAgreement(\n            _cfa,\n            abi.encodeWithSelector(\n                _cfa.createFlow.selector,\n                _acceptedToken,\n                to,\n                flowRate,\n                new bytes(0) // placeholder\n            ),\n            \"0x\"\n        );\n    }\n\n    function _updateFlow(address to, int96 flowRate) internal {\n        if (to == address(this) || to == address(0)) return;\n        _host.callAgreement(\n            _cfa,\n            abi.encodeWithSelector(\n                _cfa.updateFlow.selector,\n                _acceptedToken,\n                to,\n                flowRate,\n                new bytes(0) // placeholder\n            ),\n            \"0x\"\n        );\n    }\n\n    function _deleteFlow(address from, address to) internal {\n        _host.callAgreement(\n            _cfa,\n            abi.encodeWithSelector(\n                _cfa.deleteFlow.selector,\n                _acceptedToken,\n                from,\n                to,\n                new bytes(0) // placeholder\n            ),\n            \"0x\"\n        );\n    }\n\n    function sellStream(uint256 amount, uint256 endTime) external {\n        EmployeeInfo storage _employee = s_employeeinfo[msg.sender];\n        require(_employee.isActive == true); //@dev: not active\n        require(amount <= (_employee.monthlyIncome / 2)); //@dev; has to be haff of salary or less\n        require(endTime <= 30 days); //@dev has to be paid within a month\n        require(_employee.hasLoan == false); //@dev cant borrow twice\n        if (_employee.paymentType == PAYTYPE.STREAM) {\n            s_loanpositions[loans] = Loan(\n                msg.sender,\n                block.timestamp,\n                amount,\n                endTime\n            );\n            market.addPosition(loans, amount, endTime, msg.sender, false);\n        }\n    }\n\n    function addAdmin(address _keeper) external {\n        investmentKeeper = _keeper;\n    }\n\n    function addIdaContract(address _idaCon) external onlyOwner {\n        idaContract = ITrustIDA(_idaCon);\n    }\n\n    function _totalAccumulated(address _investor)\n        private\n        view\n        returns (uint256)\n    {\n        InvestmentInfo storage investment = s_addressInvestment[_investor];\n        EmployeeInfo storage employee = s_employeeinfo[_investor];\n        require(employee.paymentType == PAYTYPE.STREAM); //@dev: must be a streaming employee\n        uint256 startTime = investment.startTime;\n        uint256 flowrate = (employee.monthlyIncome / (30 days));\n        return ((block.timestamp - startTime) * flowrate);\n    }\n\n    function getEmployeeFlowRate(address _employee)\n        external\n        view\n        returns (int96)\n    {\n        uint256 salary = s_employeeinfo[_employee].monthlyIncome;\n        return toIint(salary);\n    }\n\n    function toIint(uint256 number) private pure returns (int96) {\n        int256 number1 = int256(number);\n        return (int96(number1));\n    }\n\n    function getTotalInvestors() external view returns (uint256 number) {\n        number = s_investingAddresses.length;\n    }\n\n    function getPeriodicEmployee() external view returns (uint256 len) {\n        len = periodicEmployees.length;\n    }\n\n    function getTotalCompanyEmployees(address _company)\n        public\n        view\n        returns (uint256)\n    {\n        s_companyEmployees[_company].length;\n    }\n\n    function getTotalPaying(address _company) public view returns (uint256) {\n        s_companyInfo[_company].totalPaying;\n    }\n\n    /**\n     * @notice get an employer's infor\n     * @param _company: employee address\n     */\n    function viewCompanyInfo(address _company)\n        external\n        view\n        returns (\n            address _address,\n            bool status,\n            PAYTYPE payType,\n            uint256 totalPaying\n        )\n    {\n        Company storage company = s_companyInfo[_company];\n        _address = company._address;\n        status = company.status;\n        payType = company.paymentType;\n        totalPaying = company.totalPaying;\n    }\n\n    /**\n     * @notice get an employee's infor\n     * @param _employee: employee address\n     */\n    function viewEmployeeInfo(address _employee)\n        external\n        view\n        returns (\n            uint256 salary,\n            address employer,\n            uint256 startTime,\n            uint256 paymentInterval\n        )\n    {\n        EmployeeInfo storage employeeInfor = s_employeeinfo[_employee];\n        salary = employeeInfor.monthlyIncome;\n        employer = employeeInfor.employer;\n        startTime = employeeInfor.startTime;\n        paymentInterval = employeeInfor.paymentInterval;\n    }\n\n    function viewInvestment(address _investor)\n        external\n        view\n        returns (\n            bool isActive,\n            uint256 startTime,\n            uint128 percentage,\n            uint256 frequency,\n            uint256 amountAccumunated,\n            address asset\n        )\n    {\n        InvestmentInfo storage invest = s_addressInvestment[_investor];\n        isActive = invest.isActive;\n        startTime = invest.startTime;\n        percentage = invest.percentage;\n        frequency = invest.frequency;\n        amountAccumunated = invest.amountAccumunated;\n        asset = invest.asset;\n    }\n}\n",
  "sourcePath": "contracts/TrustContract.sol",
  "type": "contract"
}