{
  "abi": [
    {
      "inputs": [
        {
          "internalType": "contract ISuperToken",
          "name": "cashToken",
          "type": "address"
        },
        {
          "internalType": "contract ISuperfluid",
          "name": "host",
          "type": "address"
        },
        {
          "internalType": "contract IInstantDistributionAgreementV1",
          "name": "ida",
          "type": "address"
        }
      ],
      "stateMutability": "nonpayable",
      "type": "constructor"
    },
    {
      "anonymous": false,
      "inputs": [
        {
          "indexed": true,
          "internalType": "address",
          "name": "previousOwner",
          "type": "address"
        },
        {
          "indexed": true,
          "internalType": "address",
          "name": "newOwner",
          "type": "address"
        }
      ],
      "name": "OwnershipTransferred",
      "type": "event"
    },
    {
      "inputs": [],
      "name": "INDEX_ID",
      "outputs": [
        {
          "internalType": "uint32",
          "name": "",
          "type": "uint32"
        }
      ],
      "stateMutability": "view",
      "type": "function"
    },
    {
      "inputs": [
        {
          "internalType": "address",
          "name": "recipient",
          "type": "address"
        },
        {
          "internalType": "uint256",
          "name": "amount",
          "type": "uint256"
        }
      ],
      "name": "_addAddressToIndex",
      "outputs": [],
      "stateMutability": "nonpayable",
      "type": "function"
    },
    {
      "inputs": [
        {
          "internalType": "address",
          "name": "_keeper",
          "type": "address"
        }
      ],
      "name": "addAdmin",
      "outputs": [],
      "stateMutability": "nonpayable",
      "type": "function"
    },
    {
      "inputs": [
        {
          "internalType": "address",
          "name": "_trust",
          "type": "address"
        }
      ],
      "name": "addIdaContract",
      "outputs": [],
      "stateMutability": "nonpayable",
      "type": "function"
    },
    {
      "inputs": [
        {
          "internalType": "contract ISuperToken",
          "name": "superToken",
          "type": "address"
        },
        {
          "internalType": "address",
          "name": "",
          "type": "address"
        },
        {
          "internalType": "bytes32",
          "name": "agreementId",
          "type": "bytes32"
        },
        {
          "internalType": "bytes",
          "name": "",
          "type": "bytes"
        },
        {
          "internalType": "bytes",
          "name": "",
          "type": "bytes"
        },
        {
          "internalType": "bytes",
          "name": "ctx",
          "type": "bytes"
        }
      ],
      "name": "afterAgreementCreated",
      "outputs": [
        {
          "internalType": "bytes",
          "name": "newCtx",
          "type": "bytes"
        }
      ],
      "stateMutability": "nonpayable",
      "type": "function"
    },
    {
      "inputs": [
        {
          "internalType": "contract ISuperToken",
          "name": "",
          "type": "address"
        },
        {
          "internalType": "address",
          "name": "",
          "type": "address"
        },
        {
          "internalType": "bytes32",
          "name": "",
          "type": "bytes32"
        },
        {
          "internalType": "bytes",
          "name": "",
          "type": "bytes"
        },
        {
          "internalType": "bytes",
          "name": "",
          "type": "bytes"
        },
        {
          "internalType": "bytes",
          "name": "",
          "type": "bytes"
        }
      ],
      "name": "afterAgreementTerminated",
      "outputs": [
        {
          "internalType": "bytes",
          "name": "",
          "type": "bytes"
        }
      ],
      "stateMutability": "nonpayable",
      "type": "function"
    },
    {
      "inputs": [
        {
          "internalType": "contract ISuperToken",
          "name": "superToken",
          "type": "address"
        },
        {
          "internalType": "address",
          "name": "",
          "type": "address"
        },
        {
          "internalType": "bytes32",
          "name": "agreementId",
          "type": "bytes32"
        },
        {
          "internalType": "bytes",
          "name": "",
          "type": "bytes"
        },
        {
          "internalType": "bytes",
          "name": "",
          "type": "bytes"
        },
        {
          "internalType": "bytes",
          "name": "ctx",
          "type": "bytes"
        }
      ],
      "name": "afterAgreementUpdated",
      "outputs": [
        {
          "internalType": "bytes",
          "name": "newCtx",
          "type": "bytes"
        }
      ],
      "stateMutability": "nonpayable",
      "type": "function"
    },
    {
      "inputs": [],
      "name": "amountTodistribute",
      "outputs": [
        {
          "internalType": "uint256",
          "name": "",
          "type": "uint256"
        }
      ],
      "stateMutability": "view",
      "type": "function"
    },
    {
      "inputs": [
        {
          "internalType": "contract ISuperToken",
          "name": "",
          "type": "address"
        },
        {
          "internalType": "address",
          "name": "",
          "type": "address"
        },
        {
          "internalType": "bytes32",
          "name": "",
          "type": "bytes32"
        },
        {
          "internalType": "bytes",
          "name": "",
          "type": "bytes"
        },
        {
          "internalType": "bytes",
          "name": "",
          "type": "bytes"
        }
      ],
      "name": "beforeAgreementCreated",
      "outputs": [
        {
          "internalType": "bytes",
          "name": "",
          "type": "bytes"
        }
      ],
      "stateMutability": "view",
      "type": "function"
    },
    {
      "inputs": [
        {
          "internalType": "contract ISuperToken",
          "name": "",
          "type": "address"
        },
        {
          "internalType": "address",
          "name": "",
          "type": "address"
        },
        {
          "internalType": "bytes32",
          "name": "",
          "type": "bytes32"
        },
        {
          "internalType": "bytes",
          "name": "",
          "type": "bytes"
        },
        {
          "internalType": "bytes",
          "name": "",
          "type": "bytes"
        }
      ],
      "name": "beforeAgreementTerminated",
      "outputs": [
        {
          "internalType": "bytes",
          "name": "",
          "type": "bytes"
        }
      ],
      "stateMutability": "view",
      "type": "function"
    },
    {
      "inputs": [
        {
          "internalType": "contract ISuperToken",
          "name": "superToken",
          "type": "address"
        },
        {
          "internalType": "address",
          "name": "agreementClass",
          "type": "address"
        },
        {
          "internalType": "bytes32",
          "name": "",
          "type": "bytes32"
        },
        {
          "internalType": "bytes",
          "name": "",
          "type": "bytes"
        },
        {
          "internalType": "bytes",
          "name": "",
          "type": "bytes"
        }
      ],
      "name": "beforeAgreementUpdated",
      "outputs": [
        {
          "internalType": "bytes",
          "name": "data",
          "type": "bytes"
        }
      ],
      "stateMutability": "view",
      "type": "function"
    },
    {
      "inputs": [
        {
          "internalType": "uint256",
          "name": "cashAmount",
          "type": "uint256"
        }
      ],
      "name": "distribute",
      "outputs": [],
      "stateMutability": "nonpayable",
      "type": "function"
    },
    {
      "inputs": [
        {
          "internalType": "address",
          "name": "_employer",
          "type": "address"
        }
      ],
      "name": "getAddressIndexId",
      "outputs": [
        {
          "internalType": "uint32",
          "name": "indexID",
          "type": "uint32"
        }
      ],
      "stateMutability": "pure",
      "type": "function"
    },
    {
      "inputs": [
        {
          "internalType": "address",
          "name": "",
          "type": "address"
        }
      ],
      "name": "isSubscribing",
      "outputs": [
        {
          "internalType": "bool",
          "name": "",
          "type": "bool"
        }
      ],
      "stateMutability": "view",
      "type": "function"
    },
    {
      "inputs": [],
      "name": "keeper",
      "outputs": [
        {
          "internalType": "address",
          "name": "",
          "type": "address"
        }
      ],
      "stateMutability": "view",
      "type": "function"
    },
    {
      "inputs": [],
      "name": "owner",
      "outputs": [
        {
          "internalType": "address",
          "name": "",
          "type": "address"
        }
      ],
      "stateMutability": "view",
      "type": "function"
    },
    {
      "inputs": [
        {
          "internalType": "address",
          "name": "_employee",
          "type": "address"
        }
      ],
      "name": "removeAddress",
      "outputs": [],
      "stateMutability": "nonpayable",
      "type": "function"
    },
    {
      "inputs": [],
      "name": "renounceOwnership",
      "outputs": [],
      "stateMutability": "nonpayable",
      "type": "function"
    },
    {
      "inputs": [
        {
          "internalType": "address",
          "name": "newOwner",
          "type": "address"
        }
      ],
      "name": "transferOwnership",
      "outputs": [],
      "stateMutability": "nonpayable",
      "type": "function"
    },
    {
      "inputs": [],
      "name": "trusContract",
      "outputs": [
        {
          "internalType": "address",
          "name": "",
          "type": "address"
        }
      ],
      "stateMutability": "view",
      "type": "function"
    }
  ],
  "bytecode": "60806040523480156200001157600080fd5b50604051620017f0380380620017f0833981016040819052620000349162000238565b6200003f33620001cf565b600180546001600160a01b038581166001600160a01b03199283161790925560028054858416908316811790915560038054938516939092169290921790556040516315a722b960e31b815264300000000160048201819052919063ad3915c890602401600060405180830381600087803b158015620000be57600080fd5b505af1158015620000d3573d6000803e3d6000fd5b5050600254600354600154604080516000808252602082019092526001600160a01b0394851696506339255d5b955092841693636bc3c20560e11b9362000124939190911691906044810162000303565b60408051601f19818403018152918152602080830180516001600160e01b03166001600160e01b03199586161790528151600081529081019182905260e086901b90931690526200017a9291602481016200033e565b6000604051808303816000875af11580156200019a573d6000803e3d6000fd5b505050506040513d6000823e601f3d908101601f19168201604052620001c4919081019062000382565b50505050506200043a565b600080546001600160a01b038381166001600160a01b0319831681178455604051919092169283917f8be0079c531659141344cd1fd0a4f28419497f9722a3daafe3b4186f6b6457e09190a35050565b6001600160a01b03811681146200023557600080fd5b50565b6000806000606084860312156200024e57600080fd5b83516200025b816200021f565b60208501519093506200026e816200021f565b604085015190925062000281816200021f565b809150509250925092565b634e487b7160e01b600052604160045260246000fd5b60005b83811015620002bf578181015183820152602001620002a5565b83811115620002cf576000848401525b50505050565b60008151808452620002ef816020860160208601620002a2565b601f01601f19169290920160200192915050565b6001600160a01b038416815263ffffffff831660208201526060604082018190526000906200033590830184620002d5565b95945050505050565b6001600160a01b03841681526060602082018190526000906200036490830185620002d5565b8281036040840152620003788185620002d5565b9695505050505050565b6000602082840312156200039557600080fd5b81516001600160401b0380821115620003ad57600080fd5b818401915084601f830112620003c257600080fd5b815181811115620003d757620003d76200028c565b604051601f8201601f19908116603f011681019083821181831017156200040257620004026200028c565b816040528281528760208487010111156200041c57600080fd5b6200042f836020830160208801620002a2565b979650505050505050565b6113a6806200044a6000396000f3fe608060405234801561001057600080fd5b506004361061012c5760003560e01c80638c7f0959116100ad578063aced166111610071578063aced16611461029e578063d86ed3e51461014d578063ede4668c146102b1578063f097f4fd146102c4578063f2fde38b146102d757600080fd5b80638c7f0959146102185780638da5cb5b14610220578063915e33641461024557806391c05b0b146102785780639d14b2b91461028b57600080fd5b80635f9e7d77116100f45780635f9e7d77146101a857806370480275146101bb578063715018a6146101ce5780637de663ae146101d6578063884d1f401461020557600080fd5b8063130e008314610131578063230dbd291461014d57806330d9c9151461016d5780634ba79dfe1461018057806353c11f9914610195575b600080fd5b61013a60065481565b6040519081526020015b60405180910390f35b61016061015b366004610ced565b6102ea565b6040516101449190610e14565b61016061017b366004610e2e565b61033d565b61019361018e366004610ecd565b6103a5565b005b6101606101a3366004610ced565b610491565b6101606101b6366004610e2e565b6104f6565b6101936101c9366004610ecd565b61055d565b6101936105a9565b6101f06101e4366004610ecd565b6001600160a01b031690565b60405163ffffffff9091168152602001610144565b610160610213366004610e2e565b6105df565b6101f0600081565b6000546001600160a01b03165b6040516001600160a01b039091168152602001610144565b610268610253366004610ecd565b60076020526000908152604090205460ff1681565b6040519015158152602001610144565b610193610286366004610eea565b6106b7565b610193610299366004610f03565b610857565b60055461022d906001600160a01b031681565b6101936102bf366004610ecd565b61095b565b60045461022d906001600160a01b031681565b6101936102e5366004610ecd565b6109a7565b60606102f88a84848b610a42565b82828080601f016020809104026020016040519081016040528093929190818152602001838380828437600092019190915250929d9c50505050505050505050505050565b60405162461bcd60e51b815260206004820152602f60248201527f556e737570706f727465642063616c6c6261636b202d204265666f726520416760448201526e1c99595b595b9d0810dc99585d1959608a1b60648201526060906084015b60405180910390fd5b600254600354600154604080516000808252602082019092526001600160a01b03948516946339255d5b94811693630465a56b60e31b936103f29392909116918890829060448101610f45565b60408051601f19818403018152918152602080830180516001600160e01b03166001600160e01b03199586161790528151600081529081019182905260e086901b9093169052610446929160248101610f97565b6000604051808303816000875af1158015610465573d6000803e3d6000fd5b505050506040513d6000823e601f3d908101601f1916820160405261048d919081019061107f565b5050565b60405162461bcd60e51b815260206004820152603160248201527f556e737570706f727465642063616c6c6261636b202d2041667465722041677260448201527019595b595b9d0815195c9b5a5b985d1959607a1b606482015260609060840161039c565b60405162461bcd60e51b815260206004820152603360248201527f556e737570706f727465642063616c6c6261636b202d20204265666f7265204160448201527219dc99595b595b9d0815195c9b5a5b985d1959606a1b606482015260609060840161039c565b6000546001600160a01b031633146105875760405162461bcd60e51b815260040161039c906110bc565b600580546001600160a01b0319166001600160a01b0392909216919091179055565b6000546001600160a01b031633146105d35760405162461bcd60e51b815260040161039c906110bc565b6105dd6000610c3f565b565b6001546060906001600160a01b0389811691161461063f5760405162461bcd60e51b815260206004820152601b60248201527f4452543a20556e737570706f72746564206361736820746f6b656e0000000000604482015260640161039c565b6003546001600160a01b0388811691161461069c5760405162461bcd60e51b815260206004820152601a60248201527f4452543a20556e737570706f727465642061677265656d656e74000000000000604482015260640161039c565b50506040805160008152602081019091529695505050505050565b6000546001600160a01b031633146106e15760405162461bcd60e51b815260040161039c906110bc565b600354600154604051632266eabb60e21b81526001600160a01b0391821660048201523060248201526000604482018190526064820185905292919091169063899baaec906084016040805180830381865afa158015610745573d6000803e3d6000fd5b505050506040513d601f19601f82011682018060405250810190610769919061110d565b50600254600354600154604080516000808252602082019092529495506001600160a01b03938416946339255d5b9493841693635cb398e160e11b936107b793911691889060448101611139565b60408051601f19818403018152918152602080830180516001600160e01b03166001600160e01b03199586161790528151600081529081019182905260e086901b909316905261080b929160248101610f97565b6000604051808303816000875af115801561082a573d6000803e3d6000fd5b505050506040513d6000823e601f3d908101601f19168201604052610852919081019061107f565b505050565b600254600354600154604080516000808252602082019092526001600160a01b03948516946339255d5b94811693630465a56b60e31b936108a49392909116918990899060448101610f45565b60408051601f19818403018152918152602080830180516001600160e01b03166001600160e01b03199586161790528151600081529081019182905260e086901b90931690526108f8929160248101610f97565b6000604051808303816000875af1158015610917573d6000803e3d6000fd5b505050506040513d6000823e601f3d908101601f1916820160405261093f919081019061107f565b508060066000828254610952919061116c565b90915550505050565b6000546001600160a01b031633146109855760405162461bcd60e51b815260040161039c906110bc565b600480546001600160a01b0319166001600160a01b0392909216919091179055565b6000546001600160a01b031633146109d15760405162461bcd60e51b815260040161039c906110bc565b6001600160a01b038116610a365760405162461bcd60e51b815260206004820152602660248201527f4f776e61626c653a206e6577206f776e657220697320746865207a65726f206160448201526564647265737360d01b606482015260840161039c565b610a3f81610c3f565b50565b600254604051631fb6491d60e11b81526000916001600160a01b031690633f6c923a90610a759087908790600401611192565b600060405180830381865afa158015610a92573d6000803e3d6000fd5b505050506040513d6000823e601f3d908101601f19168201604052610aba91908101906111f5565b60808101519091506001600160e01b031916632985ac9f60e11b01610c385760035460405163cd7245c560e01b81526001600160a01b03878116600483015260248201859052600092839283928392839291169063cd7245c59060440160a060405180830381865afa158015610b34573d6000803e3d6000fd5b505050506040513d601f19601f82011682018060405250810190610b5891906112fc565b9398509196509450925090506001600160a01b0385163014610bb65760405162461bcd60e51b8152602060048201526017602482015276088a4a87440e0eac4d8d2e6d0cae440dad2e6dac2e8c6d604b1b604482015260640161039c565b63ffffffff841615610c045760405162461bcd60e51b8152602060048201526017602482015276088a4a87440e0eac4d8d2e6d0cae440dad2e6dac2e8c6d604b1b604482015260640161039c565b8215610c325760608601516001600160a01b03166000908152600760205260409020805460ff191660011790555b50505050505b5050505050565b600080546001600160a01b038381166001600160a01b0319831681178455604051919092169283917f8be0079c531659141344cd1fd0a4f28419497f9722a3daafe3b4186f6b6457e09190a35050565b6001600160a01b0381168114610a3f57600080fd5b60008083601f840112610cb657600080fd5b50813567ffffffffffffffff811115610cce57600080fd5b602083019150836020828501011115610ce657600080fd5b9250929050565b600080600080600080600080600060c08a8c031215610d0b57600080fd5b8935610d1681610c8f565b985060208a0135610d2681610c8f565b975060408a0135965060608a013567ffffffffffffffff80821115610d4a57600080fd5b610d568d838e01610ca4565b909850965060808c0135915080821115610d6f57600080fd5b610d7b8d838e01610ca4565b909650945060a08c0135915080821115610d9457600080fd5b50610da18c828d01610ca4565b915080935050809150509295985092959850929598565b60005b83811015610dd3578181015183820152602001610dbb565b83811115610de2576000848401525b50505050565b60008151808452610e00816020860160208601610db8565b601f01601f19169290920160200192915050565b602081526000610e276020830184610de8565b9392505050565b600080600080600080600060a0888a031215610e4957600080fd5b8735610e5481610c8f565b96506020880135610e6481610c8f565b955060408801359450606088013567ffffffffffffffff80821115610e8857600080fd5b610e948b838c01610ca4565b909650945060808a0135915080821115610ead57600080fd5b50610eba8a828b01610ca4565b989b979a50959850939692959293505050565b600060208284031215610edf57600080fd5b8135610e2781610c8f565b600060208284031215610efc57600080fd5b5035919050565b60008060408385031215610f1657600080fd5b8235610f2181610c8f565b946020939093013593505050565b634e487b7160e01b600052604160045260246000fd5b6001600160a01b03868116825263ffffffff86166020830152841660408201526001600160801b038316606082015260a060808201819052600090610f8c90830184610de8565b979650505050505050565b6001600160a01b0384168152606060208201819052600090610fbb90830185610de8565b8281036040840152610fcd8185610de8565b9695505050505050565b604051610160810167ffffffffffffffff81118282101715610ffb57610ffb610f2f565b60405290565b600082601f83011261101257600080fd5b815167ffffffffffffffff8082111561102d5761102d610f2f565b604051601f8301601f19908116603f0116810190828211818310171561105557611055610f2f565b8160405283815286602085880101111561106e57600080fd5b610fcd846020830160208901610db8565b60006020828403121561109157600080fd5b815167ffffffffffffffff8111156110a857600080fd5b6110b484828501611001565b949350505050565b6020808252818101527f4f776e61626c653a2063616c6c6572206973206e6f7420746865206f776e6572604082015260600190565b80516001600160801b038116811461110857600080fd5b919050565b6000806040838503121561112057600080fd5b82519150611130602084016110f1565b90509250929050565b60018060a01b038516815263ffffffff84166020820152826040820152608060608201526000610fcd6080830184610de8565b6000821982111561118d57634e487b7160e01b600052601160045260246000fd5b500190565b60208152816020820152818360408301376000818301604090810191909152601f909201601f19160101919050565b805160ff8116811461110857600080fd5b805161110881610c8f565b80516001600160e01b03198116811461110857600080fd5b60006020828403121561120757600080fd5b815167ffffffffffffffff8082111561121f57600080fd5b90830190610160828603121561123457600080fd5b61123c610fd7565b611245836111c1565b8152611253602084016111c1565b60208201526040830151604082015261126e606084016111d2565b606082015261127f608084016111dd565b608082015260a08301518281111561129657600080fd5b6112a287828601611001565b60a08301525060c083015160c082015260e083015160e08201526101009150818301518282015261012091506112d98284016111d2565b8282015261014091506112ed8284016111d2565b91810191909152949350505050565b600080600080600060a0868803121561131457600080fd5b855161131f81610c8f565b602087015190955063ffffffff8116811461133957600080fd5b6040870151909450801515811461134f57600080fd5b925061135d606087016110f1565b915060808601519050929550929590935056fea2646970667358221220470540b36fdbde685f76f528b42cb93b799650d5102e1667ec8a3fba8e30117064736f6c634300080d0033",
  "bytecodeSha1": "30b6478999dd8d8f93d881e1bbfa6160c3a0df9b",
  "compiler": {
    "evm_version": "istanbul",
    "optimizer": {
      "enabled": true,
      "runs": 200
    },
    "version": "0.8.13+commit.abaa5c0e"
  },
  "contractName": "TrustIDA",
  "language": "Solidity",
  "natspec": {
    "kind": "dev",
    "methods": {
      "owner()": {
        "details": "Returns the address of the current owner."
      },
      "renounceOwnership()": {
        "details": "Leaves the contract without owner. It will not be possible to call `onlyOwner` functions anymore. Can only be called by the current owner. NOTE: Renouncing ownership will leave the contract without an owner, thereby removing any functionality that is only available to the owner."
      },
      "transferOwnership(address)": {
        "details": "Transfers ownership of the contract to a new account (`newOwner`). Can only be called by the current owner."
      }
    },
    "version": 1
  },
  "opcodes": "PUSH1 0x80 PUSH1 0x40 MSTORE CALLVALUE DUP1 ISZERO PUSH2 0x10 JUMPI PUSH1 0x0 DUP1 REVERT JUMPDEST POP PUSH1 0x4 CALLDATASIZE LT PUSH2 0x12C JUMPI PUSH1 0x0 CALLDATALOAD PUSH1 0xE0 SHR DUP1 PUSH4 0x8C7F0959 GT PUSH2 0xAD JUMPI DUP1 PUSH4 0xACED1661 GT PUSH2 0x71 JUMPI DUP1 PUSH4 0xACED1661 EQ PUSH2 0x29E JUMPI DUP1 PUSH4 0xD86ED3E5 EQ PUSH2 0x14D JUMPI DUP1 PUSH4 0xEDE4668C EQ PUSH2 0x2B1 JUMPI DUP1 PUSH4 0xF097F4FD EQ PUSH2 0x2C4 JUMPI DUP1 PUSH4 0xF2FDE38B EQ PUSH2 0x2D7 JUMPI PUSH1 0x0 DUP1 REVERT JUMPDEST DUP1 PUSH4 0x8C7F0959 EQ PUSH2 0x218 JUMPI DUP1 PUSH4 0x8DA5CB5B EQ PUSH2 0x220 JUMPI DUP1 PUSH4 0x915E3364 EQ PUSH2 0x245 JUMPI DUP1 PUSH4 0x91C05B0B EQ PUSH2 0x278 JUMPI DUP1 PUSH4 0x9D14B2B9 EQ PUSH2 0x28B JUMPI PUSH1 0x0 DUP1 REVERT JUMPDEST DUP1 PUSH4 0x5F9E7D77 GT PUSH2 0xF4 JUMPI DUP1 PUSH4 0x5F9E7D77 EQ PUSH2 0x1A8 JUMPI DUP1 PUSH4 0x70480275 EQ PUSH2 0x1BB JUMPI DUP1 PUSH4 0x715018A6 EQ PUSH2 0x1CE JUMPI DUP1 PUSH4 0x7DE663AE EQ PUSH2 0x1D6 JUMPI DUP1 PUSH4 0x884D1F40 EQ PUSH2 0x205 JUMPI PUSH1 0x0 DUP1 REVERT JUMPDEST DUP1 PUSH4 0x130E0083 EQ PUSH2 0x131 JUMPI DUP1 PUSH4 0x230DBD29 EQ PUSH2 0x14D JUMPI DUP1 PUSH4 0x30D9C915 EQ PUSH2 0x16D JUMPI DUP1 PUSH4 0x4BA79DFE EQ PUSH2 0x180 JUMPI DUP1 PUSH4 0x53C11F99 EQ PUSH2 0x195 JUMPI JUMPDEST PUSH1 0x0 DUP1 REVERT JUMPDEST PUSH2 0x13A PUSH1 0x6 SLOAD DUP2 JUMP JUMPDEST PUSH1 0x40 MLOAD SWAP1 DUP2 MSTORE PUSH1 0x20 ADD JUMPDEST PUSH1 0x40 MLOAD DUP1 SWAP2 SUB SWAP1 RETURN JUMPDEST PUSH2 0x160 PUSH2 0x15B CALLDATASIZE PUSH1 0x4 PUSH2 0xCED JUMP JUMPDEST PUSH2 0x2EA JUMP JUMPDEST PUSH1 0x40 MLOAD PUSH2 0x144 SWAP2 SWAP1 PUSH2 0xE14 JUMP JUMPDEST PUSH2 0x160 PUSH2 0x17B CALLDATASIZE PUSH1 0x4 PUSH2 0xE2E JUMP JUMPDEST PUSH2 0x33D JUMP JUMPDEST PUSH2 0x193 PUSH2 0x18E CALLDATASIZE PUSH1 0x4 PUSH2 0xECD JUMP JUMPDEST PUSH2 0x3A5 JUMP JUMPDEST STOP JUMPDEST PUSH2 0x160 PUSH2 0x1A3 CALLDATASIZE PUSH1 0x4 PUSH2 0xCED JUMP JUMPDEST PUSH2 0x491 JUMP JUMPDEST PUSH2 0x160 PUSH2 0x1B6 CALLDATASIZE PUSH1 0x4 PUSH2 0xE2E JUMP JUMPDEST PUSH2 0x4F6 JUMP JUMPDEST PUSH2 0x193 PUSH2 0x1C9 CALLDATASIZE PUSH1 0x4 PUSH2 0xECD JUMP JUMPDEST PUSH2 0x55D JUMP JUMPDEST PUSH2 0x193 PUSH2 0x5A9 JUMP JUMPDEST PUSH2 0x1F0 PUSH2 0x1E4 CALLDATASIZE PUSH1 0x4 PUSH2 0xECD JUMP JUMPDEST PUSH1 0x1 PUSH1 0x1 PUSH1 0xA0 SHL SUB AND SWAP1 JUMP JUMPDEST PUSH1 0x40 MLOAD PUSH4 0xFFFFFFFF SWAP1 SWAP2 AND DUP2 MSTORE PUSH1 0x20 ADD PUSH2 0x144 JUMP JUMPDEST PUSH2 0x160 PUSH2 0x213 CALLDATASIZE PUSH1 0x4 PUSH2 0xE2E JUMP JUMPDEST PUSH2 0x5DF JUMP JUMPDEST PUSH2 0x1F0 PUSH1 0x0 DUP2 JUMP JUMPDEST PUSH1 0x0 SLOAD PUSH1 0x1 PUSH1 0x1 PUSH1 0xA0 SHL SUB AND JUMPDEST PUSH1 0x40 MLOAD PUSH1 0x1 PUSH1 0x1 PUSH1 0xA0 SHL SUB SWAP1 SWAP2 AND DUP2 MSTORE PUSH1 0x20 ADD PUSH2 0x144 JUMP JUMPDEST PUSH2 0x268 PUSH2 0x253 CALLDATASIZE PUSH1 0x4 PUSH2 0xECD JUMP JUMPDEST PUSH1 0x7 PUSH1 0x20 MSTORE PUSH1 0x0 SWAP1 DUP2 MSTORE PUSH1 0x40 SWAP1 KECCAK256 SLOAD PUSH1 0xFF AND DUP2 JUMP JUMPDEST PUSH1 0x40 MLOAD SWAP1 ISZERO ISZERO DUP2 MSTORE PUSH1 0x20 ADD PUSH2 0x144 JUMP JUMPDEST PUSH2 0x193 PUSH2 0x286 CALLDATASIZE PUSH1 0x4 PUSH2 0xEEA JUMP JUMPDEST PUSH2 0x6B7 JUMP JUMPDEST PUSH2 0x193 PUSH2 0x299 CALLDATASIZE PUSH1 0x4 PUSH2 0xF03 JUMP JUMPDEST PUSH2 0x857 JUMP JUMPDEST PUSH1 0x5 SLOAD PUSH2 0x22D SWAP1 PUSH1 0x1 PUSH1 0x1 PUSH1 0xA0 SHL SUB AND DUP2 JUMP JUMPDEST PUSH2 0x193 PUSH2 0x2BF CALLDATASIZE PUSH1 0x4 PUSH2 0xECD JUMP JUMPDEST PUSH2 0x95B JUMP JUMPDEST PUSH1 0x4 SLOAD PUSH2 0x22D SWAP1 PUSH1 0x1 PUSH1 0x1 PUSH1 0xA0 SHL SUB AND DUP2 JUMP JUMPDEST PUSH2 0x193 PUSH2 0x2E5 CALLDATASIZE PUSH1 0x4 PUSH2 0xECD JUMP JUMPDEST PUSH2 0x9A7 JUMP JUMPDEST PUSH1 0x60 PUSH2 0x2F8 DUP11 DUP5 DUP5 DUP12 PUSH2 0xA42 JUMP JUMPDEST DUP3 DUP3 DUP1 DUP1 PUSH1 0x1F ADD PUSH1 0x20 DUP1 SWAP2 DIV MUL PUSH1 0x20 ADD PUSH1 0x40 MLOAD SWAP1 DUP2 ADD PUSH1 0x40 MSTORE DUP1 SWAP4 SWAP3 SWAP2 SWAP1 DUP2 DUP2 MSTORE PUSH1 0x20 ADD DUP4 DUP4 DUP1 DUP3 DUP5 CALLDATACOPY PUSH1 0x0 SWAP3 ADD SWAP2 SWAP1 SWAP2 MSTORE POP SWAP3 SWAP14 SWAP13 POP POP POP POP POP POP POP POP POP POP POP POP POP JUMP JUMPDEST PUSH1 0x40 MLOAD PUSH3 0x461BCD PUSH1 0xE5 SHL DUP2 MSTORE PUSH1 0x20 PUSH1 0x4 DUP3 ADD MSTORE PUSH1 0x2F PUSH1 0x24 DUP3 ADD MSTORE PUSH32 0x556E737570706F727465642063616C6C6261636B202D204265666F7265204167 PUSH1 0x44 DUP3 ADD MSTORE PUSH15 0x1C99595B595B9D0810DC99585D1959 PUSH1 0x8A SHL PUSH1 0x64 DUP3 ADD MSTORE PUSH1 0x60 SWAP1 PUSH1 0x84 ADD JUMPDEST PUSH1 0x40 MLOAD DUP1 SWAP2 SUB SWAP1 REVERT JUMPDEST PUSH1 0x2 SLOAD PUSH1 0x3 SLOAD PUSH1 0x1 SLOAD PUSH1 0x40 DUP1 MLOAD PUSH1 0x0 DUP1 DUP3 MSTORE PUSH1 0x20 DUP3 ADD SWAP1 SWAP3 MSTORE PUSH1 0x1 PUSH1 0x1 PUSH1 0xA0 SHL SUB SWAP5 DUP6 AND SWAP5 PUSH4 0x39255D5B SWAP5 DUP2 AND SWAP4 PUSH4 0x465A56B PUSH1 0xE3 SHL SWAP4 PUSH2 0x3F2 SWAP4 SWAP3 SWAP1 SWAP2 AND SWAP2 DUP9 SWAP1 DUP3 SWAP1 PUSH1 0x44 DUP2 ADD PUSH2 0xF45 JUMP JUMPDEST PUSH1 0x40 DUP1 MLOAD PUSH1 0x1F NOT DUP2 DUP5 SUB ADD DUP2 MSTORE SWAP2 DUP2 MSTORE PUSH1 0x20 DUP1 DUP4 ADD DUP1 MLOAD PUSH1 0x1 PUSH1 0x1 PUSH1 0xE0 SHL SUB AND PUSH1 0x1 PUSH1 0x1 PUSH1 0xE0 SHL SUB NOT SWAP6 DUP7 AND OR SWAP1 MSTORE DUP2 MLOAD PUSH1 0x0 DUP2 MSTORE SWAP1 DUP2 ADD SWAP2 DUP3 SWAP1 MSTORE PUSH1 0xE0 DUP7 SWAP1 SHL SWAP1 SWAP4 AND SWAP1 MSTORE PUSH2 0x446 SWAP3 SWAP2 PUSH1 0x24 DUP2 ADD PUSH2 0xF97 JUMP JUMPDEST PUSH1 0x0 PUSH1 0x40 MLOAD DUP1 DUP4 SUB DUP2 PUSH1 0x0 DUP8 GAS CALL ISZERO DUP1 ISZERO PUSH2 0x465 JUMPI RETURNDATASIZE PUSH1 0x0 DUP1 RETURNDATACOPY RETURNDATASIZE PUSH1 0x0 REVERT JUMPDEST POP POP POP POP PUSH1 0x40 MLOAD RETURNDATASIZE PUSH1 0x0 DUP3 RETURNDATACOPY PUSH1 0x1F RETURNDATASIZE SWAP1 DUP2 ADD PUSH1 0x1F NOT AND DUP3 ADD PUSH1 0x40 MSTORE PUSH2 0x48D SWAP2 SWAP1 DUP2 ADD SWAP1 PUSH2 0x107F JUMP JUMPDEST POP POP JUMP JUMPDEST PUSH1 0x40 MLOAD PUSH3 0x461BCD PUSH1 0xE5 SHL DUP2 MSTORE PUSH1 0x20 PUSH1 0x4 DUP3 ADD MSTORE PUSH1 0x31 PUSH1 0x24 DUP3 ADD MSTORE PUSH32 0x556E737570706F727465642063616C6C6261636B202D20416674657220416772 PUSH1 0x44 DUP3 ADD MSTORE PUSH17 0x19595B595B9D0815195C9B5A5B985D1959 PUSH1 0x7A SHL PUSH1 0x64 DUP3 ADD MSTORE PUSH1 0x60 SWAP1 PUSH1 0x84 ADD PUSH2 0x39C JUMP JUMPDEST PUSH1 0x40 MLOAD PUSH3 0x461BCD PUSH1 0xE5 SHL DUP2 MSTORE PUSH1 0x20 PUSH1 0x4 DUP3 ADD MSTORE PUSH1 0x33 PUSH1 0x24 DUP3 ADD MSTORE PUSH32 0x556E737570706F727465642063616C6C6261636B202D20204265666F72652041 PUSH1 0x44 DUP3 ADD MSTORE PUSH19 0x19DC99595B595B9D0815195C9B5A5B985D1959 PUSH1 0x6A SHL PUSH1 0x64 DUP3 ADD MSTORE PUSH1 0x60 SWAP1 PUSH1 0x84 ADD PUSH2 0x39C JUMP JUMPDEST PUSH1 0x0 SLOAD PUSH1 0x1 PUSH1 0x1 PUSH1 0xA0 SHL SUB AND CALLER EQ PUSH2 0x587 JUMPI PUSH1 0x40 MLOAD PUSH3 0x461BCD PUSH1 0xE5 SHL DUP2 MSTORE PUSH1 0x4 ADD PUSH2 0x39C SWAP1 PUSH2 0x10BC JUMP JUMPDEST PUSH1 0x5 DUP1 SLOAD PUSH1 0x1 PUSH1 0x1 PUSH1 0xA0 SHL SUB NOT AND PUSH1 0x1 PUSH1 0x1 PUSH1 0xA0 SHL SUB SWAP3 SWAP1 SWAP3 AND SWAP2 SWAP1 SWAP2 OR SWAP1 SSTORE JUMP JUMPDEST PUSH1 0x0 SLOAD PUSH1 0x1 PUSH1 0x1 PUSH1 0xA0 SHL SUB AND CALLER EQ PUSH2 0x5D3 JUMPI PUSH1 0x40 MLOAD PUSH3 0x461BCD PUSH1 0xE5 SHL DUP2 MSTORE PUSH1 0x4 ADD PUSH2 0x39C SWAP1 PUSH2 0x10BC JUMP JUMPDEST PUSH2 0x5DD PUSH1 0x0 PUSH2 0xC3F JUMP JUMPDEST JUMP JUMPDEST PUSH1 0x1 SLOAD PUSH1 0x60 SWAP1 PUSH1 0x1 PUSH1 0x1 PUSH1 0xA0 SHL SUB DUP10 DUP2 AND SWAP2 AND EQ PUSH2 0x63F JUMPI PUSH1 0x40 MLOAD PUSH3 0x461BCD PUSH1 0xE5 SHL DUP2 MSTORE PUSH1 0x20 PUSH1 0x4 DUP3 ADD MSTORE PUSH1 0x1B PUSH1 0x24 DUP3 ADD MSTORE PUSH32 0x4452543A20556E737570706F72746564206361736820746F6B656E0000000000 PUSH1 0x44 DUP3 ADD MSTORE PUSH1 0x64 ADD PUSH2 0x39C JUMP JUMPDEST PUSH1 0x3 SLOAD PUSH1 0x1 PUSH1 0x1 PUSH1 0xA0 SHL SUB DUP9 DUP2 AND SWAP2 AND EQ PUSH2 0x69C JUMPI PUSH1 0x40 MLOAD PUSH3 0x461BCD PUSH1 0xE5 SHL DUP2 MSTORE PUSH1 0x20 PUSH1 0x4 DUP3 ADD MSTORE PUSH1 0x1A PUSH1 0x24 DUP3 ADD MSTORE PUSH32 0x4452543A20556E737570706F727465642061677265656D656E74000000000000 PUSH1 0x44 DUP3 ADD MSTORE PUSH1 0x64 ADD PUSH2 0x39C JUMP JUMPDEST POP POP PUSH1 0x40 DUP1 MLOAD PUSH1 0x0 DUP2 MSTORE PUSH1 0x20 DUP2 ADD SWAP1 SWAP2 MSTORE SWAP7 SWAP6 POP POP POP POP POP POP JUMP JUMPDEST PUSH1 0x0 SLOAD PUSH1 0x1 PUSH1 0x1 PUSH1 0xA0 SHL SUB AND CALLER EQ PUSH2 0x6E1 JUMPI PUSH1 0x40 MLOAD PUSH3 0x461BCD PUSH1 0xE5 SHL DUP2 MSTORE PUSH1 0x4 ADD PUSH2 0x39C SWAP1 PUSH2 0x10BC JUMP JUMPDEST PUSH1 0x3 SLOAD PUSH1 0x1 SLOAD PUSH1 0x40 MLOAD PUSH4 0x2266EABB PUSH1 0xE2 SHL DUP2 MSTORE PUSH1 0x1 PUSH1 0x1 PUSH1 0xA0 SHL SUB SWAP2 DUP3 AND PUSH1 0x4 DUP3 ADD MSTORE ADDRESS PUSH1 0x24 DUP3 ADD MSTORE PUSH1 0x0 PUSH1 0x44 DUP3 ADD DUP2 SWAP1 MSTORE PUSH1 0x64 DUP3 ADD DUP6 SWAP1 MSTORE SWAP3 SWAP2 SWAP1 SWAP2 AND SWAP1 PUSH4 0x899BAAEC SWAP1 PUSH1 0x84 ADD PUSH1 0x40 DUP1 MLOAD DUP1 DUP4 SUB DUP2 DUP7 GAS STATICCALL ISZERO DUP1 ISZERO PUSH2 0x745 JUMPI RETURNDATASIZE PUSH1 0x0 DUP1 RETURNDATACOPY RETURNDATASIZE PUSH1 0x0 REVERT JUMPDEST POP POP POP POP PUSH1 0x40 MLOAD RETURNDATASIZE PUSH1 0x1F NOT PUSH1 0x1F DUP3 ADD AND DUP3 ADD DUP1 PUSH1 0x40 MSTORE POP DUP2 ADD SWAP1 PUSH2 0x769 SWAP2 SWAP1 PUSH2 0x110D JUMP JUMPDEST POP PUSH1 0x2 SLOAD PUSH1 0x3 SLOAD PUSH1 0x1 SLOAD PUSH1 0x40 DUP1 MLOAD PUSH1 0x0 DUP1 DUP3 MSTORE PUSH1 0x20 DUP3 ADD SWAP1 SWAP3 MSTORE SWAP5 SWAP6 POP PUSH1 0x1 PUSH1 0x1 PUSH1 0xA0 SHL SUB SWAP4 DUP5 AND SWAP5 PUSH4 0x39255D5B SWAP5 SWAP4 DUP5 AND SWAP4 PUSH4 0x5CB398E1 PUSH1 0xE1 SHL SWAP4 PUSH2 0x7B7 SWAP4 SWAP2 AND SWAP2 DUP9 SWAP1 PUSH1 0x44 DUP2 ADD PUSH2 0x1139 JUMP JUMPDEST PUSH1 0x40 DUP1 MLOAD PUSH1 0x1F NOT DUP2 DUP5 SUB ADD DUP2 MSTORE SWAP2 DUP2 MSTORE PUSH1 0x20 DUP1 DUP4 ADD DUP1 MLOAD PUSH1 0x1 PUSH1 0x1 PUSH1 0xE0 SHL SUB AND PUSH1 0x1 PUSH1 0x1 PUSH1 0xE0 SHL SUB NOT SWAP6 DUP7 AND OR SWAP1 MSTORE DUP2 MLOAD PUSH1 0x0 DUP2 MSTORE SWAP1 DUP2 ADD SWAP2 DUP3 SWAP1 MSTORE PUSH1 0xE0 DUP7 SWAP1 SHL SWAP1 SWAP4 AND SWAP1 MSTORE PUSH2 0x80B SWAP3 SWAP2 PUSH1 0x24 DUP2 ADD PUSH2 0xF97 JUMP JUMPDEST PUSH1 0x0 PUSH1 0x40 MLOAD DUP1 DUP4 SUB DUP2 PUSH1 0x0 DUP8 GAS CALL ISZERO DUP1 ISZERO PUSH2 0x82A JUMPI RETURNDATASIZE PUSH1 0x0 DUP1 RETURNDATACOPY RETURNDATASIZE PUSH1 0x0 REVERT JUMPDEST POP POP POP POP PUSH1 0x40 MLOAD RETURNDATASIZE PUSH1 0x0 DUP3 RETURNDATACOPY PUSH1 0x1F RETURNDATASIZE SWAP1 DUP2 ADD PUSH1 0x1F NOT AND DUP3 ADD PUSH1 0x40 MSTORE PUSH2 0x852 SWAP2 SWAP1 DUP2 ADD SWAP1 PUSH2 0x107F JUMP JUMPDEST POP POP POP JUMP JUMPDEST PUSH1 0x2 SLOAD PUSH1 0x3 SLOAD PUSH1 0x1 SLOAD PUSH1 0x40 DUP1 MLOAD PUSH1 0x0 DUP1 DUP3 MSTORE PUSH1 0x20 DUP3 ADD SWAP1 SWAP3 MSTORE PUSH1 0x1 PUSH1 0x1 PUSH1 0xA0 SHL SUB SWAP5 DUP6 AND SWAP5 PUSH4 0x39255D5B SWAP5 DUP2 AND SWAP4 PUSH4 0x465A56B PUSH1 0xE3 SHL SWAP4 PUSH2 0x8A4 SWAP4 SWAP3 SWAP1 SWAP2 AND SWAP2 DUP10 SWAP1 DUP10 SWAP1 PUSH1 0x44 DUP2 ADD PUSH2 0xF45 JUMP JUMPDEST PUSH1 0x40 DUP1 MLOAD PUSH1 0x1F NOT DUP2 DUP5 SUB ADD DUP2 MSTORE SWAP2 DUP2 MSTORE PUSH1 0x20 DUP1 DUP4 ADD DUP1 MLOAD PUSH1 0x1 PUSH1 0x1 PUSH1 0xE0 SHL SUB AND PUSH1 0x1 PUSH1 0x1 PUSH1 0xE0 SHL SUB NOT SWAP6 DUP7 AND OR SWAP1 MSTORE DUP2 MLOAD PUSH1 0x0 DUP2 MSTORE SWAP1 DUP2 ADD SWAP2 DUP3 SWAP1 MSTORE PUSH1 0xE0 DUP7 SWAP1 SHL SWAP1 SWAP4 AND SWAP1 MSTORE PUSH2 0x8F8 SWAP3 SWAP2 PUSH1 0x24 DUP2 ADD PUSH2 0xF97 JUMP JUMPDEST PUSH1 0x0 PUSH1 0x40 MLOAD DUP1 DUP4 SUB DUP2 PUSH1 0x0 DUP8 GAS CALL ISZERO DUP1 ISZERO PUSH2 0x917 JUMPI RETURNDATASIZE PUSH1 0x0 DUP1 RETURNDATACOPY RETURNDATASIZE PUSH1 0x0 REVERT JUMPDEST POP POP POP POP PUSH1 0x40 MLOAD RETURNDATASIZE PUSH1 0x0 DUP3 RETURNDATACOPY PUSH1 0x1F RETURNDATASIZE SWAP1 DUP2 ADD PUSH1 0x1F NOT AND DUP3 ADD PUSH1 0x40 MSTORE PUSH2 0x93F SWAP2 SWAP1 DUP2 ADD SWAP1 PUSH2 0x107F JUMP JUMPDEST POP DUP1 PUSH1 0x6 PUSH1 0x0 DUP3 DUP3 SLOAD PUSH2 0x952 SWAP2 SWAP1 PUSH2 0x116C JUMP JUMPDEST SWAP1 SWAP2 SSTORE POP POP POP POP JUMP JUMPDEST PUSH1 0x0 SLOAD PUSH1 0x1 PUSH1 0x1 PUSH1 0xA0 SHL SUB AND CALLER EQ PUSH2 0x985 JUMPI PUSH1 0x40 MLOAD PUSH3 0x461BCD PUSH1 0xE5 SHL DUP2 MSTORE PUSH1 0x4 ADD PUSH2 0x39C SWAP1 PUSH2 0x10BC JUMP JUMPDEST PUSH1 0x4 DUP1 SLOAD PUSH1 0x1 PUSH1 0x1 PUSH1 0xA0 SHL SUB NOT AND PUSH1 0x1 PUSH1 0x1 PUSH1 0xA0 SHL SUB SWAP3 SWAP1 SWAP3 AND SWAP2 SWAP1 SWAP2 OR SWAP1 SSTORE JUMP JUMPDEST PUSH1 0x0 SLOAD PUSH1 0x1 PUSH1 0x1 PUSH1 0xA0 SHL SUB AND CALLER EQ PUSH2 0x9D1 JUMPI PUSH1 0x40 MLOAD PUSH3 0x461BCD PUSH1 0xE5 SHL DUP2 MSTORE PUSH1 0x4 ADD PUSH2 0x39C SWAP1 PUSH2 0x10BC JUMP JUMPDEST PUSH1 0x1 PUSH1 0x1 PUSH1 0xA0 SHL SUB DUP2 AND PUSH2 0xA36 JUMPI PUSH1 0x40 MLOAD PUSH3 0x461BCD PUSH1 0xE5 SHL DUP2 MSTORE PUSH1 0x20 PUSH1 0x4 DUP3 ADD MSTORE PUSH1 0x26 PUSH1 0x24 DUP3 ADD MSTORE PUSH32 0x4F776E61626C653A206E6577206F776E657220697320746865207A65726F2061 PUSH1 0x44 DUP3 ADD MSTORE PUSH6 0x646472657373 PUSH1 0xD0 SHL PUSH1 0x64 DUP3 ADD MSTORE PUSH1 0x84 ADD PUSH2 0x39C JUMP JUMPDEST PUSH2 0xA3F DUP2 PUSH2 0xC3F JUMP JUMPDEST POP JUMP JUMPDEST PUSH1 0x2 SLOAD PUSH1 0x40 MLOAD PUSH4 0x1FB6491D PUSH1 0xE1 SHL DUP2 MSTORE PUSH1 0x0 SWAP2 PUSH1 0x1 PUSH1 0x1 PUSH1 0xA0 SHL SUB AND SWAP1 PUSH4 0x3F6C923A SWAP1 PUSH2 0xA75 SWAP1 DUP8 SWAP1 DUP8 SWAP1 PUSH1 0x4 ADD PUSH2 0x1192 JUMP JUMPDEST PUSH1 0x0 PUSH1 0x40 MLOAD DUP1 DUP4 SUB DUP2 DUP7 GAS STATICCALL ISZERO DUP1 ISZERO PUSH2 0xA92 JUMPI RETURNDATASIZE PUSH1 0x0 DUP1 RETURNDATACOPY RETURNDATASIZE PUSH1 0x0 REVERT JUMPDEST POP POP POP POP PUSH1 0x40 MLOAD RETURNDATASIZE PUSH1 0x0 DUP3 RETURNDATACOPY PUSH1 0x1F RETURNDATASIZE SWAP1 DUP2 ADD PUSH1 0x1F NOT AND DUP3 ADD PUSH1 0x40 MSTORE PUSH2 0xABA SWAP2 SWAP1 DUP2 ADD SWAP1 PUSH2 0x11F5 JUMP JUMPDEST PUSH1 0x80 DUP2 ADD MLOAD SWAP1 SWAP2 POP PUSH1 0x1 PUSH1 0x1 PUSH1 0xE0 SHL SUB NOT AND PUSH4 0x2985AC9F PUSH1 0xE1 SHL ADD PUSH2 0xC38 JUMPI PUSH1 0x3 SLOAD PUSH1 0x40 MLOAD PUSH4 0xCD7245C5 PUSH1 0xE0 SHL DUP2 MSTORE PUSH1 0x1 PUSH1 0x1 PUSH1 0xA0 SHL SUB DUP8 DUP2 AND PUSH1 0x4 DUP4 ADD MSTORE PUSH1 0x24 DUP3 ADD DUP6 SWAP1 MSTORE PUSH1 0x0 SWAP3 DUP4 SWAP3 DUP4 SWAP3 DUP4 SWAP3 DUP4 SWAP3 SWAP2 AND SWAP1 PUSH4 0xCD7245C5 SWAP1 PUSH1 0x44 ADD PUSH1 0xA0 PUSH1 0x40 MLOAD DUP1 DUP4 SUB DUP2 DUP7 GAS STATICCALL ISZERO DUP1 ISZERO PUSH2 0xB34 JUMPI RETURNDATASIZE PUSH1 0x0 DUP1 RETURNDATACOPY RETURNDATASIZE PUSH1 0x0 REVERT JUMPDEST POP POP POP POP PUSH1 0x40 MLOAD RETURNDATASIZE PUSH1 0x1F NOT PUSH1 0x1F DUP3 ADD AND DUP3 ADD DUP1 PUSH1 0x40 MSTORE POP DUP2 ADD SWAP1 PUSH2 0xB58 SWAP2 SWAP1 PUSH2 0x12FC JUMP JUMPDEST SWAP4 SWAP9 POP SWAP2 SWAP7 POP SWAP5 POP SWAP3 POP SWAP1 POP PUSH1 0x1 PUSH1 0x1 PUSH1 0xA0 SHL SUB DUP6 AND ADDRESS EQ PUSH2 0xBB6 JUMPI PUSH1 0x40 MLOAD PUSH3 0x461BCD PUSH1 0xE5 SHL DUP2 MSTORE PUSH1 0x20 PUSH1 0x4 DUP3 ADD MSTORE PUSH1 0x17 PUSH1 0x24 DUP3 ADD MSTORE PUSH23 0x88A4A87440E0EAC4D8D2E6D0CAE440DAD2E6DAC2E8C6D PUSH1 0x4B SHL PUSH1 0x44 DUP3 ADD MSTORE PUSH1 0x64 ADD PUSH2 0x39C JUMP JUMPDEST PUSH4 0xFFFFFFFF DUP5 AND ISZERO PUSH2 0xC04 JUMPI PUSH1 0x40 MLOAD PUSH3 0x461BCD PUSH1 0xE5 SHL DUP2 MSTORE PUSH1 0x20 PUSH1 0x4 DUP3 ADD MSTORE PUSH1 0x17 PUSH1 0x24 DUP3 ADD MSTORE PUSH23 0x88A4A87440E0EAC4D8D2E6D0CAE440DAD2E6DAC2E8C6D PUSH1 0x4B SHL PUSH1 0x44 DUP3 ADD MSTORE PUSH1 0x64 ADD PUSH2 0x39C JUMP JUMPDEST DUP3 ISZERO PUSH2 0xC32 JUMPI PUSH1 0x60 DUP7 ADD MLOAD PUSH1 0x1 PUSH1 0x1 PUSH1 0xA0 SHL SUB AND PUSH1 0x0 SWAP1 DUP2 MSTORE PUSH1 0x7 PUSH1 0x20 MSTORE PUSH1 0x40 SWAP1 KECCAK256 DUP1 SLOAD PUSH1 0xFF NOT AND PUSH1 0x1 OR SWAP1 SSTORE JUMPDEST POP POP POP POP POP JUMPDEST POP POP POP POP POP JUMP JUMPDEST PUSH1 0x0 DUP1 SLOAD PUSH1 0x1 PUSH1 0x1 PUSH1 0xA0 SHL SUB DUP4 DUP2 AND PUSH1 0x1 PUSH1 0x1 PUSH1 0xA0 SHL SUB NOT DUP4 AND DUP2 OR DUP5 SSTORE PUSH1 0x40 MLOAD SWAP2 SWAP1 SWAP3 AND SWAP3 DUP4 SWAP2 PUSH32 0x8BE0079C531659141344CD1FD0A4F28419497F9722A3DAAFE3B4186F6B6457E0 SWAP2 SWAP1 LOG3 POP POP JUMP JUMPDEST PUSH1 0x1 PUSH1 0x1 PUSH1 0xA0 SHL SUB DUP2 AND DUP2 EQ PUSH2 0xA3F JUMPI PUSH1 0x0 DUP1 REVERT JUMPDEST PUSH1 0x0 DUP1 DUP4 PUSH1 0x1F DUP5 ADD SLT PUSH2 0xCB6 JUMPI PUSH1 0x0 DUP1 REVERT JUMPDEST POP DUP2 CALLDATALOAD PUSH8 0xFFFFFFFFFFFFFFFF DUP2 GT ISZERO PUSH2 0xCCE JUMPI PUSH1 0x0 DUP1 REVERT JUMPDEST PUSH1 0x20 DUP4 ADD SWAP2 POP DUP4 PUSH1 0x20 DUP3 DUP6 ADD ADD GT ISZERO PUSH2 0xCE6 JUMPI PUSH1 0x0 DUP1 REVERT JUMPDEST SWAP3 POP SWAP3 SWAP1 POP JUMP JUMPDEST PUSH1 0x0 DUP1 PUSH1 0x0 DUP1 PUSH1 0x0 DUP1 PUSH1 0x0 DUP1 PUSH1 0x0 PUSH1 0xC0 DUP11 DUP13 SUB SLT ISZERO PUSH2 0xD0B JUMPI PUSH1 0x0 DUP1 REVERT JUMPDEST DUP10 CALLDATALOAD PUSH2 0xD16 DUP2 PUSH2 0xC8F JUMP JUMPDEST SWAP9 POP PUSH1 0x20 DUP11 ADD CALLDATALOAD PUSH2 0xD26 DUP2 PUSH2 0xC8F JUMP JUMPDEST SWAP8 POP PUSH1 0x40 DUP11 ADD CALLDATALOAD SWAP7 POP PUSH1 0x60 DUP11 ADD CALLDATALOAD PUSH8 0xFFFFFFFFFFFFFFFF DUP1 DUP3 GT ISZERO PUSH2 0xD4A JUMPI PUSH1 0x0 DUP1 REVERT JUMPDEST PUSH2 0xD56 DUP14 DUP4 DUP15 ADD PUSH2 0xCA4 JUMP JUMPDEST SWAP1 SWAP9 POP SWAP7 POP PUSH1 0x80 DUP13 ADD CALLDATALOAD SWAP2 POP DUP1 DUP3 GT ISZERO PUSH2 0xD6F JUMPI PUSH1 0x0 DUP1 REVERT JUMPDEST PUSH2 0xD7B DUP14 DUP4 DUP15 ADD PUSH2 0xCA4 JUMP JUMPDEST SWAP1 SWAP7 POP SWAP5 POP PUSH1 0xA0 DUP13 ADD CALLDATALOAD SWAP2 POP DUP1 DUP3 GT ISZERO PUSH2 0xD94 JUMPI PUSH1 0x0 DUP1 REVERT JUMPDEST POP PUSH2 0xDA1 DUP13 DUP3 DUP14 ADD PUSH2 0xCA4 JUMP JUMPDEST SWAP2 POP DUP1 SWAP4 POP POP DUP1 SWAP2 POP POP SWAP3 SWAP6 SWAP9 POP SWAP3 SWAP6 SWAP9 POP SWAP3 SWAP6 SWAP9 JUMP JUMPDEST PUSH1 0x0 JUMPDEST DUP4 DUP2 LT ISZERO PUSH2 0xDD3 JUMPI DUP2 DUP2 ADD MLOAD DUP4 DUP3 ADD MSTORE PUSH1 0x20 ADD PUSH2 0xDBB JUMP JUMPDEST DUP4 DUP2 GT ISZERO PUSH2 0xDE2 JUMPI PUSH1 0x0 DUP5 DUP5 ADD MSTORE JUMPDEST POP POP POP POP JUMP JUMPDEST PUSH1 0x0 DUP2 MLOAD DUP1 DUP5 MSTORE PUSH2 0xE00 DUP2 PUSH1 0x20 DUP7 ADD PUSH1 0x20 DUP7 ADD PUSH2 0xDB8 JUMP JUMPDEST PUSH1 0x1F ADD PUSH1 0x1F NOT AND SWAP3 SWAP1 SWAP3 ADD PUSH1 0x20 ADD SWAP3 SWAP2 POP POP JUMP JUMPDEST PUSH1 0x20 DUP2 MSTORE PUSH1 0x0 PUSH2 0xE27 PUSH1 0x20 DUP4 ADD DUP5 PUSH2 0xDE8 JUMP JUMPDEST SWAP4 SWAP3 POP POP POP JUMP JUMPDEST PUSH1 0x0 DUP1 PUSH1 0x0 DUP1 PUSH1 0x0 DUP1 PUSH1 0x0 PUSH1 0xA0 DUP9 DUP11 SUB SLT ISZERO PUSH2 0xE49 JUMPI PUSH1 0x0 DUP1 REVERT JUMPDEST DUP8 CALLDATALOAD PUSH2 0xE54 DUP2 PUSH2 0xC8F JUMP JUMPDEST SWAP7 POP PUSH1 0x20 DUP9 ADD CALLDATALOAD PUSH2 0xE64 DUP2 PUSH2 0xC8F JUMP JUMPDEST SWAP6 POP PUSH1 0x40 DUP9 ADD CALLDATALOAD SWAP5 POP PUSH1 0x60 DUP9 ADD CALLDATALOAD PUSH8 0xFFFFFFFFFFFFFFFF DUP1 DUP3 GT ISZERO PUSH2 0xE88 JUMPI PUSH1 0x0 DUP1 REVERT JUMPDEST PUSH2 0xE94 DUP12 DUP4 DUP13 ADD PUSH2 0xCA4 JUMP JUMPDEST SWAP1 SWAP7 POP SWAP5 POP PUSH1 0x80 DUP11 ADD CALLDATALOAD SWAP2 POP DUP1 DUP3 GT ISZERO PUSH2 0xEAD JUMPI PUSH1 0x0 DUP1 REVERT JUMPDEST POP PUSH2 0xEBA DUP11 DUP3 DUP12 ADD PUSH2 0xCA4 JUMP JUMPDEST SWAP9 SWAP12 SWAP8 SWAP11 POP SWAP6 SWAP9 POP SWAP4 SWAP7 SWAP3 SWAP6 SWAP3 SWAP4 POP POP POP JUMP JUMPDEST PUSH1 0x0 PUSH1 0x20 DUP3 DUP5 SUB SLT ISZERO PUSH2 0xEDF JUMPI PUSH1 0x0 DUP1 REVERT JUMPDEST DUP2 CALLDATALOAD PUSH2 0xE27 DUP2 PUSH2 0xC8F JUMP JUMPDEST PUSH1 0x0 PUSH1 0x20 DUP3 DUP5 SUB SLT ISZERO PUSH2 0xEFC JUMPI PUSH1 0x0 DUP1 REVERT JUMPDEST POP CALLDATALOAD SWAP2 SWAP1 POP JUMP JUMPDEST PUSH1 0x0 DUP1 PUSH1 0x40 DUP4 DUP6 SUB SLT ISZERO PUSH2 0xF16 JUMPI PUSH1 0x0 DUP1 REVERT JUMPDEST DUP3 CALLDATALOAD PUSH2 0xF21 DUP2 PUSH2 0xC8F JUMP JUMPDEST SWAP5 PUSH1 0x20 SWAP4 SWAP1 SWAP4 ADD CALLDATALOAD SWAP4 POP POP POP JUMP JUMPDEST PUSH4 0x4E487B71 PUSH1 0xE0 SHL PUSH1 0x0 MSTORE PUSH1 0x41 PUSH1 0x4 MSTORE PUSH1 0x24 PUSH1 0x0 REVERT JUMPDEST PUSH1 0x1 PUSH1 0x1 PUSH1 0xA0 SHL SUB DUP7 DUP2 AND DUP3 MSTORE PUSH4 0xFFFFFFFF DUP7 AND PUSH1 0x20 DUP4 ADD MSTORE DUP5 AND PUSH1 0x40 DUP3 ADD MSTORE PUSH1 0x1 PUSH1 0x1 PUSH1 0x80 SHL SUB DUP4 AND PUSH1 0x60 DUP3 ADD MSTORE PUSH1 0xA0 PUSH1 0x80 DUP3 ADD DUP2 SWAP1 MSTORE PUSH1 0x0 SWAP1 PUSH2 0xF8C SWAP1 DUP4 ADD DUP5 PUSH2 0xDE8 JUMP JUMPDEST SWAP8 SWAP7 POP POP POP POP POP POP POP JUMP JUMPDEST PUSH1 0x1 PUSH1 0x1 PUSH1 0xA0 SHL SUB DUP5 AND DUP2 MSTORE PUSH1 0x60 PUSH1 0x20 DUP3 ADD DUP2 SWAP1 MSTORE PUSH1 0x0 SWAP1 PUSH2 0xFBB SWAP1 DUP4 ADD DUP6 PUSH2 0xDE8 JUMP JUMPDEST DUP3 DUP2 SUB PUSH1 0x40 DUP5 ADD MSTORE PUSH2 0xFCD DUP2 DUP6 PUSH2 0xDE8 JUMP JUMPDEST SWAP7 SWAP6 POP POP POP POP POP POP JUMP JUMPDEST PUSH1 0x40 MLOAD PUSH2 0x160 DUP2 ADD PUSH8 0xFFFFFFFFFFFFFFFF DUP2 GT DUP3 DUP3 LT OR ISZERO PUSH2 0xFFB JUMPI PUSH2 0xFFB PUSH2 0xF2F JUMP JUMPDEST PUSH1 0x40 MSTORE SWAP1 JUMP JUMPDEST PUSH1 0x0 DUP3 PUSH1 0x1F DUP4 ADD SLT PUSH2 0x1012 JUMPI PUSH1 0x0 DUP1 REVERT JUMPDEST DUP2 MLOAD PUSH8 0xFFFFFFFFFFFFFFFF DUP1 DUP3 GT ISZERO PUSH2 0x102D JUMPI PUSH2 0x102D PUSH2 0xF2F JUMP JUMPDEST PUSH1 0x40 MLOAD PUSH1 0x1F DUP4 ADD PUSH1 0x1F NOT SWAP1 DUP2 AND PUSH1 0x3F ADD AND DUP2 ADD SWAP1 DUP3 DUP3 GT DUP2 DUP4 LT OR ISZERO PUSH2 0x1055 JUMPI PUSH2 0x1055 PUSH2 0xF2F JUMP JUMPDEST DUP2 PUSH1 0x40 MSTORE DUP4 DUP2 MSTORE DUP7 PUSH1 0x20 DUP6 DUP9 ADD ADD GT ISZERO PUSH2 0x106E JUMPI PUSH1 0x0 DUP1 REVERT JUMPDEST PUSH2 0xFCD DUP5 PUSH1 0x20 DUP4 ADD PUSH1 0x20 DUP10 ADD PUSH2 0xDB8 JUMP JUMPDEST PUSH1 0x0 PUSH1 0x20 DUP3 DUP5 SUB SLT ISZERO PUSH2 0x1091 JUMPI PUSH1 0x0 DUP1 REVERT JUMPDEST DUP2 MLOAD PUSH8 0xFFFFFFFFFFFFFFFF DUP2 GT ISZERO PUSH2 0x10A8 JUMPI PUSH1 0x0 DUP1 REVERT JUMPDEST PUSH2 0x10B4 DUP5 DUP3 DUP6 ADD PUSH2 0x1001 JUMP JUMPDEST SWAP5 SWAP4 POP POP POP POP JUMP JUMPDEST PUSH1 0x20 DUP1 DUP3 MSTORE DUP2 DUP2 ADD MSTORE PUSH32 0x4F776E61626C653A2063616C6C6572206973206E6F7420746865206F776E6572 PUSH1 0x40 DUP3 ADD MSTORE PUSH1 0x60 ADD SWAP1 JUMP JUMPDEST DUP1 MLOAD PUSH1 0x1 PUSH1 0x1 PUSH1 0x80 SHL SUB DUP2 AND DUP2 EQ PUSH2 0x1108 JUMPI PUSH1 0x0 DUP1 REVERT JUMPDEST SWAP2 SWAP1 POP JUMP JUMPDEST PUSH1 0x0 DUP1 PUSH1 0x40 DUP4 DUP6 SUB SLT ISZERO PUSH2 0x1120 JUMPI PUSH1 0x0 DUP1 REVERT JUMPDEST DUP3 MLOAD SWAP2 POP PUSH2 0x1130 PUSH1 0x20 DUP5 ADD PUSH2 0x10F1 JUMP JUMPDEST SWAP1 POP SWAP3 POP SWAP3 SWAP1 POP JUMP JUMPDEST PUSH1 0x1 DUP1 PUSH1 0xA0 SHL SUB DUP6 AND DUP2 MSTORE PUSH4 0xFFFFFFFF DUP5 AND PUSH1 0x20 DUP3 ADD MSTORE DUP3 PUSH1 0x40 DUP3 ADD MSTORE PUSH1 0x80 PUSH1 0x60 DUP3 ADD MSTORE PUSH1 0x0 PUSH2 0xFCD PUSH1 0x80 DUP4 ADD DUP5 PUSH2 0xDE8 JUMP JUMPDEST PUSH1 0x0 DUP3 NOT DUP3 GT ISZERO PUSH2 0x118D JUMPI PUSH4 0x4E487B71 PUSH1 0xE0 SHL PUSH1 0x0 MSTORE PUSH1 0x11 PUSH1 0x4 MSTORE PUSH1 0x24 PUSH1 0x0 REVERT JUMPDEST POP ADD SWAP1 JUMP JUMPDEST PUSH1 0x20 DUP2 MSTORE DUP2 PUSH1 0x20 DUP3 ADD MSTORE DUP2 DUP4 PUSH1 0x40 DUP4 ADD CALLDATACOPY PUSH1 0x0 DUP2 DUP4 ADD PUSH1 0x40 SWAP1 DUP2 ADD SWAP2 SWAP1 SWAP2 MSTORE PUSH1 0x1F SWAP1 SWAP3 ADD PUSH1 0x1F NOT AND ADD ADD SWAP2 SWAP1 POP JUMP JUMPDEST DUP1 MLOAD PUSH1 0xFF DUP2 AND DUP2 EQ PUSH2 0x1108 JUMPI PUSH1 0x0 DUP1 REVERT JUMPDEST DUP1 MLOAD PUSH2 0x1108 DUP2 PUSH2 0xC8F JUMP JUMPDEST DUP1 MLOAD PUSH1 0x1 PUSH1 0x1 PUSH1 0xE0 SHL SUB NOT DUP2 AND DUP2 EQ PUSH2 0x1108 JUMPI PUSH1 0x0 DUP1 REVERT JUMPDEST PUSH1 0x0 PUSH1 0x20 DUP3 DUP5 SUB SLT ISZERO PUSH2 0x1207 JUMPI PUSH1 0x0 DUP1 REVERT JUMPDEST DUP2 MLOAD PUSH8 0xFFFFFFFFFFFFFFFF DUP1 DUP3 GT ISZERO PUSH2 0x121F JUMPI PUSH1 0x0 DUP1 REVERT JUMPDEST SWAP1 DUP4 ADD SWAP1 PUSH2 0x160 DUP3 DUP7 SUB SLT ISZERO PUSH2 0x1234 JUMPI PUSH1 0x0 DUP1 REVERT JUMPDEST PUSH2 0x123C PUSH2 0xFD7 JUMP JUMPDEST PUSH2 0x1245 DUP4 PUSH2 0x11C1 JUMP JUMPDEST DUP2 MSTORE PUSH2 0x1253 PUSH1 0x20 DUP5 ADD PUSH2 0x11C1 JUMP JUMPDEST PUSH1 0x20 DUP3 ADD MSTORE PUSH1 0x40 DUP4 ADD MLOAD PUSH1 0x40 DUP3 ADD MSTORE PUSH2 0x126E PUSH1 0x60 DUP5 ADD PUSH2 0x11D2 JUMP JUMPDEST PUSH1 0x60 DUP3 ADD MSTORE PUSH2 0x127F PUSH1 0x80 DUP5 ADD PUSH2 0x11DD JUMP JUMPDEST PUSH1 0x80 DUP3 ADD MSTORE PUSH1 0xA0 DUP4 ADD MLOAD DUP3 DUP2 GT ISZERO PUSH2 0x1296 JUMPI PUSH1 0x0 DUP1 REVERT JUMPDEST PUSH2 0x12A2 DUP8 DUP3 DUP7 ADD PUSH2 0x1001 JUMP JUMPDEST PUSH1 0xA0 DUP4 ADD MSTORE POP PUSH1 0xC0 DUP4 ADD MLOAD PUSH1 0xC0 DUP3 ADD MSTORE PUSH1 0xE0 DUP4 ADD MLOAD PUSH1 0xE0 DUP3 ADD MSTORE PUSH2 0x100 SWAP2 POP DUP2 DUP4 ADD MLOAD DUP3 DUP3 ADD MSTORE PUSH2 0x120 SWAP2 POP PUSH2 0x12D9 DUP3 DUP5 ADD PUSH2 0x11D2 JUMP JUMPDEST DUP3 DUP3 ADD MSTORE PUSH2 0x140 SWAP2 POP PUSH2 0x12ED DUP3 DUP5 ADD PUSH2 0x11D2 JUMP JUMPDEST SWAP2 DUP2 ADD SWAP2 SWAP1 SWAP2 MSTORE SWAP5 SWAP4 POP POP POP POP JUMP JUMPDEST PUSH1 0x0 DUP1 PUSH1 0x0 DUP1 PUSH1 0x0 PUSH1 0xA0 DUP7 DUP9 SUB SLT ISZERO PUSH2 0x1314 JUMPI PUSH1 0x0 DUP1 REVERT JUMPDEST DUP6 MLOAD PUSH2 0x131F DUP2 PUSH2 0xC8F JUMP JUMPDEST PUSH1 0x20 DUP8 ADD MLOAD SWAP1 SWAP6 POP PUSH4 0xFFFFFFFF DUP2 AND DUP2 EQ PUSH2 0x1339 JUMPI PUSH1 0x0 DUP1 REVERT JUMPDEST PUSH1 0x40 DUP8 ADD MLOAD SWAP1 SWAP5 POP DUP1 ISZERO ISZERO DUP2 EQ PUSH2 0x134F JUMPI PUSH1 0x0 DUP1 REVERT JUMPDEST SWAP3 POP PUSH2 0x135D PUSH1 0x60 DUP8 ADD PUSH2 0x10F1 JUMP JUMPDEST SWAP2 POP PUSH1 0x80 DUP7 ADD MLOAD SWAP1 POP SWAP3 SWAP6 POP SWAP3 SWAP6 SWAP1 SWAP4 POP JUMP INVALID LOG2 PUSH5 0x6970667358 0x22 SLT KECCAK256 SELFBALANCE SDIV BLOCKHASH 0xB3 PUSH16 0xDBDE685F76F528B42CB93B799650D510 0x2E AND PUSH8 0xEC8A3FBA8E301170 PUSH5 0x736F6C6343 STOP ADDMOD 0xD STOP CALLER ",
  "sha1": "5b407344c47f10ba5593ef7c34bbe03bd12c19e4",
  "source": "// SPDX-License-Identifier: MIT\npragma solidity ^0.8.0;\n\nimport {ISuperfluid, ISuperToken, SuperAppDefinitions} from \"@superfluid/interfaces/superfluid/ISuperfluid.sol\";\nimport {IInstantDistributionAgreementV1} from \"@superfluid/interfaces/agreements/IInstantDistributionAgreementV1.sol\";\n\nimport {Ownable} from \"@openzeppelin/contracts/access/Ownable.sol\";\n\nimport {SuperAppBase} from \"@superfluid/apps/SuperAppBase.sol\";\n\ncontract TrustIDA is SuperAppBase, Ownable {\n    ISuperToken private _cashToken;\n    ISuperfluid private _host;\n    IInstantDistributionAgreementV1 private _ida;\n    address public trusContract;\n    address public keeper;\n\n    uint256 public amountTodistribute;\n\n    mapping(address => bool) public isSubscribing;\n    uint32 public constant INDEX_ID = 0;\n\n    constructor(\n        ISuperToken cashToken,\n        ISuperfluid host,\n        IInstantDistributionAgreementV1 ida\n    ) {\n        _cashToken = cashToken;\n        _host = host;\n        _ida = ida;\n\n        uint256 configWord = SuperAppDefinitions.APP_LEVEL_FINAL |\n            SuperAppDefinitions.BEFORE_AGREEMENT_TERMINATED_NOOP |\n            SuperAppDefinitions.AFTER_AGREEMENT_TERMINATED_NOOP;\n\n        _host.registerApp(configWord);\n\n        _host.callAgreement(\n            _ida,\n            abi.encodeWithSelector(\n                _ida.createIndex.selector,\n                _cashToken,\n                INDEX_ID,\n                new bytes(0) // placeholder ctx\n            ),\n            new bytes(0) // user data\n        );\n    }\n\n    function _checkSubscription(\n        ISuperToken superToken,\n        bytes calldata ctx,\n        bytes32 agreementId\n    ) private {\n        ISuperfluid.Context memory context = _host.decodeCtx(ctx);\n        // only interested in the subscription approval callbacks\n        if (\n            context.agreementSelector ==\n            IInstantDistributionAgreementV1.approveSubscription.selector\n        ) {\n            address publisher;\n            uint32 indexId;\n            bool approved;\n            uint128 units;\n            uint256 pendingDistribution;\n            (publisher, indexId, approved, units, pendingDistribution) = _ida\n                .getSubscriptionByID(superToken, agreementId);\n\n            // sanity checks for testing purpose\n            require(publisher == address(this), \"DRT: publisher mismatch\");\n            require(indexId == INDEX_ID, \"DRT: publisher mismatch\");\n\n            if (approved) {\n                isSubscribing[\n                    context.msgSender /* subscriber */\n                ] = true;\n            }\n        }\n    }\n\n    function getAddressIndexId(address _employer)\n        public\n        pure\n        returns (uint32 indexID)\n    {\n        uint256 addressUint = uint256(uint160(_employer));\n        indexID = uint32(addressUint);\n    }\n\n    function distribute(uint256 cashAmount) external onlyOwner {\n        (uint256 actualCashAmount, ) = _ida.calculateDistribution(\n            _cashToken,\n            address(this),\n            INDEX_ID,\n            cashAmount\n        );\n\n        _host.callAgreement(\n            _ida,\n            abi.encodeWithSelector(\n                _ida.distribute.selector,\n                _cashToken,\n                INDEX_ID,\n                actualCashAmount,\n                new bytes(0) // placeholder ctx\n            ),\n            new bytes(0) // user data\n        );\n    }\n\n    function _addAddressToIndex(address recipient, uint256 amount) external {\n        _host.callAgreement(\n            _ida,\n            abi.encodeWithSelector(\n                _ida.updateSubscription.selector,\n                _cashToken,\n                INDEX_ID,\n                recipient,\n                uint128(amount),\n                new bytes(0) // placeholder ctx\n            ),\n            new bytes(0) // user data\n        );\n        amountTodistribute += amount;\n    }\n\n    function removeAddress(address _employee) external {\n        _host.callAgreement(\n            _ida,\n            abi.encodeWithSelector(\n                _ida.updateSubscription.selector,\n                _cashToken,\n                INDEX_ID,\n                _employee,\n                uint128(0),\n                new bytes(0) // placeholder ctx\n            ),\n            new bytes(0) // user data\n        );\n    }\n\n    function addAdmin(address _keeper) external onlyOwner {\n        keeper = _keeper;\n    }\n\n    function addIdaContract(address _trust) external onlyOwner {\n        trusContract = _trust;\n    }\n\n    function afterAgreementCreated(\n        ISuperToken superToken,\n        address, /* agreementClass */\n        bytes32 agreementId,\n        bytes calldata, /*agreementData*/\n        bytes calldata, /*cbdata*/\n        bytes calldata ctx\n    ) external override returns (bytes memory newCtx) {\n        _checkSubscription(superToken, ctx, agreementId);\n        newCtx = ctx;\n    }\n\n    function beforeAgreementUpdated(\n        ISuperToken superToken,\n        address agreementClass,\n        bytes32, /* agreementId */\n        bytes calldata, /*agreementData*/\n        bytes calldata /*ctx*/\n    ) external view override returns (bytes memory data) {\n        require(superToken == _cashToken, \"DRT: Unsupported cash token\");\n        require(agreementClass == address(_ida), \"DRT: Unsupported agreement\");\n        return new bytes(0);\n    }\n\n    function afterAgreementUpdated(\n        ISuperToken superToken,\n        address, /* agreementClass */\n        bytes32 agreementId,\n        bytes calldata, /*agreementData*/\n        bytes calldata, /*cbdata*/\n        bytes calldata ctx\n    ) external override returns (bytes memory newCtx) {\n        _checkSubscription(superToken, ctx, agreementId);\n        newCtx = ctx;\n    }\n}\n",
  "sourcePath": "contracts/TrustIDA.sol",
  "type": "contract"
}