{
  "abi": [
    {
      "inputs": [
        {
          "internalType": "contract ISwapRouter",
          "name": "_swapRouter",
          "type": "address"
        }
      ],
      "stateMutability": "nonpayable",
      "type": "constructor"
    },
    {
      "inputs": [],
      "name": "DAI",
      "outputs": [
        {
          "internalType": "address",
          "name": "",
          "type": "address"
        }
      ],
      "stateMutability": "view",
      "type": "function"
    },
    {
      "inputs": [],
      "name": "USDC",
      "outputs": [
        {
          "internalType": "address",
          "name": "",
          "type": "address"
        }
      ],
      "stateMutability": "view",
      "type": "function"
    },
    {
      "inputs": [],
      "name": "WETH9",
      "outputs": [
        {
          "internalType": "address",
          "name": "",
          "type": "address"
        }
      ],
      "stateMutability": "view",
      "type": "function"
    },
    {
      "inputs": [
        {
          "internalType": "string",
          "name": "_name",
          "type": "string"
        },
        {
          "internalType": "address",
          "name": "_assetAddress",
          "type": "address"
        }
      ],
      "name": "addAsset",
      "outputs": [],
      "stateMutability": "nonpayable",
      "type": "function"
    },
    {
      "inputs": [],
      "name": "poolFee",
      "outputs": [
        {
          "internalType": "uint24",
          "name": "",
          "type": "uint24"
        }
      ],
      "stateMutability": "view",
      "type": "function"
    },
    {
      "inputs": [
        {
          "internalType": "string",
          "name": "",
          "type": "string"
        }
      ],
      "name": "s_assetAddress",
      "outputs": [
        {
          "internalType": "address",
          "name": "",
          "type": "address"
        }
      ],
      "stateMutability": "view",
      "type": "function"
    },
    {
      "inputs": [
        {
          "internalType": "string",
          "name": "assetIn",
          "type": "string"
        },
        {
          "internalType": "string",
          "name": "assetOut",
          "type": "string"
        },
        {
          "internalType": "uint256",
          "name": "amountIn",
          "type": "uint256"
        }
      ],
      "name": "swapCollected",
      "outputs": [
        {
          "internalType": "uint256",
          "name": "amountOut",
          "type": "uint256"
        }
      ],
      "stateMutability": "nonpayable",
      "type": "function"
    },
    {
      "inputs": [],
      "name": "swapRouter",
      "outputs": [
        {
          "internalType": "contract ISwapRouter",
          "name": "",
          "type": "address"
        }
      ],
      "stateMutability": "view",
      "type": "function"
    }
  ],
  "bytecode": "60a060405234801561001057600080fd5b506040516107c63803806107c683398101604081905261002f91610040565b6001600160a01b0316608052610070565b60006020828403121561005257600080fd5b81516001600160a01b038116811461006957600080fd5b9392505050565b60805161072d6100996000396000818161016c0152818161021d0152610343015261072d6000f3fe608060405234801561001057600080fd5b50600436106100885760003560e01c8063adc02a641161005b578063adc02a6414610131578063b90a220814610146578063c31c9c0714610167578063e0bab4c41461018e57600080fd5b8063089fe6aa1461008d5780630ef4790a146100af5780634aa4a4fc146100fb57806389a3027114610116575b600080fd5b610096610bb881565b60405162ffffff90911681526020015b60405180910390f35b6100e36100bd366004610561565b80516020818301810180516000825292820191909301209152546001600160a01b031681565b6040516001600160a01b0390911681526020016100a6565b6100e373c02aaa39b223fe8d0a0e5c4f27ead9083c756cc281565b6100e373a0b86991c6218b36c1d19d4a2e9eb0ce3606eb4881565b61014461013f36600461059e565b6101a9565b005b6101596101543660046105fc565b6101ed565b6040519081526020016100a6565b6100e37f000000000000000000000000000000000000000000000000000000000000000081565b6100e3736b175474e89094c44da98b954eedeac495271d0f81565b806000836040516101ba9190610699565b90815260405190819003602001902080546001600160a01b03929092166001600160a01b03199092169190911790555050565b60006102426000856040516102029190610699565b908152604051908190036020019020546001600160a01b03167f0000000000000000000000000000000000000000000000000000000000000000846103ba565b60006040518061010001604052806000876040516102609190610699565b9081526040805160209281900383019020546001600160a01b031683525191019060009061028f908890610699565b9081526040805160209281900383019020546001600160a01b039081168452610bb88484015233848301524260608086019190915260808086018a9052600060a080880182905260c097880191909152845163414bf38960e01b815288518516600482015295880151841660248701529387015162ffffff166044860152908601518216606485015285015160848401529084015160a48301529183015160c482015260e0830151821660e48201529192507f0000000000000000000000000000000000000000000000000000000000000000169063414bf38990610104016020604051808303816000875af115801561038d573d6000803e3d6000fd5b505050506040513d601f19601f820116820180604052508101906103b191906106b5565b95945050505050565b604080516001600160a01b038481166024830152604480830185905283518084039091018152606490920183526020820180516001600160e01b031663095ea7b360e01b17905291516000928392908716916104169190610699565b6000604051808303816000865af19150503d8060008114610453576040519150601f19603f3d011682016040523d82523d6000602084013e610458565b606091505b509150915081801561048257508051158061048257508080602001905181019061048291906106ce565b6104b75760405162461bcd60e51b8152602060048201526002602482015261534160f01b604482015260640160405180910390fd5b5050505050565b634e487b7160e01b600052604160045260246000fd5b600082601f8301126104e557600080fd5b813567ffffffffffffffff80821115610500576105006104be565b604051601f8301601f19908116603f01168101908282118183101715610528576105286104be565b8160405283815286602085880101111561054157600080fd5b836020870160208301376000602085830101528094505050505092915050565b60006020828403121561057357600080fd5b813567ffffffffffffffff81111561058a57600080fd5b610596848285016104d4565b949350505050565b600080604083850312156105b157600080fd5b823567ffffffffffffffff8111156105c857600080fd5b6105d4858286016104d4565b92505060208301356001600160a01b03811681146105f157600080fd5b809150509250929050565b60008060006060848603121561061157600080fd5b833567ffffffffffffffff8082111561062957600080fd5b610635878388016104d4565b9450602086013591508082111561064b57600080fd5b50610658868287016104d4565b925050604084013590509250925092565b60005b8381101561068457818101518382015260200161066c565b83811115610693576000848401525b50505050565b600082516106ab818460208701610669565b9190910192915050565b6000602082840312156106c757600080fd5b5051919050565b6000602082840312156106e057600080fd5b815180151581146106f057600080fd5b939250505056fea2646970667358221220c70e41b526a99e90d5bbb2861490e7cd12f5d765527b3871695cdeffba7beb4d64736f6c634300080d0033",
  "bytecodeSha1": "3e9240070860c8d8a603bd8d49a6e4a7b48d5fb9",
  "compiler": {
    "evm_version": "istanbul",
    "optimizer": {
      "enabled": true,
      "runs": 200
    },
    "version": "0.8.13+commit.abaa5c0e"
  },
  "contractName": "TrustSwap",
  "language": "Solidity",
  "natspec": {
    "kind": "dev",
    "methods": {
      "swapCollected(string,string,uint256)": {
        "details": "The calling address must approve this contract to spend at least `amountIn` worth of its DAI for this function to succeed.",
        "notice": "swapExactInputSingle swaps a fixed amount of DAI for a maximum possible amount of WETH9 using the DAI/WETH9 0.3% pool by calling `exactInputSingle` in the swap router.",
        "params": {
          "amountIn": "The exact amount of DAI that will be swapped for WETH9."
        },
        "returns": {
          "amountOut": "The amount of WETH9 received."
        }
      }
    },
    "version": 1
  },
  "opcodes": "PUSH1 0x80 PUSH1 0x40 MSTORE CALLVALUE DUP1 ISZERO PUSH2 0x10 JUMPI PUSH1 0x0 DUP1 REVERT JUMPDEST POP PUSH1 0x4 CALLDATASIZE LT PUSH2 0x88 JUMPI PUSH1 0x0 CALLDATALOAD PUSH1 0xE0 SHR DUP1 PUSH4 0xADC02A64 GT PUSH2 0x5B JUMPI DUP1 PUSH4 0xADC02A64 EQ PUSH2 0x131 JUMPI DUP1 PUSH4 0xB90A2208 EQ PUSH2 0x146 JUMPI DUP1 PUSH4 0xC31C9C07 EQ PUSH2 0x167 JUMPI DUP1 PUSH4 0xE0BAB4C4 EQ PUSH2 0x18E JUMPI PUSH1 0x0 DUP1 REVERT JUMPDEST DUP1 PUSH4 0x89FE6AA EQ PUSH2 0x8D JUMPI DUP1 PUSH4 0xEF4790A EQ PUSH2 0xAF JUMPI DUP1 PUSH4 0x4AA4A4FC EQ PUSH2 0xFB JUMPI DUP1 PUSH4 0x89A30271 EQ PUSH2 0x116 JUMPI JUMPDEST PUSH1 0x0 DUP1 REVERT JUMPDEST PUSH2 0x96 PUSH2 0xBB8 DUP2 JUMP JUMPDEST PUSH1 0x40 MLOAD PUSH3 0xFFFFFF SWAP1 SWAP2 AND DUP2 MSTORE PUSH1 0x20 ADD JUMPDEST PUSH1 0x40 MLOAD DUP1 SWAP2 SUB SWAP1 RETURN JUMPDEST PUSH2 0xE3 PUSH2 0xBD CALLDATASIZE PUSH1 0x4 PUSH2 0x561 JUMP JUMPDEST DUP1 MLOAD PUSH1 0x20 DUP2 DUP4 ADD DUP2 ADD DUP1 MLOAD PUSH1 0x0 DUP3 MSTORE SWAP3 DUP3 ADD SWAP2 SWAP1 SWAP4 ADD KECCAK256 SWAP2 MSTORE SLOAD PUSH1 0x1 PUSH1 0x1 PUSH1 0xA0 SHL SUB AND DUP2 JUMP JUMPDEST PUSH1 0x40 MLOAD PUSH1 0x1 PUSH1 0x1 PUSH1 0xA0 SHL SUB SWAP1 SWAP2 AND DUP2 MSTORE PUSH1 0x20 ADD PUSH2 0xA6 JUMP JUMPDEST PUSH2 0xE3 PUSH20 0xC02AAA39B223FE8D0A0E5C4F27EAD9083C756CC2 DUP2 JUMP JUMPDEST PUSH2 0xE3 PUSH20 0xA0B86991C6218B36C1D19D4A2E9EB0CE3606EB48 DUP2 JUMP JUMPDEST PUSH2 0x144 PUSH2 0x13F CALLDATASIZE PUSH1 0x4 PUSH2 0x59E JUMP JUMPDEST PUSH2 0x1A9 JUMP JUMPDEST STOP JUMPDEST PUSH2 0x159 PUSH2 0x154 CALLDATASIZE PUSH1 0x4 PUSH2 0x5FC JUMP JUMPDEST PUSH2 0x1ED JUMP JUMPDEST PUSH1 0x40 MLOAD SWAP1 DUP2 MSTORE PUSH1 0x20 ADD PUSH2 0xA6 JUMP JUMPDEST PUSH2 0xE3 PUSH32 0x0 DUP2 JUMP JUMPDEST PUSH2 0xE3 PUSH20 0x6B175474E89094C44DA98B954EEDEAC495271D0F DUP2 JUMP JUMPDEST DUP1 PUSH1 0x0 DUP4 PUSH1 0x40 MLOAD PUSH2 0x1BA SWAP2 SWAP1 PUSH2 0x699 JUMP JUMPDEST SWAP1 DUP2 MSTORE PUSH1 0x40 MLOAD SWAP1 DUP2 SWAP1 SUB PUSH1 0x20 ADD SWAP1 KECCAK256 DUP1 SLOAD PUSH1 0x1 PUSH1 0x1 PUSH1 0xA0 SHL SUB SWAP3 SWAP1 SWAP3 AND PUSH1 0x1 PUSH1 0x1 PUSH1 0xA0 SHL SUB NOT SWAP1 SWAP3 AND SWAP2 SWAP1 SWAP2 OR SWAP1 SSTORE POP POP JUMP JUMPDEST PUSH1 0x0 PUSH2 0x242 PUSH1 0x0 DUP6 PUSH1 0x40 MLOAD PUSH2 0x202 SWAP2 SWAP1 PUSH2 0x699 JUMP JUMPDEST SWAP1 DUP2 MSTORE PUSH1 0x40 MLOAD SWAP1 DUP2 SWAP1 SUB PUSH1 0x20 ADD SWAP1 KECCAK256 SLOAD PUSH1 0x1 PUSH1 0x1 PUSH1 0xA0 SHL SUB AND PUSH32 0x0 DUP5 PUSH2 0x3BA JUMP JUMPDEST PUSH1 0x0 PUSH1 0x40 MLOAD DUP1 PUSH2 0x100 ADD PUSH1 0x40 MSTORE DUP1 PUSH1 0x0 DUP8 PUSH1 0x40 MLOAD PUSH2 0x260 SWAP2 SWAP1 PUSH2 0x699 JUMP JUMPDEST SWAP1 DUP2 MSTORE PUSH1 0x40 DUP1 MLOAD PUSH1 0x20 SWAP3 DUP2 SWAP1 SUB DUP4 ADD SWAP1 KECCAK256 SLOAD PUSH1 0x1 PUSH1 0x1 PUSH1 0xA0 SHL SUB AND DUP4 MSTORE MLOAD SWAP2 ADD SWAP1 PUSH1 0x0 SWAP1 PUSH2 0x28F SWAP1 DUP9 SWAP1 PUSH2 0x699 JUMP JUMPDEST SWAP1 DUP2 MSTORE PUSH1 0x40 DUP1 MLOAD PUSH1 0x20 SWAP3 DUP2 SWAP1 SUB DUP4 ADD SWAP1 KECCAK256 SLOAD PUSH1 0x1 PUSH1 0x1 PUSH1 0xA0 SHL SUB SWAP1 DUP2 AND DUP5 MSTORE PUSH2 0xBB8 DUP5 DUP5 ADD MSTORE CALLER DUP5 DUP4 ADD MSTORE TIMESTAMP PUSH1 0x60 DUP1 DUP7 ADD SWAP2 SWAP1 SWAP2 MSTORE PUSH1 0x80 DUP1 DUP7 ADD DUP11 SWAP1 MSTORE PUSH1 0x0 PUSH1 0xA0 DUP1 DUP9 ADD DUP3 SWAP1 MSTORE PUSH1 0xC0 SWAP8 DUP9 ADD SWAP2 SWAP1 SWAP2 MSTORE DUP5 MLOAD PUSH4 0x414BF389 PUSH1 0xE0 SHL DUP2 MSTORE DUP9 MLOAD DUP6 AND PUSH1 0x4 DUP3 ADD MSTORE SWAP6 DUP9 ADD MLOAD DUP5 AND PUSH1 0x24 DUP8 ADD MSTORE SWAP4 DUP8 ADD MLOAD PUSH3 0xFFFFFF AND PUSH1 0x44 DUP7 ADD MSTORE SWAP1 DUP7 ADD MLOAD DUP3 AND PUSH1 0x64 DUP6 ADD MSTORE DUP6 ADD MLOAD PUSH1 0x84 DUP5 ADD MSTORE SWAP1 DUP5 ADD MLOAD PUSH1 0xA4 DUP4 ADD MSTORE SWAP2 DUP4 ADD MLOAD PUSH1 0xC4 DUP3 ADD MSTORE PUSH1 0xE0 DUP4 ADD MLOAD DUP3 AND PUSH1 0xE4 DUP3 ADD MSTORE SWAP2 SWAP3 POP PUSH32 0x0 AND SWAP1 PUSH4 0x414BF389 SWAP1 PUSH2 0x104 ADD PUSH1 0x20 PUSH1 0x40 MLOAD DUP1 DUP4 SUB DUP2 PUSH1 0x0 DUP8 GAS CALL ISZERO DUP1 ISZERO PUSH2 0x38D JUMPI RETURNDATASIZE PUSH1 0x0 DUP1 RETURNDATACOPY RETURNDATASIZE PUSH1 0x0 REVERT JUMPDEST POP POP POP POP PUSH1 0x40 MLOAD RETURNDATASIZE PUSH1 0x1F NOT PUSH1 0x1F DUP3 ADD AND DUP3 ADD DUP1 PUSH1 0x40 MSTORE POP DUP2 ADD SWAP1 PUSH2 0x3B1 SWAP2 SWAP1 PUSH2 0x6B5 JUMP JUMPDEST SWAP6 SWAP5 POP POP POP POP POP JUMP JUMPDEST PUSH1 0x40 DUP1 MLOAD PUSH1 0x1 PUSH1 0x1 PUSH1 0xA0 SHL SUB DUP5 DUP2 AND PUSH1 0x24 DUP4 ADD MSTORE PUSH1 0x44 DUP1 DUP4 ADD DUP6 SWAP1 MSTORE DUP4 MLOAD DUP1 DUP5 SUB SWAP1 SWAP2 ADD DUP2 MSTORE PUSH1 0x64 SWAP1 SWAP3 ADD DUP4 MSTORE PUSH1 0x20 DUP3 ADD DUP1 MLOAD PUSH1 0x1 PUSH1 0x1 PUSH1 0xE0 SHL SUB AND PUSH4 0x95EA7B3 PUSH1 0xE0 SHL OR SWAP1 MSTORE SWAP2 MLOAD PUSH1 0x0 SWAP3 DUP4 SWAP3 SWAP1 DUP8 AND SWAP2 PUSH2 0x416 SWAP2 SWAP1 PUSH2 0x699 JUMP JUMPDEST PUSH1 0x0 PUSH1 0x40 MLOAD DUP1 DUP4 SUB DUP2 PUSH1 0x0 DUP7 GAS CALL SWAP2 POP POP RETURNDATASIZE DUP1 PUSH1 0x0 DUP2 EQ PUSH2 0x453 JUMPI PUSH1 0x40 MLOAD SWAP2 POP PUSH1 0x1F NOT PUSH1 0x3F RETURNDATASIZE ADD AND DUP3 ADD PUSH1 0x40 MSTORE RETURNDATASIZE DUP3 MSTORE RETURNDATASIZE PUSH1 0x0 PUSH1 0x20 DUP5 ADD RETURNDATACOPY PUSH2 0x458 JUMP JUMPDEST PUSH1 0x60 SWAP2 POP JUMPDEST POP SWAP2 POP SWAP2 POP DUP2 DUP1 ISZERO PUSH2 0x482 JUMPI POP DUP1 MLOAD ISZERO DUP1 PUSH2 0x482 JUMPI POP DUP1 DUP1 PUSH1 0x20 ADD SWAP1 MLOAD DUP2 ADD SWAP1 PUSH2 0x482 SWAP2 SWAP1 PUSH2 0x6CE JUMP JUMPDEST PUSH2 0x4B7 JUMPI PUSH1 0x40 MLOAD PUSH3 0x461BCD PUSH1 0xE5 SHL DUP2 MSTORE PUSH1 0x20 PUSH1 0x4 DUP3 ADD MSTORE PUSH1 0x2 PUSH1 0x24 DUP3 ADD MSTORE PUSH2 0x5341 PUSH1 0xF0 SHL PUSH1 0x44 DUP3 ADD MSTORE PUSH1 0x64 ADD PUSH1 0x40 MLOAD DUP1 SWAP2 SUB SWAP1 REVERT JUMPDEST POP POP POP POP POP JUMP JUMPDEST PUSH4 0x4E487B71 PUSH1 0xE0 SHL PUSH1 0x0 MSTORE PUSH1 0x41 PUSH1 0x4 MSTORE PUSH1 0x24 PUSH1 0x0 REVERT JUMPDEST PUSH1 0x0 DUP3 PUSH1 0x1F DUP4 ADD SLT PUSH2 0x4E5 JUMPI PUSH1 0x0 DUP1 REVERT JUMPDEST DUP2 CALLDATALOAD PUSH8 0xFFFFFFFFFFFFFFFF DUP1 DUP3 GT ISZERO PUSH2 0x500 JUMPI PUSH2 0x500 PUSH2 0x4BE JUMP JUMPDEST PUSH1 0x40 MLOAD PUSH1 0x1F DUP4 ADD PUSH1 0x1F NOT SWAP1 DUP2 AND PUSH1 0x3F ADD AND DUP2 ADD SWAP1 DUP3 DUP3 GT DUP2 DUP4 LT OR ISZERO PUSH2 0x528 JUMPI PUSH2 0x528 PUSH2 0x4BE JUMP JUMPDEST DUP2 PUSH1 0x40 MSTORE DUP4 DUP2 MSTORE DUP7 PUSH1 0x20 DUP6 DUP9 ADD ADD GT ISZERO PUSH2 0x541 JUMPI PUSH1 0x0 DUP1 REVERT JUMPDEST DUP4 PUSH1 0x20 DUP8 ADD PUSH1 0x20 DUP4 ADD CALLDATACOPY PUSH1 0x0 PUSH1 0x20 DUP6 DUP4 ADD ADD MSTORE DUP1 SWAP5 POP POP POP POP POP SWAP3 SWAP2 POP POP JUMP JUMPDEST PUSH1 0x0 PUSH1 0x20 DUP3 DUP5 SUB SLT ISZERO PUSH2 0x573 JUMPI PUSH1 0x0 DUP1 REVERT JUMPDEST DUP2 CALLDATALOAD PUSH8 0xFFFFFFFFFFFFFFFF DUP2 GT ISZERO PUSH2 0x58A JUMPI PUSH1 0x0 DUP1 REVERT JUMPDEST PUSH2 0x596 DUP5 DUP3 DUP6 ADD PUSH2 0x4D4 JUMP JUMPDEST SWAP5 SWAP4 POP POP POP POP JUMP JUMPDEST PUSH1 0x0 DUP1 PUSH1 0x40 DUP4 DUP6 SUB SLT ISZERO PUSH2 0x5B1 JUMPI PUSH1 0x0 DUP1 REVERT JUMPDEST DUP3 CALLDATALOAD PUSH8 0xFFFFFFFFFFFFFFFF DUP2 GT ISZERO PUSH2 0x5C8 JUMPI PUSH1 0x0 DUP1 REVERT JUMPDEST PUSH2 0x5D4 DUP6 DUP3 DUP7 ADD PUSH2 0x4D4 JUMP JUMPDEST SWAP3 POP POP PUSH1 0x20 DUP4 ADD CALLDATALOAD PUSH1 0x1 PUSH1 0x1 PUSH1 0xA0 SHL SUB DUP2 AND DUP2 EQ PUSH2 0x5F1 JUMPI PUSH1 0x0 DUP1 REVERT JUMPDEST DUP1 SWAP2 POP POP SWAP3 POP SWAP3 SWAP1 POP JUMP JUMPDEST PUSH1 0x0 DUP1 PUSH1 0x0 PUSH1 0x60 DUP5 DUP7 SUB SLT ISZERO PUSH2 0x611 JUMPI PUSH1 0x0 DUP1 REVERT JUMPDEST DUP4 CALLDATALOAD PUSH8 0xFFFFFFFFFFFFFFFF DUP1 DUP3 GT ISZERO PUSH2 0x629 JUMPI PUSH1 0x0 DUP1 REVERT JUMPDEST PUSH2 0x635 DUP8 DUP4 DUP9 ADD PUSH2 0x4D4 JUMP JUMPDEST SWAP5 POP PUSH1 0x20 DUP7 ADD CALLDATALOAD SWAP2 POP DUP1 DUP3 GT ISZERO PUSH2 0x64B JUMPI PUSH1 0x0 DUP1 REVERT JUMPDEST POP PUSH2 0x658 DUP7 DUP3 DUP8 ADD PUSH2 0x4D4 JUMP JUMPDEST SWAP3 POP POP PUSH1 0x40 DUP5 ADD CALLDATALOAD SWAP1 POP SWAP3 POP SWAP3 POP SWAP3 JUMP JUMPDEST PUSH1 0x0 JUMPDEST DUP4 DUP2 LT ISZERO PUSH2 0x684 JUMPI DUP2 DUP2 ADD MLOAD DUP4 DUP3 ADD MSTORE PUSH1 0x20 ADD PUSH2 0x66C JUMP JUMPDEST DUP4 DUP2 GT ISZERO PUSH2 0x693 JUMPI PUSH1 0x0 DUP5 DUP5 ADD MSTORE JUMPDEST POP POP POP POP JUMP JUMPDEST PUSH1 0x0 DUP3 MLOAD PUSH2 0x6AB DUP2 DUP5 PUSH1 0x20 DUP8 ADD PUSH2 0x669 JUMP JUMPDEST SWAP2 SWAP1 SWAP2 ADD SWAP3 SWAP2 POP POP JUMP JUMPDEST PUSH1 0x0 PUSH1 0x20 DUP3 DUP5 SUB SLT ISZERO PUSH2 0x6C7 JUMPI PUSH1 0x0 DUP1 REVERT JUMPDEST POP MLOAD SWAP2 SWAP1 POP JUMP JUMPDEST PUSH1 0x0 PUSH1 0x20 DUP3 DUP5 SUB SLT ISZERO PUSH2 0x6E0 JUMPI PUSH1 0x0 DUP1 REVERT JUMPDEST DUP2 MLOAD DUP1 ISZERO ISZERO DUP2 EQ PUSH2 0x6F0 JUMPI PUSH1 0x0 DUP1 REVERT JUMPDEST SWAP4 SWAP3 POP POP POP JUMP INVALID LOG2 PUSH5 0x6970667358 0x22 SLT KECCAK256 0xC7 0xE COINBASE 0xB5 0x26 0xA9 SWAP15 SWAP1 0xD5 0xBB 0xB2 DUP7 EQ SWAP1 0xE7 0xCD SLT CREATE2 0xD7 PUSH6 0x527B3871695C 0xDE SELFDESTRUCT 0xBA PUSH28 0xEB4D64736F6C634300080D0033000000000000000000000000000000 ",
  "sha1": "43d27de95e36415cc4b1de89119e5881c19e6890",
  "source": "// SPDX-License-Identifier: GPL-2.0-or-later\npragma solidity >=0.7.6;\npragma abicoder v2;\n\nimport \"@uniswap/contracts/libraries/TransferHelper.sol\";\nimport \"@uniswap/contracts/interfaces/ISwapRouter.sol\";\n\ncontract TrustSwap {\n    ISwapRouter public immutable swapRouter;\n\n    // This example swaps DAI/WETH9 for single path swaps and DAI/USDC/WETH9 for multi path swaps.\n\n    address public constant DAI = 0x6B175474E89094C44Da98b954EedeAC495271d0F;\n    address public constant WETH9 = 0xC02aaA39b223FE8D0A0e5C4F27eAD9083C756Cc2;\n    address public constant USDC = 0xA0b86991c6218b36c1d19D4a2e9Eb0cE3606eB48;\n\n    mapping(string => address) public s_assetAddress;\n\n    // For this example, we will set the pool fee to 0.3%.\n    uint24 public constant poolFee = 3000;\n\n    constructor(ISwapRouter _swapRouter) {\n        swapRouter = _swapRouter;\n    }\n\n    function addAsset(string memory _name, address _assetAddress) external {\n        s_assetAddress[_name] = _assetAddress;\n    }\n\n    /// @notice swapExactInputSingle swaps a fixed amount of DAI for a maximum possible amount of WETH9\n    /// using the DAI/WETH9 0.3% pool by calling `exactInputSingle` in the swap router.\n    /// @dev The calling address must approve this contract to spend at least `amountIn` worth of its DAI for this function to succeed.\n    /// @param amountIn The exact amount of DAI that will be swapped for WETH9.\n    /// @return amountOut The amount of WETH9 received.\n    function swapCollected(\n        string memory assetIn,\n        string memory assetOut,\n        uint256 amountIn\n    ) external returns (uint256 amountOut) {\n        // Approve the router to spend DAI.\n        TransferHelper.safeApprove(\n            s_assetAddress[assetIn],\n            address(swapRouter),\n            amountIn\n        );\n        ISwapRouter.ExactInputSingleParams memory params = ISwapRouter\n            .ExactInputSingleParams({\n                tokenIn: s_assetAddress[assetIn],\n                tokenOut: s_assetAddress[assetOut],\n                fee: poolFee,\n                recipient: msg.sender,\n                deadline: block.timestamp,\n                amountIn: amountIn,\n                amountOutMinimum: 0,\n                sqrtPriceLimitX96: 0\n            });\n        amountOut = swapRouter.exactInputSingle(params);\n    }\n}\n",
  "sourcePath": "contracts/Uniswap.sol",
  "type": "contract"
}